{"abi":[{"type":"constructor","inputs":[{"name":"_collateralToken","type":"address","internalType":"address"}],"stateMutability":"nonpayable"},{"type":"function","name":"applyFunding","inputs":[{"name":"market","type":"bytes32","internalType":"bytes32"},{"name":"account","type":"address","internalType":"address"}],"outputs":[],"stateMutability":"nonpayable"},{"type":"function","name":"collateralToken","inputs":[],"outputs":[{"name":"","type":"address","internalType":"contract IERC20"}],"stateMutability":"view"},{"type":"function","name":"decreasePosition","inputs":[{"name":"market","type":"bytes32","internalType":"bytes32"},{"name":"collateralDelta","type":"uint256","internalType":"uint256"},{"name":"sizeDelta","type":"uint256","internalType":"uint256"},{"name":"isLong","type":"bool","internalType":"bool"}],"outputs":[],"stateMutability":"nonpayable"},{"type":"function","name":"fundingRate","inputs":[],"outputs":[{"name":"","type":"int256","internalType":"int256"}],"stateMutability":"view"},{"type":"function","name":"getPositionCollateral","inputs":[{"name":"market","type":"bytes32","internalType":"bytes32"},{"name":"account","type":"address","internalType":"address"}],"outputs":[{"name":"collateral","type":"uint256","internalType":"uint256"}],"stateMutability":"view"},{"type":"function","name":"getPositionPnL","inputs":[{"name":"market","type":"bytes32","internalType":"bytes32"},{"name":"account","type":"address","internalType":"address"}],"outputs":[{"name":"pnl","type":"int256","internalType":"int256"}],"stateMutability":"view"},{"type":"function","name":"getPositionSize","inputs":[{"name":"market","type":"bytes32","internalType":"bytes32"},{"name":"account","type":"address","internalType":"address"}],"outputs":[{"name":"size","type":"uint256","internalType":"uint256"}],"stateMutability":"view"},{"type":"function","name":"increasePosition","inputs":[{"name":"market","type":"bytes32","internalType":"bytes32"},{"name":"collateral","type":"uint256","internalType":"uint256"},{"name":"sizeDelta","type":"uint256","internalType":"uint256"},{"name":"isLong","type":"bool","internalType":"bool"}],"outputs":[],"stateMutability":"nonpayable"},{"type":"function","name":"positions","inputs":[{"name":"","type":"bytes32","internalType":"bytes32"},{"name":"","type":"address","internalType":"address"}],"outputs":[{"name":"size","type":"uint256","internalType":"uint256"},{"name":"collateral","type":"uint256","internalType":"uint256"},{"name":"pnl","type":"int256","internalType":"int256"},{"name":"isLong","type":"bool","internalType":"bool"}],"stateMutability":"view"},{"type":"function","name":"priceImpact","inputs":[],"outputs":[{"name":"","type":"uint256","internalType":"uint256"}],"stateMutability":"view"},{"type":"function","name":"setFundingRate","inputs":[{"name":"newRate","type":"int256","internalType":"int256"}],"outputs":[],"stateMutability":"nonpayable"},{"type":"function","name":"setPriceImpact","inputs":[{"name":"newImpact","type":"uint256","internalType":"uint256"}],"outputs":[],"stateMutability":"nonpayable"},{"type":"function","name":"simulatePriceMovement","inputs":[{"name":"market","type":"bytes32","internalType":"bytes32"},{"name":"account","type":"address","internalType":"address"},{"name":"pnlChange","type":"int256","internalType":"int256"}],"outputs":[],"stateMutability":"nonpayable"},{"type":"event","name":"FundingRateUpdated","inputs":[{"name":"newRate","type":"int256","indexed":false,"internalType":"int256"}],"anonymous":false},{"type":"event","name":"PnLUpdated","inputs":[{"name":"market","type":"bytes32","indexed":true,"internalType":"bytes32"},{"name":"account","type":"address","indexed":true,"internalType":"address"},{"name":"pnl","type":"int256","indexed":false,"internalType":"int256"}],"anonymous":false},{"type":"event","name":"PositionDecreased","inputs":[{"name":"market","type":"bytes32","indexed":true,"internalType":"bytes32"},{"name":"account","type":"address","indexed":true,"internalType":"address"},{"name":"collateralDelta","type":"uint256","indexed":false,"internalType":"uint256"},{"name":"sizeDelta","type":"uint256","indexed":false,"internalType":"uint256"}],"anonymous":false},{"type":"event","name":"PositionIncreased","inputs":[{"name":"market","type":"bytes32","indexed":true,"internalType":"bytes32"},{"name":"account","type":"address","indexed":true,"internalType":"address"},{"name":"collateral","type":"uint256","indexed":false,"internalType":"uint256"},{"name":"sizeDelta","type":"uint256","indexed":false,"internalType":"uint256"}],"anonymous":false},{"type":"error","name":"SafeERC20FailedOperation","inputs":[{"name":"token","type":"address","internalType":"address"}]}],"bytecode":{"object":"0x60a0346100d757601f610af338819003918201601f19168301916001600160401b038311848410176100db578084926020946040528339810103126100d757516001600160a01b038116908190036100d7578015610092576080526009196001556032600255604051610a0390816100f082396080518181816101bf015281816103000152818161035701526104eb0152f35b60405162461bcd60e51b815260206004820152601860248201527f496e76616c696420636f6c6c61746572616c20746f6b656e00000000000000006044820152606490fd5b5f80fd5b634e487b7160e01b5f52604160045260245ffdfe60806040818152600480361015610014575f80fd5b5f92833560e01c90816327f3a0d1146107435750806329d88594146106db5780632b929aa81461068057806334ad6c161461063b57806338b2e479146105fb5780633df019561461046357806341d3c84c14610444578063577270cd1461020d5780637d0b11df146101ee578063b2016bd4146101aa578063c8c7f6041461017f578063cbfb47691461013c5763e5f94b07146100af575f80fd5b3461013857606036600319011261013857357fc5d4f467dc91756979d98aa7d18df2fd1fe39fd26114eef030352eae4a2edd8460206100ec610787565b938386528582528086209460018060a01b03169485875282526002818720016101186044358254610886565b90558386528582528086208587528252600281872001549051908152a380f35b8280fd5b50346101385781600319360112610138578160209360029261015c610787565b903582528186528282206001600160a01b03909116825285522001549051908152f35b509034610138573660031901126101a6576101a39061019c610787565b9035610929565b80f35b5080fd5b5050346101a657816003193601126101a657517f00000000000000000000000000000000000000000000000000000000000000006001600160a01b03168152602090f35b5050346101a657816003193601126101a6576020906002549051908152f35b509190346101a65761021e366107a1565b508285949294528460205281852033865260205281852080549082821061041057600181018054928784106103d6578761025b8661026493610879565b94858555610879565b9055612710610275600254886107e9565b0490610292610289600283019384546107fc565b80845588610886565b92156103a7576102b0846102aa8454935480946108a1565b926107c8565b90811561039457600160ff1b81145f19831416610381577fe04d75dcbeabbbfb26d5716ec7868fd59a9cc38f4d1f38119c48105b1958585c96979899500590555b868113156103345761032490337f00000000000000000000000000000000000000000000000000000000000000006108c3565b815194855260208501523393a380f35b85610340575b50610324565b61034a9086610886565b801561033a5761037b90337f00000000000000000000000000000000000000000000000000000000000000006108c3565b5f61033a565b634e487b7160e01b895260118a52602489fd5b634e487b7160e01b895260128a52602489fd5b50869750957fe04d75dcbeabbbfb26d5716ec7868fd59a9cc38f4d1f38119c48105b1958585c949596556102f1565b855162461bcd60e51b81526020818c01526014602482015273436f6c6c61746572616c20746f6f206c6172676560601b6044820152606490fd5b835162461bcd60e51b81526020818a0152600e60248201526d53697a6520746f6f206c6172676560901b6044820152606490fd5b5050346101a657816003193601126101a6576020906001549051908152f35b509190346101a657610474366107a1565b829492156105c65781156105975782516323b872dd60e01b60208201523360248201523060448201526064808201879052815260a0810167ffffffffffffffff811182821017610584578493929161050f917ff38937ea39a774ea995714ac4d04e501f0c2da26854e41c1c566567d6f785e4a96527f0000000000000000000000000000000000000000000000000000000000000000610814565b848752866020528287203388526020528287209061052e8383546107c8565b82556001820161053f8882546107c8565b9055600382019060ff801983541691151516179055610572600261271061056782548a6107e9565b0492019182546107fc565b9055815194855260208501523393a380f35b634e487b7160e01b885260418952602488fd5b825162461bcd60e51b815260208189015260096024820152685a65726f2073697a6560b81b6044820152606490fd5b825162461bcd60e51b8152602081890152600f60248201526e16995c9bc818dbdb1b185d195c985b608a1b6044820152606490fd5b50346101385781600319360112610138576020928291610619610787565b903582528185528282206001600160a01b039091168252845220549051908152f35b5034610138576020366003190112610138577fc164648b301ff7f44095670a2e868fa0ca63d9e7099dc67e45bae217eafb4e329160209135908160015551908152a180f35b5034610138576020366003190112610138578035916103e883116106a657505060025580f35b906020606492519162461bcd60e51b8352820152600f60248201526e092dae0c2c6e840e8dede40d0d2ced608b1b6044820152fd5b503461013857816003193601126101385760809282916106f9610787565b9035825260208281528383206001600160a01b0390921683529081529190208054600182015460028301546003909301548551928352938201529283015260ff1615156060820152f35b929190503461078357816003193601126107835790602093600192610766610787565b9035825281865282822090848060a01b0316825285522001548152f35b8380fd5b602435906001600160a01b038216820361079d57565b5f80fd5b608090600319011261079d57600435906024359060443590606435801515810361079d5790565b919082018092116107d557565b634e487b7160e01b5f52601160045260245ffd5b818102929181159184041417156107d557565b81810392915f1380158285131691841216176107d557565b905f602091828151910182855af11561086e575f513d61086557506001600160a01b0381163b155b6108435750565b604051635274afe760e01b81526001600160a01b039091166004820152602490fd5b6001141561083c565b6040513d5f823e3d90fd5b919082039182116107d557565b9190915f83820193841291129080158216911516176107d557565b81810292915f8212600160ff1b8214166107d55781840514901517156107d557565b60405163a9059cbb60e01b60208201526001600160a01b039092166024830152604480830193909352918152608081019167ffffffffffffffff8311828410176109155761091392604052610814565b565b634e487b7160e01b5f52604160045260245ffd5b805f525f60205260405f209160018060a01b031691825f5260205260405f2080549081156109c75760026020916127106109877fc5d4f467dc91756979d98aa7d18df2fd1fe39fd26114eef030352eae4a2edd8495600154906108a1565b0560ff6003830154165f146109b2576109a48383019182546107fc565b90555b0154604051908152a3565b6109c0838301918254610886565b90556109a7565b5050505056fea2646970667358221220adb075848ae49aacabe7d65f81098f814e142acbb64667ecbd562edbb37d87d064736f6c63430008140033","linkReferences":{}},"methodIdentifiers":{"applyFunding(bytes32,address)":"c8c7f604","collateralToken()":"b2016bd4","decreasePosition(bytes32,uint256,uint256,bool)":"577270cd","fundingRate()":"41d3c84c","getPositionCollateral(bytes32,address)":"27f3a0d1","getPositionPnL(bytes32,address)":"cbfb4769","getPositionSize(bytes32,address)":"38b2e479","increasePosition(bytes32,uint256,uint256,bool)":"3df01956","positions(bytes32,address)":"29d88594","priceImpact()":"7d0b11df","setFundingRate(int256)":"34ad6c16","setPriceImpact(uint256)":"2b929aa8","simulatePriceMovement(bytes32,address,int256)":"e5f94b07"},"id":62}