{"abi":[{"type":"constructor","inputs":[{"name":"_asset","type":"address","internalType":"contract IERC20"},{"name":"_name","type":"string","internalType":"string"},{"name":"_symbol","type":"string","internalType":"string"}],"stateMutability":"nonpayable"},{"type":"function","name":"accrueYield","inputs":[],"outputs":[],"stateMutability":"nonpayable"},{"type":"function","name":"accumulatedYield","inputs":[],"outputs":[{"name":"","type":"uint256","internalType":"uint256"}],"stateMutability":"view"},{"type":"function","name":"addYield","inputs":[{"name":"amount","type":"uint256","internalType":"uint256"}],"outputs":[],"stateMutability":"nonpayable"},{"type":"function","name":"allowance","inputs":[{"name":"owner","type":"address","internalType":"address"},{"name":"spender","type":"address","internalType":"address"}],"outputs":[{"name":"","type":"uint256","internalType":"uint256"}],"stateMutability":"view"},{"type":"function","name":"approve","inputs":[{"name":"spender","type":"address","internalType":"address"},{"name":"value","type":"uint256","internalType":"uint256"}],"outputs":[{"name":"","type":"bool","internalType":"bool"}],"stateMutability":"nonpayable"},{"type":"function","name":"asset","inputs":[],"outputs":[{"name":"","type":"address","internalType":"address"}],"stateMutability":"view"},{"type":"function","name":"balanceOf","inputs":[{"name":"account","type":"address","internalType":"address"}],"outputs":[{"name":"","type":"uint256","internalType":"uint256"}],"stateMutability":"view"},{"type":"function","name":"convertToAssets","inputs":[{"name":"shares","type":"uint256","internalType":"uint256"}],"outputs":[{"name":"","type":"uint256","internalType":"uint256"}],"stateMutability":"view"},{"type":"function","name":"convertToShares","inputs":[{"name":"assets","type":"uint256","internalType":"uint256"}],"outputs":[{"name":"","type":"uint256","internalType":"uint256"}],"stateMutability":"view"},{"type":"function","name":"decimals","inputs":[],"outputs":[{"name":"","type":"uint8","internalType":"uint8"}],"stateMutability":"view"},{"type":"function","name":"deposit","inputs":[{"name":"assets","type":"uint256","internalType":"uint256"},{"name":"receiver","type":"address","internalType":"address"}],"outputs":[{"name":"shares","type":"uint256","internalType":"uint256"}],"stateMutability":"nonpayable"},{"type":"function","name":"lastYieldBlock","inputs":[],"outputs":[{"name":"","type":"uint256","internalType":"uint256"}],"stateMutability":"view"},{"type":"function","name":"maxDeposit","inputs":[{"name":"","type":"address","internalType":"address"}],"outputs":[{"name":"","type":"uint256","internalType":"uint256"}],"stateMutability":"view"},{"type":"function","name":"maxMint","inputs":[{"name":"","type":"address","internalType":"address"}],"outputs":[{"name":"","type":"uint256","internalType":"uint256"}],"stateMutability":"view"},{"type":"function","name":"maxRedeem","inputs":[{"name":"owner","type":"address","internalType":"address"}],"outputs":[{"name":"","type":"uint256","internalType":"uint256"}],"stateMutability":"view"},{"type":"function","name":"maxWithdraw","inputs":[{"name":"owner","type":"address","internalType":"address"}],"outputs":[{"name":"","type":"uint256","internalType":"uint256"}],"stateMutability":"view"},{"type":"function","name":"mint","inputs":[{"name":"shares","type":"uint256","internalType":"uint256"},{"name":"receiver","type":"address","internalType":"address"}],"outputs":[{"name":"","type":"uint256","internalType":"uint256"}],"stateMutability":"nonpayable"},{"type":"function","name":"name","inputs":[],"outputs":[{"name":"","type":"string","internalType":"string"}],"stateMutability":"view"},{"type":"function","name":"previewDeposit","inputs":[{"name":"assets","type":"uint256","internalType":"uint256"}],"outputs":[{"name":"","type":"uint256","internalType":"uint256"}],"stateMutability":"view"},{"type":"function","name":"previewMint","inputs":[{"name":"shares","type":"uint256","internalType":"uint256"}],"outputs":[{"name":"","type":"uint256","internalType":"uint256"}],"stateMutability":"view"},{"type":"function","name":"previewRedeem","inputs":[{"name":"shares","type":"uint256","internalType":"uint256"}],"outputs":[{"name":"","type":"uint256","internalType":"uint256"}],"stateMutability":"view"},{"type":"function","name":"previewWithdraw","inputs":[{"name":"assets","type":"uint256","internalType":"uint256"}],"outputs":[{"name":"","type":"uint256","internalType":"uint256"}],"stateMutability":"view"},{"type":"function","name":"redeem","inputs":[{"name":"shares","type":"uint256","internalType":"uint256"},{"name":"receiver","type":"address","internalType":"address"},{"name":"owner","type":"address","internalType":"address"}],"outputs":[{"name":"assets","type":"uint256","internalType":"uint256"}],"stateMutability":"nonpayable"},{"type":"function","name":"setYieldRate","inputs":[{"name":"newRate","type":"uint256","internalType":"uint256"}],"outputs":[],"stateMutability":"nonpayable"},{"type":"function","name":"symbol","inputs":[],"outputs":[{"name":"","type":"string","internalType":"string"}],"stateMutability":"view"},{"type":"function","name":"totalAssets","inputs":[],"outputs":[{"name":"","type":"uint256","internalType":"uint256"}],"stateMutability":"view"},{"type":"function","name":"totalSupply","inputs":[],"outputs":[{"name":"","type":"uint256","internalType":"uint256"}],"stateMutability":"view"},{"type":"function","name":"transfer","inputs":[{"name":"to","type":"address","internalType":"address"},{"name":"value","type":"uint256","internalType":"uint256"}],"outputs":[{"name":"","type":"bool","internalType":"bool"}],"stateMutability":"nonpayable"},{"type":"function","name":"transferFrom","inputs":[{"name":"from","type":"address","internalType":"address"},{"name":"to","type":"address","internalType":"address"},{"name":"value","type":"uint256","internalType":"uint256"}],"outputs":[{"name":"","type":"bool","internalType":"bool"}],"stateMutability":"nonpayable"},{"type":"function","name":"withdraw","inputs":[{"name":"assets","type":"uint256","internalType":"uint256"},{"name":"receiver","type":"address","internalType":"address"},{"name":"owner","type":"address","internalType":"address"}],"outputs":[{"name":"","type":"uint256","internalType":"uint256"}],"stateMutability":"nonpayable"},{"type":"function","name":"yieldRate","inputs":[],"outputs":[{"name":"","type":"uint256","internalType":"uint256"}],"stateMutability":"view"},{"type":"event","name":"Approval","inputs":[{"name":"owner","type":"address","indexed":true,"internalType":"address"},{"name":"spender","type":"address","indexed":true,"internalType":"address"},{"name":"value","type":"uint256","indexed":false,"internalType":"uint256"}],"anonymous":false},{"type":"event","name":"Deposit","inputs":[{"name":"sender","type":"address","indexed":true,"internalType":"address"},{"name":"owner","type":"address","indexed":true,"internalType":"address"},{"name":"assets","type":"uint256","indexed":false,"internalType":"uint256"},{"name":"shares","type":"uint256","indexed":false,"internalType":"uint256"}],"anonymous":false},{"type":"event","name":"Transfer","inputs":[{"name":"from","type":"address","indexed":true,"internalType":"address"},{"name":"to","type":"address","indexed":true,"internalType":"address"},{"name":"value","type":"uint256","indexed":false,"internalType":"uint256"}],"anonymous":false},{"type":"event","name":"Withdraw","inputs":[{"name":"sender","type":"address","indexed":true,"internalType":"address"},{"name":"receiver","type":"address","indexed":true,"internalType":"address"},{"name":"owner","type":"address","indexed":true,"internalType":"address"},{"name":"assets","type":"uint256","indexed":false,"internalType":"uint256"},{"name":"shares","type":"uint256","indexed":false,"internalType":"uint256"}],"anonymous":false},{"type":"error","name":"ERC20InsufficientAllowance","inputs":[{"name":"spender","type":"address","internalType":"address"},{"name":"allowance","type":"uint256","internalType":"uint256"},{"name":"needed","type":"uint256","internalType":"uint256"}]},{"type":"error","name":"ERC20InsufficientBalance","inputs":[{"name":"sender","type":"address","internalType":"address"},{"name":"balance","type":"uint256","internalType":"uint256"},{"name":"needed","type":"uint256","internalType":"uint256"}]},{"type":"error","name":"ERC20InvalidApprover","inputs":[{"name":"approver","type":"address","internalType":"address"}]},{"type":"error","name":"ERC20InvalidReceiver","inputs":[{"name":"receiver","type":"address","internalType":"address"}]},{"type":"error","name":"ERC20InvalidSender","inputs":[{"name":"sender","type":"address","internalType":"address"}]},{"type":"error","name":"ERC20InvalidSpender","inputs":[{"name":"spender","type":"address","internalType":"address"}]},{"type":"error","name":"ERC4626ExceededMaxDeposit","inputs":[{"name":"receiver","type":"address","internalType":"address"},{"name":"assets","type":"uint256","internalType":"uint256"},{"name":"max","type":"uint256","internalType":"uint256"}]},{"type":"error","name":"ERC4626ExceededMaxMint","inputs":[{"name":"receiver","type":"address","internalType":"address"},{"name":"shares","type":"uint256","internalType":"uint256"},{"name":"max","type":"uint256","internalType":"uint256"}]},{"type":"error","name":"ERC4626ExceededMaxRedeem","inputs":[{"name":"owner","type":"address","internalType":"address"},{"name":"shares","type":"uint256","internalType":"uint256"},{"name":"max","type":"uint256","internalType":"uint256"}]},{"type":"error","name":"ERC4626ExceededMaxWithdraw","inputs":[{"name":"owner","type":"address","internalType":"address"},{"name":"assets","type":"uint256","internalType":"uint256"},{"name":"max","type":"uint256","internalType":"uint256"}]},{"type":"error","name":"SafeERC20FailedOperation","inputs":[{"name":"token","type":"address","internalType":"address"}]}],"bytecode":{"object":"0x60c08060405234620003865762001a6280380380916200002082856200038a565b833981019060608183031262000386578051916001600160a01b0383168303620003865760208281015190926001600160401b03918281116200038657836200006b918301620003ca565b9260408201518381116200038657620000859201620003ca565b825182811162000291576003918254916001958684811c941680156200037b575b8885101462000367578190601f9485811162000314575b508890858311600114620002b1575f92620002a5575b50505f1982861b1c191690861b1783555b8051938411620002915760049586548681811c9116801562000286575b8282101462000273578381116200022b575b5080928511600114620001c157509383949184925f95620001b5575b50501b925f19911b1c19161790555b620001498162000432565b9015620001ac575b60a052608052600a6005554360065560405161156a9081620004f88239608051818181610285015281816103c301528181610576015281816108b701528181610a2e01528181610d2a01526114b3015260a05181610a730152f35b50601262000151565b015193505f806200012f565b92919084601f198116885f52855f20955f905b89838310620002105750505010620001f6575b50505050811b0190556200013e565b01519060f8845f19921b161c191690555f808080620001e7565b858701518955909701969485019488935090810190620001d4565b875f52815f208480880160051c82019284891062000269575b0160051c019087905b8281106200025d57505062000113565b5f81550187906200024d565b9250819262000244565b602288634e487b7160e01b5f525260245ffd5b90607f169062000101565b634e487b7160e01b5f52604160045260245ffd5b015190505f80620000d3565b90889350601f19831691875f528a5f20925f5b8c828210620002fd5750508411620002e5575b505050811b018355620000e4565b01515f1983881b60f8161c191690555f8080620002d7565b8385015186558c97909501949384019301620002c4565b909150855f52885f208580850160051c8201928b86106200035d575b918a91869594930160051c01915b8281106200034e575050620000bd565b5f81558594508a91016200033e565b9250819262000330565b634e487b7160e01b5f52602260045260245ffd5b93607f1693620000a6565b5f80fd5b601f909101601f19168101906001600160401b038211908210176200029157604052565b6001600160401b0381116200029157601f01601f191660200190565b919080601f840112156200038657825190620003e682620003ae565b91620003f660405193846200038a565b80835260209182828701011162000386575f5b8181106200041e5750825f9394955001015290565b858101830151848201840152820162000409565b6040805163313ce56760e01b60208201908152600482529293929181016001600160401b038111828210176200029157604052515f9384928392916001600160a01b03165afa3d15620004ee573d906200048c82620003ae565b916200049c60405193846200038a565b82523d84602084013e5b80620004e1575b620004b8575b508190565b602081805181010312620004dd576020015160ff8111620004b3576001925060ff1690565b8280fd5b50602081511015620004ad565b606090620004a656fe60406080815260049081361015610014575f80fd5b5f91823560e01c90816301e1d11414610e51578163059d9c7514610cee57816306fdde0314610bf957816307a2d13a14610a14578163095ea7b314610b4f5781630a28a47714610b2f5781631411dab014610b1557816318160ddd14610af657816323b872dd14610ab9578163313ce56714610a5d57816338d52e0f14610a19578163402d267d146103275781634cdad50614610a145781636999ac93146109f55781636e553f651461085457816370a082311461083357816387f6fcd31461081457816394bf804d1461076d57816395d89b411461066a578163a9059cbb14610639578163b3d7f6b914610616578163b460af94146104dd578163ba0876521461032c578163c63d75b614610327578163c6e6f592146101995783908263c8b2b546146102635750508063ce96cb771461022b578063d905777e146101ea578063dd62ed3e1461019e578063ef8b30f7146101995763fcdfd5c514610178575f80fd5b346101955781600319360112610195576020906007549051908152f35b5080fd5b610f65565b50346101955780600319360112610195576020916101ba610edf565b826101c3610ef5565b6001600160a01b03928316845260018652922091165f908152908352819020549051908152f35b50346101955760203660031901126101955760209061022461020a610edf565b6001600160a01b03165f9081526020819052604090205490565b9051908152f35b5034610195576020366003190112610195576020916102249082906001600160a01b03610256610edf565b1681528085522054611217565b909150346101955760203660031901126101955780359283610283578280f35b7f00000000000000000000000000000000000000000000000000000000000000006001600160a01b0316803b156103235781516340c10f1960e01b81523093810193845260208401869052928491849182908490829060400103925af190811561031a5750610306575b50506102fb906007546110e0565b6007555f8181808280f35b61030f90610fbb565b61019557815f6102ed565b513d84823e3d90fd5b8380fd5b610f0b565b919050346104d95761033d36610f30565b93919081156104a4576001600160a01b038581169390919033859003610494575b61037a60025461037561036f611498565b87611485565b6113d6565b968715610463578288926103908760209461129f565b885163a9059cbb60e01b81526001600160a01b039092169082019081526020810193909352918290819060400103818b877f0000000000000000000000000000000000000000000000000000000000000000165af18015610459576020985061042c575b508451928684528784015216907ffbde797d201c681b91056529119e0b02407c7bb96a4a2c75c01fc9667232c8db843392a451908152f35b61044b90883d8111610452575b6104438183610fe3565b81019061151c565b505f6103f4565b503d610439565b86513d8a823e3d90fd5b865162461bcd60e51b8152602081840152600b60248201526a5a65726f2061737365747360a81b6044820152606490fd5b61049f8433896110ed565b61035e565b835162461bcd60e51b8152602081850152600f60248201526e043616e6e6f742072656465656d203608c1b6044820152606490fd5b8280fd5b838334610195576104ed36610f30565b9391909460018060a01b039061050f8583881695868152806020522054611217565b8084116105e1575050602095610535610527846111be565b80978633036105d15761129f565b845163a9059cbb60e01b888201526001600160a01b03821660248201526044810184905261059a9061057481606481015b03601f198101835282610fe3565b7f000000000000000000000000000000000000000000000000000000000000000061133d565b8451928352858784015216907ffbde797d201c681b91056529119e0b02407c7bb96a4a2c75c01fc9667232c8db843392a451908152f35b6105dc8233836110ed565b61129f565b8551633fa733bb60e21b81526001600160a01b0388169281019283526020830185905260408301919091529081906060010390fd5b8284346106365760203660031901126106365750610224602092356111ec565b80fd5b505034610195578060031936011261019557602090610663610659610edf565b6024359033611005565b5160018152f35b838334610195578160031936011261019557805191809380549160019083821c92828516948515610763575b60209586861081146107505785895290811561072c57506001146106d4575b6106d087876106c6828c0383610fe3565b5191829182610e6e565b0390f35b81529295507f8a35acfbc15ff81a39ae7d344fd709f28e8600b4aa8c65c6b64bfe7fe36bd19b5b82841061071957505050826106d0946106c6928201019486806106b5565b80548685018801529286019281016106fb565b60ff19168887015250505050151560051b83010192506106c6826106d086806106b5565b634e487b7160e01b845260228352602484fd5b93607f1693610696565b9050346104d957816003193601126104d95760209250359061078d610ef5565b91610797816111ec565b82516323b872dd60e01b86820152336024820152306044820152606481018290529093906107cc906105748160848101610566565b6107d68282611242565b8251918483528583015260018060a01b0316907fdcbc1c05240f31ff3ad067ef1ee35ce4997762752e3a095284754544f4c709d7833392a351908152f35b5050346101955781600319360112610195576020906006549051908152f35b5050346101955760203660031901126101955760209061022461020a610edf565b919050346104d957806003193601126104d9578135610871610ef5565b9381156109bf5782516323b872dd60e01b8152338582019081523060208083019190915260408201859052966001600160a01b03939092918890839081900360600181847f000000000000000000000000000000000000000000000000000000000000000089165af19081156109b45750610997575b506002548061096d575082945b851561093c57506109058582611242565b8351928352848684015216907fdcbc1c05240f31ff3ad067ef1ee35ce4997762752e3a095284754544f4c709d7833392a351908152f35b845162461bcd60e51b8152908101879052600b60248201526a5a65726f2073686172657360a81b6044820152606490fd5b61097a6109919185611485565b61098b85610986611498565b611478565b906113d6565b946108f4565b6109ad90873d8911610452576104438183610fe3565b505f6108e7565b8651903d90823e3d90fd5b825162461bcd60e51b8152602081860152601060248201526f043616e6e6f74206465706f73697420360841b6044820152606490fd5b5050346101955781600319360112610195576020906005549051908152f35b610eb5565b505034610195578160031936011261019557517f00000000000000000000000000000000000000000000000000000000000000006001600160a01b03168152602090f35b83833461019557816003193601126101955760ff7f0000000000000000000000000000000000000000000000000000000000000000169160ff8311610aa6576020838351908152f35b634e487b7160e01b815260118452602490fd5b50503461019557606036600319011261019557602090610663610ada610edf565b610ae2610ef5565b60443591610af18333836110ed565b611005565b5050346101955781600319360112610195576020906002549051908152f35b839034610195576020366003190112610195573560055580f35b8284346106365760203660031901126106365750610224602092356111be565b82843461063657816003193601126106365750610b6a610edf565b602435903315610be3576001600160a01b0316908115610bcd5760209350335f5260018452825f20825f52845280835f205582519081527f8c5be1e5ebec7d5bd14f71427d1e84f3dd0314c0f7b2291e5b200ac8c7c3b925843392a35160018152f35b8251634a1406b160e11b81525f81860152602490fd5b825163e602df0560e01b81525f81860152602490fd5b919050346104d957826003193601126104d957805191836003549060019082821c928281168015610ce4575b6020958686108214610cd15750848852908115610caf5750600114610c56575b6106d086866106c6828b0383610fe3565b929550600383527fc2575a0e9e593c00f959f8c92f12db2869c3395a3b0502d05e2516446f71f85b5b828410610c9c57505050826106d0946106c692820101945f610c45565b8054868501880152928601928101610c7f565b60ff191687860152505050151560051b83010192506106c6826106d05f610c45565b634e487b7160e01b845260229052602483fd5b93607f1693610c25565b919050346104d957826003193601126104d957610d0d60065443611478565b9081610d17578380f35b80516370a0823160e01b815230848201527f00000000000000000000000000000000000000000000000000000000000000006001600160a01b0316928591602081602481885afa908115610e47578391610e14575b5061271091610d81610d869260055490611485565b611485565b049384610d9e575b5050505050436006555f80808380f35b833b156101955782516340c10f1960e01b8152309181019182526020820186905293849182908490829060400103925af1908115610e0b5750610df6575b50610de9906007546110e0565b6007555f80808381610d8e565b91610e04610de99293610fbb565b9190610ddc565b513d85823e3d90fd5b90506020813d8211610e3f575b81610e2e60209383610fe3565b810103126104d95751612710610d6c565b3d9150610e21565b84513d85823e3d90fd5b505034610195578160031936011261019557602090610224611498565b602080825282518183018190529093925f5b828110610ea157505060409293505f838284010152601f8019910116010190565b818101860151848201604001528501610e80565b34610edb576020366003190112610edb576020610ed3600435611217565b604051908152f35b5f80fd5b600435906001600160a01b0382168203610edb57565b602435906001600160a01b0382168203610edb57565b34610edb576020366003190112610edb57610f24610edf565b5060206040515f198152f35b6060906003190112610edb57600435906001600160a01b03906024358281168103610edb57916044359081168103610edb5790565b34610edb576020366003190112610edb5760025460018101809111610fa757610f8c611498565b9060018201809211610fa757602091610ed3916004356113e0565b634e487b7160e01b5f52601160045260245ffd5b67ffffffffffffffff8111610fcf57604052565b634e487b7160e01b5f52604160045260245ffd5b90601f8019910116810190811067ffffffffffffffff821117610fcf57604052565b916001600160a01b038084169283156110c857169283156110b0575f908382528160205260408220549083821061107e575091604082827fddf252ad1be2c89b69c2b068fc378daa952ba7f163c4a11628f55a4df523b3ef958760209652828652038282205586815220818154019055604051908152a3565b60405163391434e360e21b81526001600160a01b03919091166004820152602481019190915260448101839052606490fd5b60405163ec442f0560e01b81525f6004820152602490fd5b604051634b637e8f60e11b81525f6004820152602490fd5b91908201809211610fa757565b9160018060a01b03809316915f9383855260016020526040938486209183169182875260205284862054925f19841061112a575b50505050505050565b84841061118e5750801561117657811561115e5785526001602052838520908552602052039120555f808080808080611121565b8451634a1406b160e11b815260048101879052602490fd5b845163e602df0560e01b815260048101879052602490fd5b8551637dc7a0d960e11b81526001600160a01b039190911660048201526024810184905260448101859052606490fd5b60025460018101809111610fa7576111d4611498565b9060018201809211610fa7576111e9926113a2565b90565b6111f4611498565b60018101809111610fa7576002549060018201809211610fa7576111e9926113a2565b61121f611498565b60018101809111610fa7576002549060018201809211610fa7576111e9926113e0565b6001600160a01b03169081156110b0577fddf252ad1be2c89b69c2b068fc378daa952ba7f163c4a11628f55a4df523b3ef6020826112835f946002546110e0565b60025584845283825260408420818154019055604051908152a3565b906001600160a01b0382169081156110c8575f928284528360205260408420549082821061130b5750817fddf252ad1be2c89b69c2b068fc378daa952ba7f163c4a11628f55a4df523b3ef926020928587528684520360408620558060025403600255604051908152a3565b60405163391434e360e21b81526001600160a01b03919091166004820152602481019190915260448101829052606490fd5b905f602091828151910182855af115611397575f513d61138e57506001600160a01b0381163b155b61136c5750565b604051635274afe760e01b81526001600160a01b039091166004820152602490fd5b60011415611365565b6040513d5f823e3d90fd5b916113ae8183856113e0565b9181156113c2576111e993091515906110e0565b634e487b7160e01b5f52601260045260245ffd5b81156113c2570490565b91818302915f198185099383808610950394808603951461146b57848311156114535790829109815f038216809204600280826003021880830282030280830282030280830282030280830282030280830282030280920290030293600183805f03040190848311900302920304170290565b82634e487b715f52156003026011186020526024601cfd5b5050906111e992506113d6565b91908203918211610fa757565b81810292918115918404141715610fa757565b6040516370a0823160e01b81523060048201526020816024817f00000000000000000000000000000000000000000000000000000000000000006001600160a01b03165afa908115611397575f916114ee575090565b906020823d8211611514575b8161150760209383610fe3565b8101031261063657505190565b3d91506114fa565b90816020910312610edb57518015158103610edb579056fea2646970667358221220b67a6974149b8716009b3395629e2e0b1fac0f8a13061de21e5e522a0f168d4a64736f6c63430008140033","linkReferences":{}},"methodIdentifiers":{"accrueYield()":"059d9c75","accumulatedYield()":"fcdfd5c5","addYield(uint256)":"c8b2b546","allowance(address,address)":"dd62ed3e","approve(address,uint256)":"095ea7b3","asset()":"38d52e0f","balanceOf(address)":"70a08231","convertToAssets(uint256)":"07a2d13a","convertToShares(uint256)":"c6e6f592","decimals()":"313ce567","deposit(uint256,address)":"6e553f65","lastYieldBlock()":"87f6fcd3","maxDeposit(address)":"402d267d","maxMint(address)":"c63d75b6","maxRedeem(address)":"d905777e","maxWithdraw(address)":"ce96cb77","mint(uint256,address)":"94bf804d","name()":"06fdde03","previewDeposit(uint256)":"ef8b30f7","previewMint(uint256)":"b3d7f6b9","previewRedeem(uint256)":"4cdad506","previewWithdraw(uint256)":"0a28a477","redeem(uint256,address,address)":"ba087652","setYieldRate(uint256)":"1411dab0","symbol()":"95d89b41","totalAssets()":"01e1d114","totalSupply()":"18160ddd","transfer(address,uint256)":"a9059cbb","transferFrom(address,address,uint256)":"23b872dd","withdraw(uint256,address,address)":"b460af94","yieldRate()":"6999ac93"},"id":59}