{"abi":[{"type":"constructor","inputs":[{"name":"_owner","type":"address","internalType":"address"}],"stateMutability":"nonpayable"},{"type":"function","name":"acceptOwnership","inputs":[],"outputs":[],"stateMutability":"nonpayable"},{"type":"function","name":"allowance","inputs":[{"name":"owner","type":"address","internalType":"address"},{"name":"spender","type":"address","internalType":"address"}],"outputs":[{"name":"","type":"uint256","internalType":"uint256"}],"stateMutability":"view"},{"type":"function","name":"approve","inputs":[{"name":"spender","type":"address","internalType":"address"},{"name":"value","type":"uint256","internalType":"uint256"}],"outputs":[{"name":"","type":"bool","internalType":"bool"}],"stateMutability":"nonpayable"},{"type":"function","name":"balanceOf","inputs":[{"name":"account","type":"address","internalType":"address"}],"outputs":[{"name":"","type":"uint256","internalType":"uint256"}],"stateMutability":"view"},{"type":"function","name":"burn","inputs":[{"name":"value","type":"uint256","internalType":"uint256"}],"outputs":[],"stateMutability":"nonpayable"},{"type":"function","name":"burnFrom","inputs":[{"name":"account","type":"address","internalType":"address"},{"name":"value","type":"uint256","internalType":"uint256"}],"outputs":[],"stateMutability":"nonpayable"},{"type":"function","name":"decimals","inputs":[],"outputs":[{"name":"","type":"uint8","internalType":"uint8"}],"stateMutability":"view"},{"type":"function","name":"mint","inputs":[{"name":"to","type":"address","internalType":"address"},{"name":"amount","type":"uint256","internalType":"uint256"}],"outputs":[],"stateMutability":"nonpayable"},{"type":"function","name":"mintTime","inputs":[{"name":"","type":"address","internalType":"address"}],"outputs":[{"name":"","type":"uint256","internalType":"uint256"}],"stateMutability":"view"},{"type":"function","name":"minter","inputs":[],"outputs":[{"name":"","type":"address","internalType":"address"}],"stateMutability":"view"},{"type":"function","name":"name","inputs":[],"outputs":[{"name":"","type":"string","internalType":"string"}],"stateMutability":"view"},{"type":"function","name":"owner","inputs":[],"outputs":[{"name":"","type":"address","internalType":"address"}],"stateMutability":"view"},{"type":"function","name":"pendingOwner","inputs":[],"outputs":[{"name":"","type":"address","internalType":"address"}],"stateMutability":"view"},{"type":"function","name":"renounceOwnership","inputs":[],"outputs":[],"stateMutability":"nonpayable"},{"type":"function","name":"setMinter","inputs":[{"name":"_minter","type":"address","internalType":"address"}],"outputs":[],"stateMutability":"nonpayable"},{"type":"function","name":"symbol","inputs":[],"outputs":[{"name":"","type":"string","internalType":"string"}],"stateMutability":"view"},{"type":"function","name":"totalSupply","inputs":[],"outputs":[{"name":"","type":"uint256","internalType":"uint256"}],"stateMutability":"view"},{"type":"function","name":"transfer","inputs":[{"name":"to","type":"address","internalType":"address"},{"name":"value","type":"uint256","internalType":"uint256"}],"outputs":[{"name":"","type":"bool","internalType":"bool"}],"stateMutability":"nonpayable"},{"type":"function","name":"transferFrom","inputs":[{"name":"from","type":"address","internalType":"address"},{"name":"to","type":"address","internalType":"address"},{"name":"value","type":"uint256","internalType":"uint256"}],"outputs":[{"name":"","type":"bool","internalType":"bool"}],"stateMutability":"nonpayable"},{"type":"function","name":"transferOwnership","inputs":[{"name":"newOwner","type":"address","internalType":"address"}],"outputs":[],"stateMutability":"nonpayable"},{"type":"event","name":"Approval","inputs":[{"name":"owner","type":"address","indexed":true,"internalType":"address"},{"name":"spender","type":"address","indexed":true,"internalType":"address"},{"name":"value","type":"uint256","indexed":false,"internalType":"uint256"}],"anonymous":false},{"type":"event","name":"MinterUpdated","inputs":[{"name":"oldMinter","type":"address","indexed":true,"internalType":"address"},{"name":"newMinter","type":"address","indexed":true,"internalType":"address"}],"anonymous":false},{"type":"event","name":"OwnershipTransferStarted","inputs":[{"name":"previousOwner","type":"address","indexed":true,"internalType":"address"},{"name":"newOwner","type":"address","indexed":true,"internalType":"address"}],"anonymous":false},{"type":"event","name":"OwnershipTransferred","inputs":[{"name":"previousOwner","type":"address","indexed":true,"internalType":"address"},{"name":"newOwner","type":"address","indexed":true,"internalType":"address"}],"anonymous":false},{"type":"event","name":"Transfer","inputs":[{"name":"from","type":"address","indexed":true,"internalType":"address"},{"name":"to","type":"address","indexed":true,"internalType":"address"},{"name":"value","type":"uint256","indexed":false,"internalType":"uint256"}],"anonymous":false},{"type":"error","name":"ERC20InsufficientAllowance","inputs":[{"name":"spender","type":"address","internalType":"address"},{"name":"allowance","type":"uint256","internalType":"uint256"},{"name":"needed","type":"uint256","internalType":"uint256"}]},{"type":"error","name":"ERC20InsufficientBalance","inputs":[{"name":"sender","type":"address","internalType":"address"},{"name":"balance","type":"uint256","internalType":"uint256"},{"name":"needed","type":"uint256","internalType":"uint256"}]},{"type":"error","name":"ERC20InvalidApprover","inputs":[{"name":"approver","type":"address","internalType":"address"}]},{"type":"error","name":"ERC20InvalidReceiver","inputs":[{"name":"receiver","type":"address","internalType":"address"}]},{"type":"error","name":"ERC20InvalidSender","inputs":[{"name":"sender","type":"address","internalType":"address"}]},{"type":"error","name":"ERC20InvalidSpender","inputs":[{"name":"spender","type":"address","internalType":"address"}]},{"type":"error","name":"OnlyMinter","inputs":[]},{"type":"error","name":"OwnableInvalidOwner","inputs":[{"name":"owner","type":"address","internalType":"address"}]},{"type":"error","name":"OwnableUnauthorizedAccount","inputs":[{"name":"account","type":"address","internalType":"address"}]},{"type":"error","name":"ZeroAddress","inputs":[]}],"bytecode":{"object":"0x6080346200036a576001600160401b0390601f90601f1962000f6c38819003848101831684018681118582101762000279578492829160405283396020938491810103126200036a57516001600160a01b0380821695909490918690036200036a576200006b6200036e565b620000756200036e565b91815192848411620002795760039384546001948582811c921680156200035f575b8a8310146200034b578185849311620002f8575b50899085831160011462000299575f926200028d575b50505f1982871b1c191690841b1784555b8051948511620002795760049687548481811c911680156200026e575b828210146200025b5783811162000213575b5080928611600114620001ab5750849550908492915f956200019f575b50501b925f19911b1c19161781555b8215620001885750600680546001600160a01b03199081169091556005805491821684179055167f8be0079c531659141344cd1fd0a4f28419497f9722a3daafe3b4186f6b6457e05f80a3604051610bcc9081620003a08239f35b6024905f60405191631e4fbdf760e01b8352820152fd5b015193505f806200011e565b93929585908116885f52855f20955f905b89838310620001f85750505010620001de575b50505050811b0181556200012d565b01519060f8845f19921b161c191690555f808080620001cf565b858701518955909701969485019488935090810190620001bc565b885f52815f208480890160051c820192848a1062000251575b0160051c019085905b8281106200024557505062000101565b5f815501859062000235565b925081926200022c565b602289634e487b7160e01b5f525260245ffd5b90607f1690620000ef565b634e487b7160e01b5f52604160045260245ffd5b015190505f80620000c1565b908987941691885f528b5f20925f5b8d828210620002e15750508411620002c9575b505050811b018455620000d2565b01515f1983891b60f8161c191690555f8080620002bb565b8385015186558a97909501949384019301620002a8565b909150865f52895f208580850160051c8201928c861062000341575b918891869594930160051c01915b82811062000332575050620000ab565b5f815585945088910162000322565b9250819262000314565b634e487b7160e01b5f52602260045260245ffd5b91607f169162000097565b5f80fd5b60408051919082016001600160401b038111838210176200027957604052600482526323a1283160e11b602083015256fe60806040818152600480361015610014575f80fd5b5f92833560e01c90816306fdde03146107b457508063075461721461078b578063095ea7b3146106e257806318160ddd146106c357806323b872dd14610686578063313ce5671461066a57806340c10f191461059a57806342966c681461057c57806370a0823114610545578063715018a6146104de57806379ba50971461045157806379cc67901461041e5780638da5cb5b146103f557806395d89b41146102d5578063a9059cbb146102a4578063b3cdb0dd1461026c578063dd62ed3e14610223578063e30c3978146101f6578063f2fde38b146101855763fca3b5aa146100fc575f80fd5b34610181576020366003190112610181576101156108f0565b9061011e610920565b6001600160a01b03918216928315610174575050600754826bffffffffffffffffffffffff60a01b821617600755167f1cf2de25c5bf439ac0287061c3a0fa69b3b02867d0ccfd2ded34e42577050b738380a380f35b5163d92e233d60e01b8152fd5b8280fd5b83346101f35760203660031901126101f35761019f6108f0565b6101a7610920565b600680546001600160a01b0319166001600160a01b039283169081179091556005549091167f38d16b8cac22d99fc7c124b9cd0de2d3fa1faef420bfe791d8c362d765e227008380a380f35b80fd5b50503461021f578160031936011261021f5760065490516001600160a01b039091168152602090f35b5080fd5b50503461021f578060031936011261021f57806020926102416108f0565b61024961090a565b6001600160a01b0391821683526001865283832091168252845220549051908152f35b50503461021f57602036600319011261021f5760209181906001600160a01b036102946108f0565b1681526008845220549051908152f35b50503461021f578060031936011261021f576020906102ce6102c46108f0565b602435903361094c565b5160018152f35b5091903461021f578160031936011261021f57805190828454600181811c908083169283156103eb575b60209384841081146103d8578388529081156103bc5750600114610367575b505050829003601f01601f191682019267ffffffffffffffff84118385101761035457508291826103509252826108a9565b0390f35b634e487b7160e01b815260418552602490fd5b8787529192508591837f8a35acfbc15ff81a39ae7d344fd709f28e8600b4aa8c65c6b64bfe7fe36bd19b5b8385106103a857505050508301015f808061031e565b805488860183015293019284908201610392565b60ff1916878501525050151560051b84010190505f808061031e565b634e487b7160e01b895260228a52602489fd5b91607f16916102ff565b50503461021f578160031936011261021f5760055490516001600160a01b039091168152602090f35b50503461021f573660031901126101f35761044e61043a6108f0565b60243590610449823383610a27565b610af8565b80f35b509034610181578260031936011261018157600654916001600160a01b039133838516036104c75750506bffffffffffffffffffffffff60a01b8092166006556005549133908316176005553391167f8be0079c531659141344cd1fd0a4f28419497f9722a3daafe3b4186f6b6457e08380a380f35b60249250519063118cdaa760e01b82523390820152fd5b83346101f357806003193601126101f3576104f7610920565b600680546001600160a01b031990811690915560058054918216905581906001600160a01b03167f8be0079c531659141344cd1fd0a4f28419497f9722a3daafe3b4186f6b6457e08280a380f35b50503461021f57602036600319011261021f5760209181906001600160a01b0361056d6108f0565b16815280845220549051908152f35b83823461021f57602036600319011261021f5761044e903533610af8565b50346101815781600319360112610181576105b36108f0565b600754602435916001600160a01b03918216330361065a5716918215610643576002549082820180921161063057507fddf252ad1be2c89b69c2b068fc378daa952ba7f163c4a11628f55a4df523b3ef6020849387936002558484528382528684208181540190558651908152a382526008602052429082205580f35b634e487b7160e01b865260119052602485fd5b835163ec442f0560e01b8152908101859052602490fd5b8451639cdc2ed560e01b81528490fd5b50503461021f578160031936011261021f576020905160128152f35b50503461021f57606036600319011261021f576020906102ce6106a76108f0565b6106af61090a565b604435916106be833383610a27565b61094c565b50503461021f578160031936011261021f576020906002549051908152f35b50346101815781600319360112610181576106fb6108f0565b602435903315610774576001600160a01b031691821561075d57508083602095338152600187528181208582528752205582519081527f8c5be1e5ebec7d5bd14f71427d1e84f3dd0314c0f7b2291e5b200ac8c7c3b925843392a35160018152f35b8351634a1406b160e11b8152908101859052602490fd5b835163e602df0560e01b8152808401869052602490fd5b50503461021f578160031936011261021f5760075490516001600160a01b039091168152602090f35b849150833461018157826003193601126101815782600354600181811c9080831692831561089f575b60209384841081146103d857838852908115610883575060011461082d57505050829003601f01601f191682019267ffffffffffffffff84118385101761035457508291826103509252826108a9565b600387529192508591837fc2575a0e9e593c00f959f8c92f12db2869c3395a3b0502d05e2516446f71f85b5b83851061086f575050505083010185808061031e565b805488860183015293019284908201610859565b60ff1916878501525050151560051b840101905085808061031e565b91607f16916107dd565b602080825282518183018190529093925f5b8281106108dc57505060409293505f838284010152601f8019910116010190565b8181018601518482016040015285016108bb565b600435906001600160a01b038216820361090657565b5f80fd5b602435906001600160a01b038216820361090657565b6005546001600160a01b0316330361093457565b60405163118cdaa760e01b8152336004820152602490fd5b916001600160a01b03808416928315610a0f57169283156109f7575f90838252816020526040822054908382106109c5575091604082827fddf252ad1be2c89b69c2b068fc378daa952ba7f163c4a11628f55a4df523b3ef958760209652828652038282205586815220818154019055604051908152a3565b60405163391434e360e21b81526001600160a01b03919091166004820152602481019190915260448101839052606490fd5b60405163ec442f0560e01b81525f6004820152602490fd5b604051634b637e8f60e11b81525f6004820152602490fd5b9160018060a01b03809316915f9383855260016020526040938486209183169182875260205284862054925f198410610a64575b50505050505050565b848410610ac857508015610ab0578115610a985785526001602052838520908552602052039120555f808080808080610a5b565b8451634a1406b160e11b815260048101879052602490fd5b845163e602df0560e01b815260048101879052602490fd5b8551637dc7a0d960e11b81526001600160a01b039190911660048201526024810184905260448101859052606490fd5b906001600160a01b038216908115610a0f575f9282845283602052604084205490828210610b645750817fddf252ad1be2c89b69c2b068fc378daa952ba7f163c4a11628f55a4df523b3ef926020928587528684520360408620558060025403600255604051908152a3565b60405163391434e360e21b81526001600160a01b03919091166004820152602481019190915260448101829052606490fdfea264697066735822122045daafb1be01b657765f100816159b46d001ed8c9d90e564609ba3e11391d13e64736f6c63430008140033","linkReferences":{}},"methodIdentifiers":{"acceptOwnership()":"79ba5097","allowance(address,address)":"dd62ed3e","approve(address,uint256)":"095ea7b3","balanceOf(address)":"70a08231","burn(uint256)":"42966c68","burnFrom(address,uint256)":"79cc6790","decimals()":"313ce567","mint(address,uint256)":"40c10f19","mintTime(address)":"b3cdb0dd","minter()":"07546172","name()":"06fdde03","owner()":"8da5cb5b","pendingOwner()":"e30c3978","renounceOwnership()":"715018a6","setMinter(address)":"fca3b5aa","symbol()":"95d89b41","totalSupply()":"18160ddd","transfer(address,uint256)":"a9059cbb","transferFrom(address,address,uint256)":"23b872dd","transferOwnership(address)":"f2fde38b"},"id":66}