{"abi":[{"type":"constructor","inputs":[{"name":"name","type":"string","internalType":"string"},{"name":"symbol","type":"string","internalType":"string"},{"name":"decimals_","type":"uint8","internalType":"uint8"}],"stateMutability":"nonpayable"},{"type":"function","name":"allowance","inputs":[{"name":"owner","type":"address","internalType":"address"},{"name":"spender","type":"address","internalType":"address"}],"outputs":[{"name":"","type":"uint256","internalType":"uint256"}],"stateMutability":"view"},{"type":"function","name":"approve","inputs":[{"name":"spender","type":"address","internalType":"address"},{"name":"value","type":"uint256","internalType":"uint256"}],"outputs":[{"name":"","type":"bool","internalType":"bool"}],"stateMutability":"nonpayable"},{"type":"function","name":"balanceOf","inputs":[{"name":"account","type":"address","internalType":"address"}],"outputs":[{"name":"","type":"uint256","internalType":"uint256"}],"stateMutability":"view"},{"type":"function","name":"burn","inputs":[{"name":"from","type":"address","internalType":"address"},{"name":"amount","type":"uint256","internalType":"uint256"}],"outputs":[],"stateMutability":"nonpayable"},{"type":"function","name":"decimals","inputs":[],"outputs":[{"name":"","type":"uint8","internalType":"uint8"}],"stateMutability":"view"},{"type":"function","name":"mint","inputs":[{"name":"to","type":"address","internalType":"address"},{"name":"amount","type":"uint256","internalType":"uint256"}],"outputs":[],"stateMutability":"nonpayable"},{"type":"function","name":"name","inputs":[],"outputs":[{"name":"","type":"string","internalType":"string"}],"stateMutability":"view"},{"type":"function","name":"symbol","inputs":[],"outputs":[{"name":"","type":"string","internalType":"string"}],"stateMutability":"view"},{"type":"function","name":"totalSupply","inputs":[],"outputs":[{"name":"","type":"uint256","internalType":"uint256"}],"stateMutability":"view"},{"type":"function","name":"transfer","inputs":[{"name":"to","type":"address","internalType":"address"},{"name":"value","type":"uint256","internalType":"uint256"}],"outputs":[{"name":"","type":"bool","internalType":"bool"}],"stateMutability":"nonpayable"},{"type":"function","name":"transferFrom","inputs":[{"name":"from","type":"address","internalType":"address"},{"name":"to","type":"address","internalType":"address"},{"name":"value","type":"uint256","internalType":"uint256"}],"outputs":[{"name":"","type":"bool","internalType":"bool"}],"stateMutability":"nonpayable"},{"type":"event","name":"Approval","inputs":[{"name":"owner","type":"address","indexed":true,"internalType":"address"},{"name":"spender","type":"address","indexed":true,"internalType":"address"},{"name":"value","type":"uint256","indexed":false,"internalType":"uint256"}],"anonymous":false},{"type":"event","name":"Transfer","inputs":[{"name":"from","type":"address","indexed":true,"internalType":"address"},{"name":"to","type":"address","indexed":true,"internalType":"address"},{"name":"value","type":"uint256","indexed":false,"internalType":"uint256"}],"anonymous":false},{"type":"error","name":"ERC20InsufficientAllowance","inputs":[{"name":"spender","type":"address","internalType":"address"},{"name":"allowance","type":"uint256","internalType":"uint256"},{"name":"needed","type":"uint256","internalType":"uint256"}]},{"type":"error","name":"ERC20InsufficientBalance","inputs":[{"name":"sender","type":"address","internalType":"address"},{"name":"balance","type":"uint256","internalType":"uint256"},{"name":"needed","type":"uint256","internalType":"uint256"}]},{"type":"error","name":"ERC20InvalidApprover","inputs":[{"name":"approver","type":"address","internalType":"address"}]},{"type":"error","name":"ERC20InvalidReceiver","inputs":[{"name":"receiver","type":"address","internalType":"address"}]},{"type":"error","name":"ERC20InvalidSender","inputs":[{"name":"sender","type":"address","internalType":"address"}]},{"type":"error","name":"ERC20InvalidSpender","inputs":[{"name":"spender","type":"address","internalType":"address"}]}],"bytecode":{"object":"0x608060405234620003235762000bea803803806200001d8162000327565b9283398101606082820312620003235781516001600160401b03908181116200032357826200004e9185016200034d565b906020928385015182811162000323576040916200006e9187016200034d565b9401519360ff8516809503620003235782518281116200022e576003918254916001958684811c9416801562000318575b8885101462000304578190601f94858111620002b1575b5088908583116001146200024e575f9262000242575b50505f1982861b1c191690861b1783555b80519384116200022e5760049586548681811c9116801562000223575b828210146200021057838111620001c8575b50809285116001146200015e57509383949184925f9562000152575b50501b925f19911b1c19161790555b60ff19600554161760055560405161082c9081620003be8239f35b015193505f8062000128565b92919084601f198116885f52855f20955f905b89838310620001ad575050501062000193575b50505050811b01905562000137565b01519060f8845f19921b161c191690555f80808062000184565b85870151895590970196948501948893509081019062000171565b875f52815f208480880160051c82019284891062000206575b0160051c019087905b828110620001fa5750506200010c565b5f8155018790620001ea565b92508192620001e1565b602288634e487b7160e01b5f525260245ffd5b90607f1690620000fa565b634e487b7160e01b5f52604160045260245ffd5b015190505f80620000cc565b90889350601f19831691875f528a5f20925f5b8c8282106200029a575050841162000282575b505050811b018355620000dd565b01515f1983881b60f8161c191690555f808062000274565b8385015186558c9790950194938401930162000261565b909150855f52885f208580850160051c8201928b8610620002fa575b918a91869594930160051c01915b828110620002eb575050620000b6565b5f81558594508a9101620002db565b92508192620002cd565b634e487b7160e01b5f52602260045260245ffd5b93607f16936200009f565b5f80fd5b6040519190601f01601f191682016001600160401b038111838210176200022e57604052565b919080601f84011215620003235782516001600160401b0381116200022e5760209062000383601f8201601f1916830162000327565b9281845282828701011162000323575f5b818110620003a95750825f9394955001015290565b85810183015184820184015282016200039456fe6080604081815260049182361015610015575f80fd5b5f92833560e01c91826306fdde03146105cc57508163095ea7b31461052257816318160ddd1461050357816323b872dd1461040d578163313ce567146103eb57816340c10f191461033f57816370a082311461030857816395d89b41146101e95781639dc29fac1461011657508063a9059cbb146100e65763dd62ed3e1461009b575f80fd5b346100e257806003193601126100e257806020926100b76106eb565b6100bf610705565b6001600160a01b0391821683526001865283832091168252845220549051908152f35b5080fd5b50346100e257806003193601126100e25760209061010f6101056106eb565b602435903361071b565b5160018152f35b839150346100e257826003193601126100e2576101316106eb565b6001600160a01b038116916024359183156101d25783855284602052858520549183831061019e5750508184957fddf252ad1be2c89b69c2b068fc378daa952ba7f163c4a11628f55a4df523b3ef936020938688528785520381872055816002540360025551908152a380f35b865163391434e360e21b81526001600160a01b03909216908201908152602081018390526040810184905281906060010390fd5b8551634b637e8f60e11b8152808301869052602490fd5b8383346100e257816003193601126100e257805190828454600181811c908083169283156102fe575b60209384841081146102eb578388529081156102cf575060011461027a575b505050829003601f01601f191682019267ffffffffffffffff84118385101761026757508291826102639252826106a4565b0390f35b634e487b7160e01b815260418552602490fd5b8787529192508591837f8a35acfbc15ff81a39ae7d344fd709f28e8600b4aa8c65c6b64bfe7fe36bd19b5b8385106102bb5750505050830101858080610231565b8054888601830152930192849082016102a5565b60ff1916878501525050151560051b8401019050858080610231565b634e487b7160e01b895260228a52602489fd5b91607f1691610212565b5050346100e25760203660031901126100e25760209181906001600160a01b036103306106eb565b16815280845220549051908152f35b919050346103e757806003193601126103e75761035a6106eb565b6001600160a01b031691602435919083156103d257600254908382018092116103bf575084927fddf252ad1be2c89b69c2b068fc378daa952ba7f163c4a11628f55a4df523b3ef9260209260025585855284835280852082815401905551908152a380f35b634e487b7160e01b865260119052602485fd5b84602492519163ec442f0560e01b8352820152fd5b8280fd5b5050346100e257816003193601126100e25760209060ff600554169051908152f35b90508234610500576060366003190112610500576104296106eb565b610431610705565b916044359360018060a01b038316808352600160205286832033845260205286832054915f19831061046c575b60208861010f89898961071b565b8683106104d45781156104bd5733156104a65750825260016020908152868320338452815291869020908590039055829061010f8761045e565b8751634a1406b160e11b8152908101849052602490fd5b875163e602df0560e01b8152908101849052602490fd5b8751637dc7a0d960e11b8152339181019182526020820193909352604081018790528291506060010390fd5b80fd5b5050346100e257816003193601126100e2576020906002549051908152f35b9050346103e757816003193601126103e75761053c6106eb565b6024359033156105b5576001600160a01b031691821561059e57508083602095338152600187528181208582528752205582519081527f8c5be1e5ebec7d5bd14f71427d1e84f3dd0314c0f7b2291e5b200ac8c7c3b925843392a35160018152f35b8351634a1406b160e11b8152908101859052602490fd5b835163e602df0560e01b8152808401869052602490fd5b849084346103e757826003193601126103e75782600354600181811c9080831692831561069a575b60209384841081146102eb578388529081156102cf575060011461064457505050829003601f01601f191682019267ffffffffffffffff84118385101761026757508291826102639252826106a4565b600387529192508591837fc2575a0e9e593c00f959f8c92f12db2869c3395a3b0502d05e2516446f71f85b5b8385106106865750505050830101858080610231565b805488860183015293019284908201610670565b91607f16916105f4565b602080825282518183018190529093925f5b8281106106d757505060409293505f838284010152601f8019910116010190565b8181018601518482016040015285016106b6565b600435906001600160a01b038216820361070157565b5f80fd5b602435906001600160a01b038216820361070157565b916001600160a01b038084169283156107de57169283156107c6575f9083825281602052604082205490838210610794575091604082827fddf252ad1be2c89b69c2b068fc378daa952ba7f163c4a11628f55a4df523b3ef958760209652828652038282205586815220818154019055604051908152a3565b60405163391434e360e21b81526001600160a01b03919091166004820152602481019190915260448101839052606490fd5b60405163ec442f0560e01b81525f6004820152602490fd5b604051634b637e8f60e11b81525f6004820152602490fdfea2646970667358221220eca657be56b23ecdc38388edeab1439ba9229b8214d8f9ed01f3994c90d42cb464736f6c63430008140033","linkReferences":{}},"methodIdentifiers":{"allowance(address,address)":"dd62ed3e","approve(address,uint256)":"095ea7b3","balanceOf(address)":"70a08231","burn(address,uint256)":"9dc29fac","decimals()":"313ce567","mint(address,uint256)":"40c10f19","name()":"06fdde03","symbol()":"95d89b41","totalSupply()":"18160ddd","transfer(address,uint256)":"a9059cbb","transferFrom(address,address,uint256)":"23b872dd"},"id":58}