{"abi":[{"type":"constructor","inputs":[{"name":"_ostiumTrading","type":"address","internalType":"address"},{"name":"_ostiumTradingStorage","type":"address","internalType":"address"},{"name":"_collateralToken","type":"address","internalType":"address"},{"name":"_gbpUsdPairIndex","type":"uint16","internalType":"uint16"},{"name":"_targetLeverage","type":"uint256","internalType":"uint256"},{"name":"_priceOracle","type":"address","internalType":"address"},{"name":"_marketIdentifier","type":"bytes32","internalType":"bytes32"}],"stateMutability":"nonpayable"},{"type":"function","name":"MAX_LEVERAGE","inputs":[],"outputs":[{"name":"","type":"uint256","internalType":"uint256"}],"stateMutability":"view"},{"type":"function","name":"MAX_POSITION_SIZE","inputs":[],"outputs":[{"name":"","type":"uint256","internalType":"uint256"}],"stateMutability":"view"},{"type":"function","name":"POSITION_INDEX","inputs":[],"outputs":[{"name":"","type":"uint8","internalType":"uint8"}],"stateMutability":"view"},{"type":"function","name":"PRECISION_2","inputs":[],"outputs":[{"name":"","type":"uint32","internalType":"uint32"}],"stateMutability":"view"},{"type":"function","name":"SLIPPAGE_PRECISION","inputs":[],"outputs":[{"name":"","type":"uint256","internalType":"uint256"}],"stateMutability":"view"},{"type":"function","name":"builderFee","inputs":[],"outputs":[{"name":"","type":"uint32","internalType":"uint32"}],"stateMutability":"view"},{"type":"function","name":"builderFeeRecipient","inputs":[],"outputs":[{"name":"","type":"address","internalType":"address"}],"stateMutability":"view"},{"type":"function","name":"collateralToken","inputs":[],"outputs":[{"name":"","type":"address","internalType":"contract IERC20"}],"stateMutability":"view"},{"type":"function","name":"decreasePosition","inputs":[{"name":"market","type":"bytes32","internalType":"bytes32"},{"name":"collateralDelta","type":"uint256","internalType":"uint256"},{"name":"sizeDelta","type":"uint256","internalType":"uint256"},{"name":"isLong","type":"bool","internalType":"bool"}],"outputs":[],"stateMutability":"nonpayable"},{"type":"function","name":"emergencyWithdraw","inputs":[{"name":"token","type":"address","internalType":"address"},{"name":"amount","type":"uint256","internalType":"uint256"}],"outputs":[],"stateMutability":"nonpayable"},{"type":"function","name":"estimatedFeeRateBPS","inputs":[],"outputs":[{"name":"","type":"uint256","internalType":"uint256"}],"stateMutability":"view"},{"type":"function","name":"gbpUsdPairIndex","inputs":[],"outputs":[{"name":"","type":"uint16","internalType":"uint16"}],"stateMutability":"view"},{"type":"function","name":"getPositionCollateral","inputs":[{"name":"market","type":"bytes32","internalType":"bytes32"},{"name":"account","type":"address","internalType":"address"}],"outputs":[{"name":"collateral","type":"uint256","internalType":"uint256"}],"stateMutability":"view"},{"type":"function","name":"getPositionPnL","inputs":[{"name":"market","type":"bytes32","internalType":"bytes32"},{"name":"account","type":"address","internalType":"address"}],"outputs":[{"name":"pnl","type":"int256","internalType":"int256"}],"stateMutability":"view"},{"type":"function","name":"getPositionSize","inputs":[{"name":"market","type":"bytes32","internalType":"bytes32"},{"name":"account","type":"address","internalType":"address"}],"outputs":[{"name":"size","type":"uint256","internalType":"uint256"}],"stateMutability":"view"},{"type":"function","name":"increasePosition","inputs":[{"name":"market","type":"bytes32","internalType":"bytes32"},{"name":"collateral","type":"uint256","internalType":"uint256"},{"name":"sizeDelta","type":"uint256","internalType":"uint256"},{"name":"isLong","type":"bool","internalType":"bool"}],"outputs":[],"stateMutability":"nonpayable"},{"type":"function","name":"marketIdentifier","inputs":[],"outputs":[{"name":"","type":"bytes32","internalType":"bytes32"}],"stateMutability":"view"},{"type":"function","name":"ostiumTrading","inputs":[],"outputs":[{"name":"","type":"address","internalType":"contract IOstiumTrading"}],"stateMutability":"view"},{"type":"function","name":"ostiumTradingStorage","inputs":[],"outputs":[{"name":"","type":"address","internalType":"contract IOstiumTradingStorage"}],"stateMutability":"view"},{"type":"function","name":"owner","inputs":[],"outputs":[{"name":"","type":"address","internalType":"address"}],"stateMutability":"view"},{"type":"function","name":"priceOracle","inputs":[],"outputs":[{"name":"","type":"address","internalType":"address"}],"stateMutability":"view"},{"type":"function","name":"renounceOwnership","inputs":[],"outputs":[],"stateMutability":"nonpayable"},{"type":"function","name":"setBuilderFee","inputs":[{"name":"newFee","type":"uint32","internalType":"uint32"}],"outputs":[],"stateMutability":"nonpayable"},{"type":"function","name":"setBuilderFeeRecipient","inputs":[{"name":"newRecipient","type":"address","internalType":"address"}],"outputs":[],"stateMutability":"nonpayable"},{"type":"function","name":"setEstimatedFeeRate","inputs":[{"name":"newRate","type":"uint256","internalType":"uint256"}],"outputs":[],"stateMutability":"nonpayable"},{"type":"function","name":"setSlippageTolerance","inputs":[{"name":"newSlippage","type":"uint256","internalType":"uint256"}],"outputs":[],"stateMutability":"nonpayable"},{"type":"function","name":"setTargetLeverage","inputs":[{"name":"newLeverage","type":"uint256","internalType":"uint256"}],"outputs":[],"stateMutability":"nonpayable"},{"type":"function","name":"slippageTolerance","inputs":[],"outputs":[{"name":"","type":"uint256","internalType":"uint256"}],"stateMutability":"view"},{"type":"function","name":"targetLeverage","inputs":[],"outputs":[{"name":"","type":"uint256","internalType":"uint256"}],"stateMutability":"view"},{"type":"function","name":"transferOwnership","inputs":[{"name":"newOwner","type":"address","internalType":"address"}],"outputs":[],"stateMutability":"nonpayable"},{"type":"event","name":"BuilderFeeUpdated","inputs":[{"name":"oldFee","type":"uint32","indexed":false,"internalType":"uint32"},{"name":"newFee","type":"uint32","indexed":false,"internalType":"uint32"}],"anonymous":false},{"type":"event","name":"EstimatedFeeRateUpdated","inputs":[{"name":"oldRate","type":"uint256","indexed":false,"internalType":"uint256"},{"name":"newRate","type":"uint256","indexed":false,"internalType":"uint256"}],"anonymous":false},{"type":"event","name":"OwnershipTransferred","inputs":[{"name":"previousOwner","type":"address","indexed":true,"internalType":"address"},{"name":"newOwner","type":"address","indexed":true,"internalType":"address"}],"anonymous":false},{"type":"event","name":"PositionClosed","inputs":[{"name":"percentageClosed","type":"uint256","indexed":false,"internalType":"uint256"},{"name":"collateralReturned","type":"uint256","indexed":false,"internalType":"uint256"}],"anonymous":false},{"type":"event","name":"PositionOpened","inputs":[{"name":"collateral","type":"uint256","indexed":false,"internalType":"uint256"},{"name":"notionalSize","type":"uint256","indexed":false,"internalType":"uint256"},{"name":"leverage","type":"uint32","indexed":false,"internalType":"uint32"}],"anonymous":false},{"type":"event","name":"SlippageToleranceUpdated","inputs":[{"name":"oldSlippage","type":"uint256","indexed":false,"internalType":"uint256"},{"name":"newSlippage","type":"uint256","indexed":false,"internalType":"uint256"}],"anonymous":false},{"type":"event","name":"TargetLeverageUpdated","inputs":[{"name":"oldLeverage","type":"uint256","indexed":false,"internalType":"uint256"},{"name":"newLeverage","type":"uint256","indexed":false,"internalType":"uint256"}],"anonymous":false},{"type":"error","name":"InvalidAddress","inputs":[]},{"type":"error","name":"InvalidLeverage","inputs":[]},{"type":"error","name":"InvalidPairIndex","inputs":[]},{"type":"error","name":"InvalidSlippage","inputs":[]},{"type":"error","name":"LeverageTooHigh","inputs":[]},{"type":"error","name":"OwnableInvalidOwner","inputs":[{"name":"owner","type":"address","internalType":"address"}]},{"type":"error","name":"OwnableUnauthorizedAccount","inputs":[{"name":"account","type":"address","internalType":"address"}]},{"type":"error","name":"PositionCloseFailed","inputs":[]},{"type":"error","name":"PositionOpenFailed","inputs":[]},{"type":"error","name":"PositionTooLarge","inputs":[]},{"type":"error","name":"ReentrancyGuardReentrantCall","inputs":[]},{"type":"error","name":"SafeERC20FailedOperation","inputs":[{"name":"token","type":"address","internalType":"address"}]},{"type":"error","name":"ZeroAmount","inputs":[]}],"bytecode":{"object":"0x61012034620002a257601f62001d8838819003918201601f1916830191906001600160401b03831184841017620002a6578160e09285926040958652833981010312620002a2576200005182620002ba565b6200005f60208401620002ba565b6200006c838501620002ba565b93606081015161ffff81168103620002a25760808201519160c06200009460a08301620002ba565b9101519633156200028b575f8054336001600160a01b0319808316821784558a519990986001600160a01b03949093859391908416907f8be0079c531659141344cd1fd0a4f28419497f9722a3daafe3b4186f6b6457e09080a360018055169788156200027c575081169182156200026b5781169283156200026b57169586156200025a5788156200025a578415620002495760805260a05260c05260e05260055560028054919091169190911790556101009182526101f4600355600480546001600160c01b0319163360201b600160201b600160c01b0316179055606460065551611ab89182620002d08339608051828181610179015281816108b5015281816109a60152611452015260a0518281816104190152818161071a01528181610a2e01528181610c6001528181610e6e015281816113e5015281816117d20152611a09015260c0518281816103b8015281816106940152611517015260e051828181610835015281816109ec01528181610d8801528181610e2d015281816113a10152818161178f01526119c801525181818161049c0152818161064d01528181610df001528181611751015261198e0152f35b8751633fe89cb960e11b8152600490fd5b875163e6c4247b60e01b8152600490fd5b885163e6c4247b60e01b8152600490fd5b63e6c4247b60e01b8152600490fd5b8651631e4fbdf760e01b81525f6004820152602490fd5b5f80fd5b634e487b7160e01b5f52604160045260245ffd5b51906001600160a01b0382168203620002a25756fe60806040526004361015610011575f80fd5b5f803560e01c8063117da1ee1461101657806316c3e3b214610fb1578063217fcbbb14610f185780632442ec1914610efc5780632630c12f14610ed357806327f3a0d114610dd05780632957789c14610dac5780632f739cc214610d6d57806338b2e47914610d455780633df0195614610616578063453943f0146105895780634ce11d21146105a557806355f2ebfb14610589578063577270cd1461055f5780635ec1215f1461053f578063715018a6146104e65780638da5cb5b146104bf5780638f1c66b21461048457806395ccea671461044857806396b21b8e146104035780639b45ec97146103e7578063b2016bd4146103a2578063bdd66380146102eb578063c96a2e60146102c2578063cbfb476914610292578063d03153aa14610274578063d667642114610256578063d6c946ea14610238578063f2fde38b146101ab5763f554886114610164575f80fd5b346101a857806003193601126101a8576040517f00000000000000000000000000000000000000000000000000000000000000006001600160a01b03168152602090f35b80fd5b50346101a85760203660031901126101a8576101c56110b1565b6101cd6110ee565b6001600160a01b0390811690811561021f575f54826bffffffffffffffffffffffff60a01b8216175f55167f8be0079c531659141344cd1fd0a4f28419497f9722a3daafe3b4186f6b6457e05f80a380f35b604051631e4fbdf760e01b815260048101849052602490fd5b50346101a857806003193601126101a8576020600554604051908152f35b50346101a857806003193601126101a8576020600654604051908152f35b50346101a857806003193601126101a8576020600354604051908152f35b50346101a85760403660031901126101a8576102ac611097565b5060206102ba60043561174b565b604051908152f35b50346101a857806003193601126101a857600454604051602091821c6001600160a01b03168152f35b50346101a85760203660031901126101a85760043563ffffffff9081811680910361039e576103186110ee565b6207a1208111610367577f6e57042ab4a180af7b81b70a59ebd71a2dbe7fd15cd3eeec6b935537f7ad848091604091600454918163ffffffff198416176004558351921682526020820152a180f35b60405162461bcd60e51b815260206004820152600f60248201526e08ccaca40caf0c6cacac8e640dac2f608b1b6044820152606490fd5b8280fd5b50346101a857806003193601126101a8576040517f00000000000000000000000000000000000000000000000000000000000000006001600160a01b03168152602090f35b50346101a857806003193601126101a857602060405160148152f35b50346101a857806003193601126101a8576040517f00000000000000000000000000000000000000000000000000000000000000006001600160a01b03168152602090f35b50346101a85760403660031901126101a8576104816104656110b1565b61046d6110ee565b6024359033906001600160a01b03166116f5565b80f35b50346101a857806003193601126101a85760206040517f00000000000000000000000000000000000000000000000000000000000000008152f35b50346101a857806003193601126101a857546040516001600160a01b039091168152602090f35b50346101a857806003193601126101a8576104ff6110ee565b5f80546001600160a01b0319811682556001600160a01b03167f8be0079c531659141344cd1fd0a4f28419497f9722a3daafe3b4186f6b6457e08280a380f35b50346101a857806003193601126101a857602060405164e8d4a510008152f35b50346101a857610582610571366110c7565b9290915061057d611356565b611379565b6001805580f35b50346101a857806003193601126101a857602060405160648152f35b50346101a85760203660031901126101a8576105bf6110b1565b6105c76110ee565b6001600160a01b038116156106045760048054640100000000600160c01b03191660209290921b640100000000600160c01b031691909117905580f35b60405163e6c4247b60e01b8152600490fd5b50346101a857610625366110c7565b610630929192611356565b811593848015610d3d575b610d2b5761064b61067292611119565b7f000000000000000000000000000000000000000000000000000000000000000014611165565b60055460148111610d195761068d64e8d4a5100091836111a2565b11610d07577f00000000000000000000000000000000000000000000000000000000000000006040516323b872dd60e01b60208201523360248201523060448201528260648201526064815260a0810181811067ffffffffffffffff821117610cf3576040526106fd90826112f1565b60405163095ea7b360e01b60208083018281526001600160a01b037f00000000000000000000000000000000000000000000000000000000000000001660248501526044808501879052845292939288906107596064876111fa565b85519082865af187513d82610cce575b505015610c53575b5050506005549260148411610c415763028f5c288411610c415783606481020460641484151715610c2d5760025460405163fefe46f160e01b815290602090829060049082906001600160a01b03165afa908115610bc0578691610bf7575b50806402540be4008102046402540be4001481151715610be357604051906107f7826111b5565b8382526402540be40060018060c01b03910216602082015285604082015285606082015230608082015263ffffffff606486021660a082015261ffff7f00000000000000000000000000000000000000000000000000000000000000001660c08201528560e082015260016101008201526004546040519081604081011067ffffffffffffffff604084011117610bcf5760408281019052602081811c6001600160a01b03908116845263ffffffff929092169083015260035491907f0000000000000000000000000000000000000000000000000000000000000000163b15610bcb57604080516301d0822360e61b8152845160048201526020808601516001600160c01b03908116602484015292860151831660448301526060860151909216606482015260808501516001600160a01b03908116608483015260a086015163ffffffff90811660a484015260c087015161ffff1660c484015260e087015160ff1660e48401526101009096015115156101048301528351811661012483015292909101519093166101448401526101648301889052610184830191909152869082906101a490829084907f000000000000000000000000000000000000000000000000000000000000000016622dc6c0f18015610bc057610bad575b506040516303acbacf60e21b81523060048201527f000000000000000000000000000000000000000000000000000000000000000061ffff1660248201525f6044820152610120919082816064816001600160a01b037f0000000000000000000000000000000000000000000000000000000000000000165afa928315610ba2578793610b73575b505061251c918284029184830484141715610b5f57612710809204815110610b005760a063ffffffff9101511690620e7ef0860260648702159360648802820414841715610b4b578190048210928315610b12575b505050610b005763ffffffff60647f487f8415ec2c66f8b4ec304901e2deebae2576ad0d17d59ed1ca3d163b148ad194606094604051948552602085015202166040820152a16001805580f35b604051633ca4cb0760e21b8152600490fd5b9091925062100590860290606487028204612904141715610b375704105f8080610ab3565b634e487b7160e01b5f52601160045260245ffd5b634e487b7160e01b88526011600452602488fd5b634e487b7160e01b87526011600452602487fd5b610b93929350803d10610b9b575b610b8b81836111fa565b810190611230565b905f80610a5e565b503d610b81565b6040513d89823e3d90fd5b610bb9909591956111e6565b935f6109d6565b6040513d88823e3d90fd5b8780fd5b634e487b7160e01b88526041600452602488fd5b634e487b7160e01b86526011600452602486fd5b90506020813d602011610c25575b81610c12602093836111fa565b81010312610c2157515f6107d0565b8580fd5b3d9150610c05565b634e487b7160e01b85526011600452602485fd5b604051633fe89cb960e11b8152600490fd5b60405160208101919091527f00000000000000000000000000000000000000000000000000000000000000006001600160a01b03166024820152604480820188905281526080810167ffffffffffffffff811182821017610bcf57610cc6939291610cc191604052826112f1565b6112f1565b5f8080610771565b909150610ceb57506001600160a01b0382163b15155b5f80610769565b600114610ce4565b634e487b7160e01b87526041600452602487fd5b604051630543a6e160e41b8152600490fd5b604051630a4f5a0760e01b8152600490fd5b604051631f2a200560e01b8152600490fd5b50831561063b565b50346101a85760403660031901126101a857610d5f611097565b5060206102ba600435611988565b50346101a857806003193601126101a857602060405161ffff7f0000000000000000000000000000000000000000000000000000000000000000168152f35b50346101a857806003193601126101a857602063ffffffff60045416604051908152f35b50346101a85760403660031901126101a857610dea611097565b50610e187f000000000000000000000000000000000000000000000000000000000000000060043514611165565b6040516303acbacf60e21b81523060048201527f000000000000000000000000000000000000000000000000000000000000000061ffff1660248201525f60448201526101209081816064816001600160a01b037f0000000000000000000000000000000000000000000000000000000000000000165afa918215610ec85760209392610eab575b505051604051908152f35b610ec19250803d10610b9b57610b8b81836111fa565b5f80610ea0565b6040513d85823e3d90fd5b50346101a857806003193601126101a8576002546040516001600160a01b039091168152602090f35b50346101a857806003193601126101a857602090604051908152f35b50346101a85760203660031901126101a857600435610f356110ee565b6101f48111610f785760407f0d3947c43063412ad16fda1a5eecef5ffc9e2dbb8f6ba1708f8d31062ba3e91291600654908060065582519182526020820152a180f35b60405162461bcd60e51b815260206004820152601160248201527008ccaca40e4c2e8ca40e8dede40d0d2ced607b1b6044820152606490fd5b50346101a85760203660031901126101a857600435610fce6110ee565b8015610c415760148111610d195760407fcfe013ced71c379420246c6e01c5e898ae031ebcf679c553a2ea18101e9ddf0191600554908060055582519182526020820152a180f35b50346101a85760203660031901126101a8576004356110336110ee565b8015801561108c575b61107a5760407fddd31550b26e9ef8ade466958be83ff8a014d9b4f36d546b61a6847a4530657591600354908060035582519182526020820152a180f35b60405163334ee9a160e01b8152600490fd5b506107d0811161103c565b602435906001600160a01b03821682036110ad57565b5f80fd5b600435906001600160a01b03821682036110ad57565b60809060031901126110ad5760043590602435906044359060643580151581036110ad5790565b5f546001600160a01b0316330361110157565b60405163118cdaa760e01b8152336004820152602490fd5b1561112057565b60405162461bcd60e51b815260206004820152601d60248201527f4f6e6c79206c6f6e6720706f736974696f6e7320737570706f727465640000006044820152606490fd5b1561116c57565b60405162461bcd60e51b815260206004820152600e60248201526d125b9d985b1a59081b585c9ad95d60921b6044820152606490fd5b81810292918115918404141715610b3757565b610120810190811067ffffffffffffffff8211176111d257604052565b634e487b7160e01b5f52604160045260245ffd5b67ffffffffffffffff81116111d257604052565b90601f8019910116810190811067ffffffffffffffff8211176111d257604052565b51906001600160c01b03821682036110ad57565b90816101209103126110ad5760405190611249826111b5565b805182526112596020820161121c565b602083015261126a6040820161121c565b604083015261127b6060820161121c565b606083015260808101516001600160a01b03811681036110ad57608083015260a081015163ffffffff811681036110ad5760a083015260c081015161ffff811681036110ad5760c083015260e081015160ff811681036110ad5760e0830152610100809101519081151582036110ad5782015290565b905f602091828151910182855af11561134b575f513d61134257506001600160a01b0381163b155b6113205750565b604051635274afe760e01b81526001600160a01b039091166004820152602490fd5b60011415611319565b6040513d5f823e3d90fd5b600260015414611367576002600155565b604051633ee5aeb560e01b8152600490fd5b61064b6113869293611119565b604080516303acbacf60e21b808252306004808401919091527f000000000000000000000000000000000000000000000000000000000000000061ffff811660248501525f604485018190526001600160a01b039690936101209290917f00000000000000000000000000000000000000000000000000000000000000008916908488606481855afa9788156116eb5787986116cc575b50875180156116bf5761143d60649163ffffffff60a08c015116906111a2565b0490818110611678575050612710965b5192897f00000000000000000000000000000000000000000000000000000000000000001660035490803b15611674578960a4898b80948f51968795869463f2f319cf60e01b865261ffff8d1690860152836024860152604485015282606485015260848401525af1801561166a5761164f575b5088519081523086820190815261ffff90931660208401525f60408401529184918391829081906060015b03915afa928315611645578593611626575b50506127108510159182611616575b50506116085760207f00000000000000000000000000000000000000000000000000000000000000009160248651809881936370a0823160e01b8352309083015285165afa9182156115fd57916115aa575b7fec57529334d17e7a08e3a28003d556458de39cc3eb43644dfdbf5b3522fb361e94508180611598575b505082519182526020820152a1565b6115a39133906116f5565b5f81611589565b90506020843d82116115f5575b816115c4602093836111fa565b810103126110ad577fec57529334d17e7a08e3a28003d556458de39cc3eb43644dfdbf5b3522fb361e93519061155f565b3d91506115b7565b8451903d90823e3d90fd5b835163023c20c360e11b8152fd5b600a919250519104105f8061150d565b61163d929350803d10610b9b57610b8b81836111fa565b905f806114fe565b87513d87823e3d90fd5b916114ec93919761166087946111e6565b97919350916114c1565b8a513d8a823e3d90fd5b8880fd5b612710908181029181830414901517156116ac57811561169957049661144d565b634e487b7160e01b885260128752602488fd5b634e487b7160e01b885260118752602488fd5b5050505050505050505050565b6116e4919850853d8711610b9b57610b8b81836111fa565b965f61141d565b89513d89823e3d90fd5b60405163a9059cbb60e01b60208201526001600160a01b0392909216602483015260448083019390935291815261173191610cc16064836111fa565b565b81810392915f138015828513169184121617610b3757565b611776907f000000000000000000000000000000000000000000000000000000000000000014611165565b6040516303acbacf60e21b8152306004808301919091527f000000000000000000000000000000000000000000000000000000000000000061ffff1660248301525f604483015290610120906001600160a01b039082816064817f000000000000000000000000000000000000000000000000000000000000000086165afa92831561134b575f93611969575b50508151156119625760208391600254166040519485809263fefe46f160e01b82525afa5f938161192f575b5061183b575050505f90565b60206064611855845163ffffffff60a087015116906111a2565b0492019261186e60018060c01b03918286511690611733565b845190949082161561192657600160ff1b9484810294905f8212878214166119135781860514901517156119005751169283156118ed5782145f198414166118da575005905f82136118bc57565b906118d7906127106118d0600654836111a2565b0490611733565b90565b601190634e487b7160e01b5f525260245ffd5b601282634e487b7160e01b5f525260245ffd5b601183634e487b7160e01b5f525260245ffd5b601185634e487b7160e01b5f525260245ffd5b50505050505f90565b90936020823d821161195a575b81611949602093836111fa565b810103126101a8575051925f61182f565b3d915061193c565b5050505f90565b611980929350803d10610b9b57610b8b81836111fa565b905f80611803565b6119b3907f000000000000000000000000000000000000000000000000000000000000000014611165565b6040516303acbacf60e21b81523060048201527f000000000000000000000000000000000000000000000000000000000000000061ffff1660248201525f60448201526101209081816064816001600160a01b037f0000000000000000000000000000000000000000000000000000000000000000165afa91821561134b575f92611a65575b50508051908115611a5f5760649163ffffffff60a0611a5b93015116906111a2565b0490565b50505f90565b611a7b9250803d10610b9b57610b8b81836111fa565b5f80611a3956fea26469706673582212209bd08a1b37a4432816de4ec296df09d7f2022704b24d20fd151090316be43fab64736f6c63430008140033","linkReferences":{}},"methodIdentifiers":{"MAX_LEVERAGE()":"9b45ec97","MAX_POSITION_SIZE()":"5ec1215f","POSITION_INDEX()":"2442ec19","PRECISION_2()":"55f2ebfb","SLIPPAGE_PRECISION()":"453943f0","builderFee()":"2957789c","builderFeeRecipient()":"c96a2e60","collateralToken()":"b2016bd4","decreasePosition(bytes32,uint256,uint256,bool)":"577270cd","emergencyWithdraw(address,uint256)":"95ccea67","estimatedFeeRateBPS()":"d6676421","gbpUsdPairIndex()":"2f739cc2","getPositionCollateral(bytes32,address)":"27f3a0d1","getPositionPnL(bytes32,address)":"cbfb4769","getPositionSize(bytes32,address)":"38b2e479","increasePosition(bytes32,uint256,uint256,bool)":"3df01956","marketIdentifier()":"8f1c66b2","ostiumTrading()":"f5548861","ostiumTradingStorage()":"96b21b8e","owner()":"8da5cb5b","priceOracle()":"2630c12f","renounceOwnership()":"715018a6","setBuilderFee(uint32)":"bdd66380","setBuilderFeeRecipient(address)":"4ce11d21","setEstimatedFeeRate(uint256)":"217fcbbb","setSlippageTolerance(uint256)":"117da1ee","setTargetLeverage(uint256)":"16c3e3b2","slippageTolerance()":"d03153aa","targetLeverage()":"d6c946ea","transferOwnership(address)":"f2fde38b"},"id":63}