{"abi":[{"type":"function","name":"aTokens","inputs":[{"name":"","type":"address","internalType":"address"}],"outputs":[{"name":"","type":"address","internalType":"address"}],"stateMutability":"view"},{"type":"function","name":"interestRate","inputs":[],"outputs":[{"name":"","type":"uint256","internalType":"uint256"}],"stateMutability":"view"},{"type":"function","name":"setAToken","inputs":[{"name":"asset","type":"address","internalType":"address"},{"name":"aToken","type":"address","internalType":"address"}],"outputs":[],"stateMutability":"nonpayable"},{"type":"function","name":"setInterestRate","inputs":[{"name":"newRate","type":"uint256","internalType":"uint256"}],"outputs":[],"stateMutability":"nonpayable"},{"type":"function","name":"suppliedAmounts","inputs":[{"name":"","type":"address","internalType":"address"},{"name":"","type":"address","internalType":"address"}],"outputs":[{"name":"","type":"uint256","internalType":"uint256"}],"stateMutability":"view"},{"type":"function","name":"supply","inputs":[{"name":"asset","type":"address","internalType":"address"},{"name":"amount","type":"uint256","internalType":"uint256"},{"name":"onBehalfOf","type":"address","internalType":"address"},{"name":"","type":"uint16","internalType":"uint16"}],"outputs":[],"stateMutability":"nonpayable"},{"type":"function","name":"withdraw","inputs":[{"name":"asset","type":"address","internalType":"address"},{"name":"amount","type":"uint256","internalType":"uint256"},{"name":"to","type":"address","internalType":"address"}],"outputs":[{"name":"","type":"uint256","internalType":"uint256"}],"stateMutability":"nonpayable"},{"type":"event","name":"Supply","inputs":[{"name":"asset","type":"address","indexed":true,"internalType":"address"},{"name":"amount","type":"uint256","indexed":false,"internalType":"uint256"},{"name":"onBehalfOf","type":"address","indexed":true,"internalType":"address"}],"anonymous":false},{"type":"event","name":"Withdraw","inputs":[{"name":"asset","type":"address","indexed":true,"internalType":"address"},{"name":"amount","type":"uint256","indexed":false,"internalType":"uint256"},{"name":"to","type":"address","indexed":true,"internalType":"address"}],"anonymous":false},{"type":"error","name":"SafeERC20FailedOperation","inputs":[{"name":"token","type":"address","internalType":"address"}]}],"bytecode":{"object":"0x6080806040523461001b576101f45f5561078c90816100208239f35b5f80fdfe6080604081815260049182361015610015575f80fd5b5f92833560e01c9182633e108ad914610592575081635f84f30214610579578163617ba037146103d257816369328dec14610126575080637c3a00fd1461010a5780638ae20f6d146100be5763a1e26f4b1461006f575f80fd5b346100ba57806003193601126100ba576100876105ca565b61008f6105fa565b6001600160a01b039182168452600160205291832080546001600160a01b0319169190921617905580f35b5080fd5b50346100ba57806003193601126100ba576020916100da6105ca565b826100e36105fa565b6001600160a01b03928316845260028652922091165f908152908352819020549051908152f35b50346100ba57816003193601126100ba57602091549051908152f35b8383346100ba5760603660031901126100ba576101416105ca565b6024359061014d6105e4565b94610159831515610610565b60018060a01b03809216918286526020966001885261017e828789205416151561064a565b838752600188528186882054168651956370a0823160e01b875233858801528987602481855afa9687156103c8578997610395575b505f19810361038f5750855b861161035557803b15610351578651632770a7eb60e21b815233858201908152602081018890529091899183919082908490829060400103925af180156103475790889161032f575b505480860290868204148615171561031c5790612710899392049761022d89886106d0565b98806102a3575b5050865163a9059cbb60e01b848201526001600160a01b038216602482015260448082018a905281527f56c54ba9bd38d8fd62012e42c7ee564519b09763c426d331b3661b537ead19b294506102959061028f6064826106ae565b866106f1565b86519586521693a351908152f35b9193509193853b156103185787516340c10f1960e01b8152309181019182526020820192909252829082908190604001038183895af1801561030e5790899392916102f1575b849291610234565b819293506102fe90610686565b61030b57908188926102e9565b80fd5b87513d84823e3d90fd5b8280fd5b634e487b7160e01b885260118452602488fd5b61033890610686565b610343578689610208565b8680fd5b87513d8a823e3d90fd5b8780fd5b865162461bcd60e51b81528085018a90526014602482015273496e73756666696369656e742061546f6b656e7360601b6044820152606490fd5b956101bf565b9096508981813d83116103c1575b6103ad81836106ae565b810103126103bd5751958a6101b3565b8880fd5b503d6103a3565b88513d8b823e3d90fd5b8383346100ba5760803660031901126100ba576103ed6105ca565b602435936103f96105e4565b9460643561ffff81160361057557610412811515610610565b60018060a01b038093169283865260209260018452610437828789205416151561064a565b85516323b872dd60e01b858201523360248201523060448201526064808201859052815260a0810167ffffffffffffffff81118282101761056257875261047e90866106f1565b8487526001845281868820541690813b156103515786516340c10f1960e01b81526001600160a01b038a169181019182526020820185905291889183919082908490829060400103925af1801561055857610523575b507f9f6f6c014778c64f728f8e28d63949f94e5cc85757e63af6c5e536558f306f0793949596169485875260028352808720855f528352805f206105198382546106d0565b905551908152a380f35b956105507f9f6f6c014778c64f728f8e28d63949f94e5cc85757e63af6c5e536558f306f07959697610686565b9594936104d4565b86513d89823e3d90fd5b634e487b7160e01b895260418352602489fd5b8480fd5b8390346100ba5760203660031901126100ba5735815580f35b84908434610318576020366003190112610318576020926001600160a01b039190826105bc6105ca565b168152600185522054168152f35b600435906001600160a01b03821682036105e057565b5f80fd5b604435906001600160a01b03821682036105e057565b602435906001600160a01b03821682036105e057565b1561061757565b60405162461bcd60e51b815260206004820152600b60248201526a16995c9bc8185b5bdd5b9d60aa1b6044820152606490fd5b1561065157565b60405162461bcd60e51b815260206004820152600d60248201526c139bc818551bdad95b881cd95d609a1b6044820152606490fd5b67ffffffffffffffff811161069a57604052565b634e487b7160e01b5f52604160045260245ffd5b90601f8019910116810190811067ffffffffffffffff82111761069a57604052565b919082018092116106dd57565b634e487b7160e01b5f52601160045260245ffd5b905f602091828151910182855af11561074b575f513d61074257506001600160a01b0381163b155b6107205750565b604051635274afe760e01b81526001600160a01b039091166004820152602490fd5b60011415610719565b6040513d5f823e3d90fdfea2646970667358221220e1af21f0fe17fe78c76283b53dcf58c5d195b8583fc6848240af4fab784eccf964736f6c63430008140033","linkReferences":{}},"methodIdentifiers":{"aTokens(address)":"3e108ad9","interestRate()":"7c3a00fd","setAToken(address,address)":"a1e26f4b","setInterestRate(uint256)":"5f84f302","suppliedAmounts(address,address)":"8ae20f6d","supply(address,uint256,address,uint16)":"617ba037","withdraw(address,uint256,address)":"69328dec"},"id":56}