{"abi":[{"type":"constructor","inputs":[{"name":"_gbpbToken","type":"address","internalType":"address"},{"name":"_owner","type":"address","internalType":"address"}],"stateMutability":"nonpayable"},{"type":"function","name":"MAX_PERFORMANCE_FEE_BPS","inputs":[],"outputs":[{"name":"","type":"uint256","internalType":"uint256"}],"stateMutability":"view"},{"type":"function","name":"acceptOwnership","inputs":[],"outputs":[],"stateMutability":"nonpayable"},{"type":"function","name":"allowance","inputs":[{"name":"owner","type":"address","internalType":"address"},{"name":"spender","type":"address","internalType":"address"}],"outputs":[{"name":"","type":"uint256","internalType":"uint256"}],"stateMutability":"view"},{"type":"function","name":"approve","inputs":[{"name":"spender","type":"address","internalType":"address"},{"name":"value","type":"uint256","internalType":"uint256"}],"outputs":[{"name":"","type":"bool","internalType":"bool"}],"stateMutability":"nonpayable"},{"type":"function","name":"asset","inputs":[],"outputs":[{"name":"","type":"address","internalType":"address"}],"stateMutability":"view"},{"type":"function","name":"balanceOf","inputs":[{"name":"account","type":"address","internalType":"address"}],"outputs":[{"name":"","type":"uint256","internalType":"uint256"}],"stateMutability":"view"},{"type":"function","name":"convertToAssets","inputs":[{"name":"shares","type":"uint256","internalType":"uint256"}],"outputs":[{"name":"","type":"uint256","internalType":"uint256"}],"stateMutability":"view"},{"type":"function","name":"convertToShares","inputs":[{"name":"assets","type":"uint256","internalType":"uint256"}],"outputs":[{"name":"","type":"uint256","internalType":"uint256"}],"stateMutability":"view"},{"type":"function","name":"cooldownDuration","inputs":[],"outputs":[{"name":"","type":"uint24","internalType":"uint24"}],"stateMutability":"view"},{"type":"function","name":"cooldownWithdraw","inputs":[],"outputs":[],"stateMutability":"nonpayable"},{"type":"function","name":"cooldowns","inputs":[{"name":"","type":"address","internalType":"address"}],"outputs":[{"name":"cooldownEnd","type":"uint104","internalType":"uint104"},{"name":"underlyingAmount","type":"uint152","internalType":"uint152"}],"stateMutability":"view"},{"type":"function","name":"decimals","inputs":[],"outputs":[{"name":"","type":"uint8","internalType":"uint8"}],"stateMutability":"view"},{"type":"function","name":"deposit","inputs":[{"name":"assets","type":"uint256","internalType":"uint256"},{"name":"receiver","type":"address","internalType":"address"}],"outputs":[{"name":"","type":"uint256","internalType":"uint256"}],"stateMutability":"nonpayable"},{"type":"function","name":"emergencyWithdraw","inputs":[{"name":"token","type":"address","internalType":"address"},{"name":"amount","type":"uint256","internalType":"uint256"}],"outputs":[],"stateMutability":"nonpayable"},{"type":"function","name":"feeCollector","inputs":[],"outputs":[{"name":"","type":"address","internalType":"address"}],"stateMutability":"view"},{"type":"function","name":"harvest","inputs":[],"outputs":[{"name":"feeShares","type":"uint256","internalType":"uint256"}],"stateMutability":"nonpayable"},{"type":"function","name":"highWaterMark","inputs":[],"outputs":[{"name":"","type":"uint256","internalType":"uint256"}],"stateMutability":"view"},{"type":"function","name":"lastHarvestTimestamp","inputs":[],"outputs":[{"name":"","type":"uint256","internalType":"uint256"}],"stateMutability":"view"},{"type":"function","name":"lastUnstakeTime","inputs":[{"name":"","type":"address","internalType":"address"}],"outputs":[{"name":"","type":"uint256","internalType":"uint256"}],"stateMutability":"view"},{"type":"function","name":"maxDeposit","inputs":[{"name":"","type":"address","internalType":"address"}],"outputs":[{"name":"","type":"uint256","internalType":"uint256"}],"stateMutability":"view"},{"type":"function","name":"maxMint","inputs":[{"name":"","type":"address","internalType":"address"}],"outputs":[{"name":"","type":"uint256","internalType":"uint256"}],"stateMutability":"view"},{"type":"function","name":"maxRedeem","inputs":[{"name":"","type":"address","internalType":"address"}],"outputs":[{"name":"","type":"uint256","internalType":"uint256"}],"stateMutability":"pure"},{"type":"function","name":"maxWithdraw","inputs":[{"name":"","type":"address","internalType":"address"}],"outputs":[{"name":"","type":"uint256","internalType":"uint256"}],"stateMutability":"pure"},{"type":"function","name":"mint","inputs":[{"name":"shares","type":"uint256","internalType":"uint256"},{"name":"receiver","type":"address","internalType":"address"}],"outputs":[{"name":"","type":"uint256","internalType":"uint256"}],"stateMutability":"nonpayable"},{"type":"function","name":"minter","inputs":[],"outputs":[{"name":"","type":"address","internalType":"address"}],"stateMutability":"view"},{"type":"function","name":"name","inputs":[],"outputs":[{"name":"","type":"string","internalType":"string"}],"stateMutability":"view"},{"type":"function","name":"owner","inputs":[],"outputs":[{"name":"","type":"address","internalType":"address"}],"stateMutability":"view"},{"type":"function","name":"pendingOwner","inputs":[],"outputs":[{"name":"","type":"address","internalType":"address"}],"stateMutability":"view"},{"type":"function","name":"performanceFeeBPS","inputs":[],"outputs":[{"name":"","type":"uint256","internalType":"uint256"}],"stateMutability":"view"},{"type":"function","name":"previewDeposit","inputs":[{"name":"assets","type":"uint256","internalType":"uint256"}],"outputs":[{"name":"","type":"uint256","internalType":"uint256"}],"stateMutability":"view"},{"type":"function","name":"previewMint","inputs":[{"name":"shares","type":"uint256","internalType":"uint256"}],"outputs":[{"name":"","type":"uint256","internalType":"uint256"}],"stateMutability":"view"},{"type":"function","name":"previewRedeem","inputs":[{"name":"shares","type":"uint256","internalType":"uint256"}],"outputs":[{"name":"","type":"uint256","internalType":"uint256"}],"stateMutability":"view"},{"type":"function","name":"previewWithdraw","inputs":[{"name":"assets","type":"uint256","internalType":"uint256"}],"outputs":[{"name":"","type":"uint256","internalType":"uint256"}],"stateMutability":"view"},{"type":"function","name":"pricePerShare","inputs":[],"outputs":[{"name":"","type":"uint256","internalType":"uint256"}],"stateMutability":"view"},{"type":"function","name":"redeem","inputs":[{"name":"","type":"uint256","internalType":"uint256"},{"name":"","type":"address","internalType":"address"},{"name":"","type":"address","internalType":"address"}],"outputs":[{"name":"","type":"uint256","internalType":"uint256"}],"stateMutability":"pure"},{"type":"function","name":"renounceOwnership","inputs":[],"outputs":[],"stateMutability":"nonpayable"},{"type":"function","name":"setCooldownDuration","inputs":[{"name":"newDuration","type":"uint24","internalType":"uint24"}],"outputs":[],"stateMutability":"nonpayable"},{"type":"function","name":"setFeeCollector","inputs":[{"name":"_feeCollector","type":"address","internalType":"address"}],"outputs":[],"stateMutability":"nonpayable"},{"type":"function","name":"setMinter","inputs":[{"name":"_minter","type":"address","internalType":"address"}],"outputs":[],"stateMutability":"nonpayable"},{"type":"function","name":"setPerformanceFee","inputs":[{"name":"newFeeBPS","type":"uint256","internalType":"uint256"}],"outputs":[],"stateMutability":"nonpayable"},{"type":"function","name":"symbol","inputs":[],"outputs":[{"name":"","type":"string","internalType":"string"}],"stateMutability":"view"},{"type":"function","name":"totalAssets","inputs":[],"outputs":[{"name":"","type":"uint256","internalType":"uint256"}],"stateMutability":"view"},{"type":"function","name":"totalSupply","inputs":[],"outputs":[{"name":"","type":"uint256","internalType":"uint256"}],"stateMutability":"view"},{"type":"function","name":"transfer","inputs":[{"name":"to","type":"address","internalType":"address"},{"name":"value","type":"uint256","internalType":"uint256"}],"outputs":[{"name":"","type":"bool","internalType":"bool"}],"stateMutability":"nonpayable"},{"type":"function","name":"transferFrom","inputs":[{"name":"from","type":"address","internalType":"address"},{"name":"to","type":"address","internalType":"address"},{"name":"value","type":"uint256","internalType":"uint256"}],"outputs":[{"name":"","type":"bool","internalType":"bool"}],"stateMutability":"nonpayable"},{"type":"function","name":"transferOwnership","inputs":[{"name":"newOwner","type":"address","internalType":"address"}],"outputs":[],"stateMutability":"nonpayable"},{"type":"function","name":"unstake","inputs":[{"name":"shares","type":"uint256","internalType":"uint256"}],"outputs":[],"stateMutability":"nonpayable"},{"type":"function","name":"withdraw","inputs":[{"name":"","type":"uint256","internalType":"uint256"},{"name":"","type":"address","internalType":"address"},{"name":"","type":"address","internalType":"address"}],"outputs":[{"name":"","type":"uint256","internalType":"uint256"}],"stateMutability":"pure"},{"type":"event","name":"Approval","inputs":[{"name":"owner","type":"address","indexed":true,"internalType":"address"},{"name":"spender","type":"address","indexed":true,"internalType":"address"},{"name":"value","type":"uint256","indexed":false,"internalType":"uint256"}],"anonymous":false},{"type":"event","name":"CooldownDurationUpdated","inputs":[{"name":"oldDuration","type":"uint256","indexed":false,"internalType":"uint256"},{"name":"newDuration","type":"uint256","indexed":false,"internalType":"uint256"}],"anonymous":false},{"type":"event","name":"CooldownStarted","inputs":[{"name":"user","type":"address","indexed":true,"internalType":"address"},{"name":"amount","type":"uint256","indexed":false,"internalType":"uint256"},{"name":"cooldownEnd","type":"uint256","indexed":false,"internalType":"uint256"}],"anonymous":false},{"type":"event","name":"CooldownWithdraw","inputs":[{"name":"user","type":"address","indexed":true,"internalType":"address"},{"name":"amount","type":"uint256","indexed":false,"internalType":"uint256"}],"anonymous":false},{"type":"event","name":"Deposit","inputs":[{"name":"sender","type":"address","indexed":true,"internalType":"address"},{"name":"owner","type":"address","indexed":true,"internalType":"address"},{"name":"assets","type":"uint256","indexed":false,"internalType":"uint256"},{"name":"shares","type":"uint256","indexed":false,"internalType":"uint256"}],"anonymous":false},{"type":"event","name":"FeeCollectorUpdated","inputs":[{"name":"oldCollector","type":"address","indexed":true,"internalType":"address"},{"name":"newCollector","type":"address","indexed":true,"internalType":"address"}],"anonymous":false},{"type":"event","name":"FeesHarvested","inputs":[{"name":"performanceFee","type":"uint256","indexed":false,"internalType":"uint256"},{"name":"feeShares","type":"uint256","indexed":false,"internalType":"uint256"},{"name":"feeCollector","type":"address","indexed":true,"internalType":"address"}],"anonymous":false},{"type":"event","name":"HighWaterMarkUpdated","inputs":[{"name":"oldMark","type":"uint256","indexed":false,"internalType":"uint256"},{"name":"newMark","type":"uint256","indexed":false,"internalType":"uint256"}],"anonymous":false},{"type":"event","name":"MinterUpdated","inputs":[{"name":"oldMinter","type":"address","indexed":true,"internalType":"address"},{"name":"newMinter","type":"address","indexed":true,"internalType":"address"}],"anonymous":false},{"type":"event","name":"OwnershipTransferStarted","inputs":[{"name":"previousOwner","type":"address","indexed":true,"internalType":"address"},{"name":"newOwner","type":"address","indexed":true,"internalType":"address"}],"anonymous":false},{"type":"event","name":"OwnershipTransferred","inputs":[{"name":"previousOwner","type":"address","indexed":true,"internalType":"address"},{"name":"newOwner","type":"address","indexed":true,"internalType":"address"}],"anonymous":false},{"type":"event","name":"PerformanceFeeUpdated","inputs":[{"name":"oldFeeBPS","type":"uint256","indexed":false,"internalType":"uint256"},{"name":"newFeeBPS","type":"uint256","indexed":false,"internalType":"uint256"}],"anonymous":false},{"type":"event","name":"Transfer","inputs":[{"name":"from","type":"address","indexed":true,"internalType":"address"},{"name":"to","type":"address","indexed":true,"internalType":"address"},{"name":"value","type":"uint256","indexed":false,"internalType":"uint256"}],"anonymous":false},{"type":"event","name":"Withdraw","inputs":[{"name":"sender","type":"address","indexed":true,"internalType":"address"},{"name":"receiver","type":"address","indexed":true,"internalType":"address"},{"name":"owner","type":"address","indexed":true,"internalType":"address"},{"name":"assets","type":"uint256","indexed":false,"internalType":"uint256"},{"name":"shares","type":"uint256","indexed":false,"internalType":"uint256"}],"anonymous":false},{"type":"error","name":"CooldownActive","inputs":[]},{"type":"error","name":"ERC20InsufficientAllowance","inputs":[{"name":"spender","type":"address","internalType":"address"},{"name":"allowance","type":"uint256","internalType":"uint256"},{"name":"needed","type":"uint256","internalType":"uint256"}]},{"type":"error","name":"ERC20InsufficientBalance","inputs":[{"name":"sender","type":"address","internalType":"address"},{"name":"balance","type":"uint256","internalType":"uint256"},{"name":"needed","type":"uint256","internalType":"uint256"}]},{"type":"error","name":"ERC20InvalidApprover","inputs":[{"name":"approver","type":"address","internalType":"address"}]},{"type":"error","name":"ERC20InvalidReceiver","inputs":[{"name":"receiver","type":"address","internalType":"address"}]},{"type":"error","name":"ERC20InvalidSender","inputs":[{"name":"sender","type":"address","internalType":"address"}]},{"type":"error","name":"ERC20InvalidSpender","inputs":[{"name":"spender","type":"address","internalType":"address"}]},{"type":"error","name":"ERC4626ExceededMaxDeposit","inputs":[{"name":"receiver","type":"address","internalType":"address"},{"name":"assets","type":"uint256","internalType":"uint256"},{"name":"max","type":"uint256","internalType":"uint256"}]},{"type":"error","name":"ERC4626ExceededMaxMint","inputs":[{"name":"receiver","type":"address","internalType":"address"},{"name":"shares","type":"uint256","internalType":"uint256"},{"name":"max","type":"uint256","internalType":"uint256"}]},{"type":"error","name":"ERC4626ExceededMaxRedeem","inputs":[{"name":"owner","type":"address","internalType":"address"},{"name":"shares","type":"uint256","internalType":"uint256"},{"name":"max","type":"uint256","internalType":"uint256"}]},{"type":"error","name":"ERC4626ExceededMaxWithdraw","inputs":[{"name":"owner","type":"address","internalType":"address"},{"name":"assets","type":"uint256","internalType":"uint256"},{"name":"max","type":"uint256","internalType":"uint256"}]},{"type":"error","name":"FeeTooHigh","inputs":[]},{"type":"error","name":"NoCooldownInProgress","inputs":[]},{"type":"error","name":"OnlyMinter","inputs":[]},{"type":"error","name":"OnlyMinterOrCollector","inputs":[]},{"type":"error","name":"OwnableInvalidOwner","inputs":[{"name":"owner","type":"address","internalType":"address"}]},{"type":"error","name":"OwnableUnauthorizedAccount","inputs":[{"name":"account","type":"address","internalType":"address"}]},{"type":"error","name":"ReentrancyGuardReentrantCall","inputs":[]},{"type":"error","name":"SafeERC20FailedOperation","inputs":[{"name":"token","type":"address","internalType":"address"}]},{"type":"error","name":"ZeroAddress","inputs":[]}],"bytecode":{"object":"0x60c060409080825234620004b3578181620020e18038038091620000248285620004d3565b833981010312620004b3576200003a81620004f7565b906200004a6020809201620004f7565b83516001600160a01b03938416906200006381620004b7565b600b81526a29ba30b5b2b21023a1283160a91b848201528551946200008886620004b7565b60058087526439a3a1283160d91b8688015282519094906001600160401b0390818111620003b9576003908154906001968783811c93168015620004a8575b8b841014620004945781908b601f948581116200043e575b50508b90848311600114620003d9575f92620003cd575b50505f1982851b1c191690871b1782555b8951928311620003b9576004998a548781811c91168015620003ae575b8b8210146200039b579081838897969594931162000342575b508a918411600114620002d6575f92919084620002ca575b505082871b925f19911b1c19161788555b62000171856200050c565b9015620002c1575b60a0528460805216908115620002ab57600680546001600160a01b031990811690915585549081168317909555875194167f8be0079c531659141344cd1fd0a4f28419497f9722a3daafe3b4186f6b6457e05f80a3600755156200029d57506107d0600a55670de0b6b3a7640000600b5542600c556201518062ffffff19600d541617600d5560025464e8d4a51000928382018092116200028a57505f917fddf252ad1be2c89b69c2b068fc378daa952ba7f163c4a11628f55a4df523b3ef9160025561dead938484528382528584208181540190558551908152a351611af99081620005e88239608051818181610a1501528181610a9f0152818161157801526117e2015260a05181610b410152f35b601190634e487b7160e01b5f525260245ffd5b63d92e233d60e01b81529050fd5b8751631e4fbdf760e01b81525f81890152602490fd5b50601262000179565b015191505f8062000155565b9091879392601f198416928d5f528c5f20938d5f905b8282106200032757505085116200030d575b50505050811b01885562000166565b01519060f8845f19921b161c191690555f808080620002fe565b8484015187558b9a508c989096019593840193018e620002ec565b909192939495508b5f528a5f20838087018c1c8201928d881062000391575b918a918a99989796959493018d1c01915b828110620003825750506200013d565b5f81558998508a910162000372565b9250819262000361565b60228c634e487b7160e01b5f525260245ffd5b90607f169062000124565b634e487b7160e01b5f52604160045260245ffd5b015190505f80620000f6565b5f8681528d81208b9550929190601f198516908f5b8282106200042657505084116200040e575b505050811b01825562000107565b01515f1983871b60f8161c191690555f808062000400565b8385015186558d979095019493840193018f620003ee565b90919250855f5284825f20918d828701901c83019386106200048a575b918d8c928796959401901c01915b8281106200047b57508d9150620000df565b5f81558594508b910162000469565b925081926200045b565b634e487b7160e01b5f52602260045260245ffd5b92607f1692620000c7565b5f80fd5b604081019081106001600160401b03821117620003b957604052565b601f909101601f19168101906001600160401b03821190821017620003b957604052565b51906001600160a01b0382168203620004b357565b906040516020908181019063313ce56760e01b8252600481526200053081620004b7565b515f9485928392916001600160a01b03165afa3d15620005de573d906001600160401b038211620005ca576040519162000574601f8201601f1916850184620004d3565b82523d858484013e5b80620005be575b62000590575b50508190565b8181805181010312620005ba57015160ff811115620005b057806200058a565b6001925060ff1690565b8380fd5b50818151101562000584565b634e487b7160e01b85526041600452602485fd5b6060906200057d56fe60806040818152600480361015610014575f80fd5b5f92833560e01c90816301320fe2146111345750806301e1d1141461111757806306fdde03146110235780630754617214610ffa57806307a2d13a1461095e578063095ea7b314610f515780630a28a47714610ee757806318160ddd14610ec85780631e8410da14610ea95780632257a73814610e8a57806323b872dd14610d985780632e17de7814610b87578063313ce56714610b2a578063331e03a814610af25780633526931514610ace57806338d52e0f14610a8a578063402d267d1461049c5780634394155e146109945780634641257d146109635780634cdad5061461095e5780636e553f651461092a578063708891651461090d57806370897b231461089f57806370a0823114610868578063715018a61461080157806379ba5097146107795780638da5cb5b1461075057806394bf804d1461071657806395ccea67146106db57806395d89b41146105d757806399530b06146105ba578063a42dce8014610546578063a9059cbb14610515578063ac324166146104f6578063b3d7f6b9146104cf578063b460af94146104ca578063ba087652146104ca578063c415b95c146104a1578063c63d75b61461049c578063c6e6f59214610325578063ce23eb3c146103a5578063ce96cb77146103a0578063d905777e146103a0578063dd62ed3e14610357578063e30c39781461032a578063ef8b30f714610325578063f2fde38b146102b45763fca3b5aa14610230575f80fd5b346102b05760203660031901126102b05761024961117a565b906102526112fe565b6001600160a01b039182169283156102a3575050600854826001600160601b0360a01b821617600855167f1cf2de25c5bf439ac0287061c3a0fa69b3b02867d0ccfd2ded34e42577050b738380a380f35b5163d92e233d60e01b8152fd5b8280fd5b8334610322576020366003190112610322576102ce61117a565b6102d66112fe565b600680546001600160a01b0319166001600160a01b039283169081179091556005549091167f38d16b8cac22d99fc7c124b9cd0de2d3fa1faef420bfe791d8c362d765e227008380a380f35b80fd5b6112bc565b50503461035357816003193601126103535760065490516001600160a01b039091168152602090f35b5080fd5b5050346103535780600319360112610353578060209261037561117a565b61037d611194565b6001600160a01b0391821683526001865283832091168252845220549051908152f35b6112da565b509190346103535760203660031901126103535782359262ffffff90818516809503610498576103d36112fe565b62278d00851161046157610e10851061042957507f8f6ceadd6e9845ce194f7cd50e5a1ef4aec5b40c31652db44ea043bbbf27b92b9293600d54918162ffffff19841617600d558351921682526020820152a180f35b606490602084519162461bcd60e51b83528201526012602482015271111d5c985d1a5bdb881d1bdbc81cda1bdc9d60721b6044820152fd5b606490602084519162461bcd60e51b835282015260116024820152704475726174696f6e20746f6f206c6f6e6760781b6044820152fd5b8380fd5b611217565b50503461035357816003193601126103535760095490516001600160a01b039091168152602090f35b61123c565b50913461032257602036600319011261032257506104ef602092356114d1565b9051908152f35b505034610353578160031936011261035357602090600a549051908152f35b50503461035357806003193601126103535760209061053f61053561117a565b602435903361137c565b5160018152f35b50346102b05760203660031901126102b05761056061117a565b906105696112fe565b6001600160a01b039182169283156102a3575050600954826001600160601b0360a01b821617600955167f5d16ad41baeb009cd23eb8f6c7cde5c2e0cd5acf4a33926ab488875c37c37f388380a380f35b5050346103535781600319360112610353576020906104ef611a2f565b50919034610353578160031936011261035357805191809380549160019083821c928285169485156106d1575b60209586861081146106be5785895290811561069a5750600114610642575b61063e8787610634828c038361135a565b51918291826111aa565b0390f35b81529295507f8a35acfbc15ff81a39ae7d344fd709f28e8600b4aa8c65c6b64bfe7fe36bd19b5b828410610687575050508261063e9461063492820101945f80610623565b8054868501880152928601928101610669565b60ff19168887015250505050151560051b83010192506106348261063e5f80610623565b634e487b7160e01b845260228352602484fd5b93607f1693610604565b50503461035357366003190112610322576107136106f761117a565b6106ff6112fe565b6024359033906001600160a01b0316611a71565b80f35b50346102b057816003193601126102b05760209250359061074a610738611194565b92610742816114d1565b8094336114fc565b51908152f35b50503461035357816003193601126103535760055490516001600160a01b039091168152602090f35b5090346102b057826003193601126102b057600654916001600160a01b039133838516036107ea5750506001600160601b0360a01b8092166006556005549133908316176005553391167f8be0079c531659141344cd1fd0a4f28419497f9722a3daafe3b4186f6b6457e08380a380f35b60249250519063118cdaa760e01b82523390820152fd5b833461032257806003193601126103225761081a6112fe565b600680546001600160a01b031990811690915560058054918216905581906001600160a01b03167f8be0079c531659141344cd1fd0a4f28419497f9722a3daafe3b4186f6b6457e08280a380f35b5050346103535760203660031901126103535760209181906001600160a01b0361089061117a565b16815280845220549051908152f35b50346102b05760203660031901126102b0578035906108bc6112fe565b61271082116108ff5750907f607b1c943753982194530bf7133a5972ea2626e028005410efa54ab20035caf891600a549080600a5582519182526020820152a180f35b825163cd4e616760e01b8152fd5b505034610353578160031936011261035357602090516127108152f35b50346102b057816003193601126102b05760209250359061074a61094c611194565b61095584611478565b938491336114fc565b6111f1565b505034610353578160031936011261035357602090610980611a0c565b61098861184b565b90600160075551908152f35b50346102b057826003193601126102b0576109ad611a0c565b338352600e602052818320908251916109c58361132a565b546001600160681b0390818116845260681c92602081019380855215610a7a5751164210610a6c57506001600160981b0390511690338352600e6020528281812055610a3a823360018060a01b037f000000000000000000000000000000000000000000000000000000000000000016611a71565b519081527f7f172f3f317f84ec8ad14ec2703230fac2095ccd2c8257e6428c3de426ac15af60203392a2600160075580f35b825163aa9a98df60e01b8152fd5b845163a0fa904d60e01b81528390fd5b505034610353578160031936011261035357517f00000000000000000000000000000000000000000000000000000000000000006001600160a01b03168152602090f35b50503461035357816003193601126103535760209062ffffff600d54169051908152f35b5050346103535760203660031901126103535760209181906001600160a01b03610b1a61117a565b168152600f845220549051908152f35b5091903461035357816003193601126103535760ff7f0000000000000000000000000000000000000000000000000000000000000000169160ff8311610b74576020838351908152f35b634e487b7160e01b815260118452602490fd5b5090346102b057602080600319360112610498578235610ba5611a0c565b8015610d6857338552848252808386205410610d2f57338552600f82528285205490610bda62ffffff9283600d541690611457565b4210610d1f57610be9816114a6565b943315610d08573387528684528487205490828210610cdd57509186827fa4b3d92c67ba96e840c4888c41c81bb378420dfa35fbdcec3c0581372fb06068969593610c80953384528386520386832055806002540360025585519081527fddf252ad1be2c89b69c2b068fc378daa952ba7f163c4a11628f55a4df523b3ef843392a36001600160681b03928391600d541642611457565b1691835190610c8e8261132a565b838252828201906001600160981b0388168252338952600e8452858920925116906001600160681b0319905160681b16179055600f8152428387205582519485528401523392a2600160075580f35b855163391434e360e21b81523391810191825260208201929092526040810183905281906060010390fd5b8451634b637e8f60e11b8152908101879052602490fd5b5050505163aa9a98df60e01b8152fd5b50905162461bcd60e51b8152918201526014602482015273496e73756666696369656e742062616c616e636560601b6044820152606490fd5b50905162461bcd60e51b815291820152600b60248201526a5a65726f2073686172657360a81b6044820152606490fd5b50823461032257606036600319011261032257610db361117a565b610dbb611194565b916044359360018060a01b038316808352600160205286832033845260205286832054915f198310610df6575b60208861053f89898961137c565b868310610e5e578115610e47573315610e305750825260016020908152868320338452815291869020908590039055829061053f87610de8565b8751634a1406b160e11b8152908101849052602490fd5b875163e602df0560e01b8152908101849052602490fd5b8751637dc7a0d960e11b8152339181019182526020820193909352604081018790528291506060010390fd5b505034610353578160031936011261035357602090600c549051908152f35b505034610353578160031936011261035357602090600b549051908152f35b5050346103535781600319360112610353576020906002549051908152f35b5091346103225760203660031901126103225760025460018101809111610f3e57610f106117c7565b9160018301809311610f2b5750906104ef9160209435611677565b634e487b7160e01b815260118552602490fd5b634e487b7160e01b825260118452602482fd5b50346102b057816003193601126102b057610f6a61117a565b602435903315610fe3576001600160a01b0316918215610fcc57508083602095338152600187528181208582528752205582519081527f8c5be1e5ebec7d5bd14f71427d1e84f3dd0314c0f7b2291e5b200ac8c7c3b925843392a35160018152f35b8351634a1406b160e11b8152908101859052602490fd5b835163e602df0560e01b8152808401869052602490fd5b50503461035357816003193601126103535760085490516001600160a01b039091168152602090f35b5090346102b057826003193601126102b057805191836003549060019082821c92828116801561110d575b60209586861082146110fa57508488529081156110d8575060011461107f575b61063e8686610634828b038361135a565b929550600383527fc2575a0e9e593c00f959f8c92f12db2869c3395a3b0502d05e2516446f71f85b5b8284106110c5575050508261063e9461063492820101945f61106e565b80548685018801529286019281016110a8565b60ff191687860152505050151560051b83010192506106348261063e5f61106e565b634e487b7160e01b845260229052602483fd5b93607f169361104e565b5050346103535781600319360112610353576020906104ef6117c7565b839085346103225760203660031901126103225782906001600160a01b0361115a61117a565b168152600e60205220546001600160681b038116825260681c6020820152f35b600435906001600160a01b038216820361119057565b5f80fd5b602435906001600160a01b038216820361119057565b602080825282518183018190529093925f5b8281106111dd57505060409293505f838284010152601f8019910116010190565b8181018601518482016040015285016111bc565b3461119057602036600319011261119057602061120f6004356114a6565b604051908152f35b346111905760203660031901126111905761123061117a565b5060206040515f198152f35b34611190576060366003190112611190576001600160a01b036024358181160361119057604435908116036111905760405162461bcd60e51b8152602060048201526024808201527f55736520756e7374616b65282920616e6420636f6f6c646f776e5769746864726044820152636177282960e01b6064820152608490fd5b3461119057602036600319011261119057602061120f600435611478565b34611190576020366003190112611190576112f361117a565b5060206040515f8152f35b6005546001600160a01b0316330361131257565b60405163118cdaa760e01b8152336004820152602490fd5b6040810190811067ffffffffffffffff82111761134657604052565b634e487b7160e01b5f52604160045260245ffd5b90601f8019910116810190811067ffffffffffffffff82111761134657604052565b916001600160a01b0380841692831561143f5716928315611427575f90838252816020526040822054908382106113f5575091604082827fddf252ad1be2c89b69c2b068fc378daa952ba7f163c4a11628f55a4df523b3ef958760209652828652038282205586815220818154019055604051908152a3565b60405163391434e360e21b81526001600160a01b03919091166004820152602481019190915260448101839052606490fd5b60405163ec442f0560e01b81525f6004820152602490fd5b604051634b637e8f60e11b81525f6004820152602490fd5b9190820180921161146457565b634e487b7160e01b5f52601160045260245ffd5b600254600181018091116114645761148e6117c7565b9060018201809211611464576114a39261172f565b90565b6114ae6117c7565b60018101809111611464576002549060018201809211611464576114a39261172f565b6114d96117c7565b60018101809111611464576002549060018201809211611464576114a392611677565b6040516323b872dd60e01b60208201526001600160a01b039182166024820181905230604483015260648083018690528252939460a08201939192919067ffffffffffffffff8511848610176113465761159c6040947fdcbc1c05240f31ff3ad067ef1ee35ce4997762752e3a095284754544f4c709d79686527f0000000000000000000000000000000000000000000000000000000000000000611612565b6115a681836115b5565b835196875260208701521693a3565b6001600160a01b0316908115611427577fddf252ad1be2c89b69c2b068fc378daa952ba7f163c4a11628f55a4df523b3ef6020826115f65f94600254611457565b60025584845283825260408420818154019055604051908152a3565b905f602091828151910182855af11561166c575f513d61166357506001600160a01b0381163b155b6116415750565b604051635274afe760e01b81526001600160a01b039091166004820152602490fd5b6001141561163a565b6040513d5f823e3d90fd5b9161168381838561172f565b918115611697576114a39309151590611457565b634e487b7160e01b5f52601260045260245ffd5b8115611697570490565b90808202905f1981840990828083109203918083039214611724576127109082821115611712577fbc01a36e2eb1c432ca57a786c226809d495182a9930be0ded288ce703afb7e91940990828211900360fc1b910360041c170290565b634e487b715f5260116020526024601cfd5b505061271091500490565b91818302915f19818509938380861095039480860395146117ba57848311156117a25790829109815f038216809204600280826003021880830282030280830282030280830282030280830282030280830282030280920290030293600183805f03040190848311900302920304170290565b82634e487b715f52156003026011186020526024601cfd5b5050906114a392506116ab565b6040516370a0823160e01b81523060048201526020816024817f00000000000000000000000000000000000000000000000000000000000000006001600160a01b03165afa90811561166c575f9161181d575090565b906020823d8211611843575b816118366020938361135a565b8101031261032257505190565b3d9150611829565b6008545f91906001600160a01b039083908216331415806119fe575b6119ec5781600954169182156119e65760025480156119de57611888611a2f565b90600b54808311156119d457808303918383116119c0578083029283041490831417156119ac576118d8670de0b6b3a7640000809204612710600a546118ce81846116b5565b9209151590611457565b938415801561192c575b505050505050507f03f8f938dbe4475565f0cf1c3dcf09728208c2c6065e1f717102058c51e94d066040600b54611917611a2f565b80600b5542600c5582519182526020820152a1565b90918581949596979950029286840414171561199857509161197b6119746040937f406ec5a7b1e41afd7626e249cb92195ad9869b8d2aee73d7886cbd259f568743956116ab565b80976115b5565b60095416928151908152856020820152a25f8080808080806118e2565b634e487b7160e01b81526011600452602490fd5b634e487b7160e01b84526011600452602484fd5b634e487b7160e01b86526011600452602486fd5b5092955050505050565b509093505050565b50925050565b6040516309275d5760e31b8152600490fd5b508160095416331415611867565b600260075414611a1d576002600755565b604051633ee5aeb560e01b8152600490fd5b6002548015611a6457611a406117c7565b90670de0b6b3a764000091828102928184041490151715611464576114a3916116ab565b50670de0b6b3a764000090565b60405163a9059cbb60e01b60208201526001600160a01b039092166024830152604480830193909352918152608081019167ffffffffffffffff83118284101761134657611ac192604052611612565b56fea264697066735822122076a4cf7a20972c2d797d44fdc9eb407c75a6d0b6087f5e559ae096d37923324764736f6c63430008140033","linkReferences":{}},"methodIdentifiers":{"MAX_PERFORMANCE_FEE_BPS()":"70889165","acceptOwnership()":"79ba5097","allowance(address,address)":"dd62ed3e","approve(address,uint256)":"095ea7b3","asset()":"38d52e0f","balanceOf(address)":"70a08231","convertToAssets(uint256)":"07a2d13a","convertToShares(uint256)":"c6e6f592","cooldownDuration()":"35269315","cooldownWithdraw()":"4394155e","cooldowns(address)":"01320fe2","decimals()":"313ce567","deposit(uint256,address)":"6e553f65","emergencyWithdraw(address,uint256)":"95ccea67","feeCollector()":"c415b95c","harvest()":"4641257d","highWaterMark()":"1e8410da","lastHarvestTimestamp()":"2257a738","lastUnstakeTime(address)":"331e03a8","maxDeposit(address)":"402d267d","maxMint(address)":"c63d75b6","maxRedeem(address)":"d905777e","maxWithdraw(address)":"ce96cb77","mint(uint256,address)":"94bf804d","minter()":"07546172","name()":"06fdde03","owner()":"8da5cb5b","pendingOwner()":"e30c3978","performanceFeeBPS()":"ac324166","previewDeposit(uint256)":"ef8b30f7","previewMint(uint256)":"b3d7f6b9","previewRedeem(uint256)":"4cdad506","previewWithdraw(uint256)":"0a28a477","pricePerShare()":"99530b06","redeem(uint256,address,address)":"ba087652","renounceOwnership()":"715018a6","setCooldownDuration(uint24)":"ce23eb3c","setFeeCollector(address)":"a42dce80","setMinter(address)":"fca3b5aa","setPerformanceFee(uint256)":"70897b23","symbol()":"95d89b41","totalAssets()":"01e1d114","totalSupply()":"18160ddd","transfer(address,uint256)":"a9059cbb","transferFrom(address,address,uint256)":"23b872dd","transferOwnership(address)":"f2fde38b","unstake(uint256)":"2e17de78","withdraw(uint256,address,address)":"b460af94"},"id":68}