{"abi":[{"type":"constructor","inputs":[{"name":"_vault","type":"address","internalType":"address"},{"name":"_collateralToken","type":"address","internalType":"address"},{"name":"_perpProvider","type":"address","internalType":"address"},{"name":"_gbpUsdMarket","type":"bytes32","internalType":"bytes32"}],"stateMutability":"nonpayable"},{"type":"function","name":"IS_LONG","inputs":[],"outputs":[{"name":"","type":"bool","internalType":"bool"}],"stateMutability":"view"},{"type":"function","name":"LIQUIDATION_WARNING_THRESHOLD_BPS","inputs":[],"outputs":[{"name":"","type":"uint256","internalType":"uint256"}],"stateMutability":"view"},{"type":"function","name":"MIN_COLLATERAL_RATIO_BPS","inputs":[],"outputs":[{"name":"","type":"uint256","internalType":"uint256"}],"stateMutability":"view"},{"type":"function","name":"PERP_PROVIDER_TIMELOCK","inputs":[],"outputs":[{"name":"","type":"uint256","internalType":"uint256"}],"stateMutability":"view"},{"type":"function","name":"PROPOSAL_COOLDOWN","inputs":[],"outputs":[{"name":"","type":"uint256","internalType":"uint256"}],"stateMutability":"view"},{"type":"function","name":"acceptOwnership","inputs":[],"outputs":[],"stateMutability":"nonpayable"},{"type":"function","name":"cancelPerpProviderProposal","inputs":[],"outputs":[],"stateMutability":"nonpayable"},{"type":"function","name":"collateralToken","inputs":[],"outputs":[{"name":"","type":"address","internalType":"contract IERC20"}],"stateMutability":"view"},{"type":"function","name":"currentCollateral","inputs":[],"outputs":[{"name":"","type":"uint256","internalType":"uint256"}],"stateMutability":"view"},{"type":"function","name":"currentNotional","inputs":[],"outputs":[{"name":"","type":"uint256","internalType":"uint256"}],"stateMutability":"view"},{"type":"function","name":"decreasePosition","inputs":[{"name":"shareRatio","type":"uint256","internalType":"uint256"},{"name":"deadline","type":"uint256","internalType":"uint256"}],"outputs":[],"stateMutability":"nonpayable"},{"type":"function","name":"emergencyClosePosition","inputs":[],"outputs":[],"stateMutability":"nonpayable"},{"type":"function","name":"executePerpProviderChange","inputs":[],"outputs":[],"stateMutability":"nonpayable"},{"type":"function","name":"gbpUsdMarket","inputs":[],"outputs":[{"name":"","type":"bytes32","internalType":"bytes32"}],"stateMutability":"view"},{"type":"function","name":"getHealthFactor","inputs":[],"outputs":[{"name":"healthFactor","type":"uint256","internalType":"uint256"}],"stateMutability":"view"},{"type":"function","name":"getPositionDetails","inputs":[],"outputs":[{"name":"notional","type":"uint256","internalType":"uint256"},{"name":"collateral","type":"uint256","internalType":"uint256"},{"name":"size","type":"uint256","internalType":"uint256"}],"stateMutability":"view"},{"type":"function","name":"getPositionPnL","inputs":[],"outputs":[{"name":"pnl","type":"int256","internalType":"int256"}],"stateMutability":"view"},{"type":"function","name":"getPositionValue","inputs":[],"outputs":[{"name":"value","type":"uint256","internalType":"uint256"}],"stateMutability":"view"},{"type":"function","name":"increasePosition","inputs":[{"name":"notionalSize","type":"uint256","internalType":"uint256"},{"name":"collateral","type":"uint256","internalType":"uint256"},{"name":"deadline","type":"uint256","internalType":"uint256"}],"outputs":[],"stateMutability":"nonpayable"},{"type":"function","name":"lastProposalTimestamp","inputs":[],"outputs":[{"name":"","type":"uint256","internalType":"uint256"}],"stateMutability":"view"},{"type":"function","name":"owner","inputs":[],"outputs":[{"name":"","type":"address","internalType":"address"}],"stateMutability":"view"},{"type":"function","name":"pendingOwner","inputs":[],"outputs":[{"name":"","type":"address","internalType":"address"}],"stateMutability":"view"},{"type":"function","name":"pendingPerpProvider","inputs":[],"outputs":[{"name":"","type":"address","internalType":"contract IPerpProvider"}],"stateMutability":"view"},{"type":"function","name":"perpProvider","inputs":[],"outputs":[{"name":"","type":"address","internalType":"contract IPerpProvider"}],"stateMutability":"view"},{"type":"function","name":"perpProviderChangeTimestamp","inputs":[],"outputs":[{"name":"","type":"uint256","internalType":"uint256"}],"stateMutability":"view"},{"type":"function","name":"proposePerpProviderChange","inputs":[{"name":"newProvider","type":"address","internalType":"address"}],"outputs":[],"stateMutability":"nonpayable"},{"type":"function","name":"renounceOwnership","inputs":[],"outputs":[],"stateMutability":"nonpayable"},{"type":"function","name":"transferOwnership","inputs":[{"name":"newOwner","type":"address","internalType":"address"}],"outputs":[],"stateMutability":"nonpayable"},{"type":"function","name":"vault","inputs":[],"outputs":[{"name":"","type":"address","internalType":"address"}],"stateMutability":"view"},{"type":"function","name":"withdrawCollateral","inputs":[{"name":"withdrawAmount","type":"uint256","internalType":"uint256"}],"outputs":[{"name":"actualWithdrawn","type":"uint256","internalType":"uint256"}],"stateMutability":"nonpayable"},{"type":"event","name":"LiquidationWarning","inputs":[{"name":"healthFactor","type":"uint256","indexed":false,"internalType":"uint256"},{"name":"pnl","type":"int256","indexed":false,"internalType":"int256"},{"name":"collateral","type":"uint256","indexed":false,"internalType":"uint256"}],"anonymous":false},{"type":"event","name":"OwnershipTransferStarted","inputs":[{"name":"previousOwner","type":"address","indexed":true,"internalType":"address"},{"name":"newOwner","type":"address","indexed":true,"internalType":"address"}],"anonymous":false},{"type":"event","name":"OwnershipTransferred","inputs":[{"name":"previousOwner","type":"address","indexed":true,"internalType":"address"},{"name":"newOwner","type":"address","indexed":true,"internalType":"address"}],"anonymous":false},{"type":"event","name":"PerpProviderProposalCancelled","inputs":[{"name":"cancelledProvider","type":"address","indexed":true,"internalType":"address"}],"anonymous":false},{"type":"event","name":"PerpProviderProposed","inputs":[{"name":"oldProvider","type":"address","indexed":true,"internalType":"address"},{"name":"newProvider","type":"address","indexed":true,"internalType":"address"},{"name":"activationTime","type":"uint256","indexed":false,"internalType":"uint256"}],"anonymous":false},{"type":"event","name":"PerpProviderUpdated","inputs":[{"name":"oldProvider","type":"address","indexed":false,"internalType":"address"},{"name":"newProvider","type":"address","indexed":false,"internalType":"address"}],"anonymous":false},{"type":"event","name":"PositionDecreased","inputs":[{"name":"shareRatio","type":"uint256","indexed":false,"internalType":"uint256"},{"name":"notionalReduced","type":"uint256","indexed":false,"internalType":"uint256"},{"name":"collateralReduced","type":"uint256","indexed":false,"internalType":"uint256"}],"anonymous":false},{"type":"event","name":"PositionIncreased","inputs":[{"name":"notionalSize","type":"uint256","indexed":false,"internalType":"uint256"},{"name":"collateral","type":"uint256","indexed":false,"internalType":"uint256"}],"anonymous":false},{"type":"error","name":"DeadlineExpired","inputs":[]},{"type":"error","name":"InsufficientCollateralRatio","inputs":[]},{"type":"error","name":"InvalidProvider","inputs":[]},{"type":"error","name":"InvalidShareRatio","inputs":[]},{"type":"error","name":"NoPendingProvider","inputs":[]},{"type":"error","name":"OnlyVault","inputs":[]},{"type":"error","name":"OwnableInvalidOwner","inputs":[{"name":"owner","type":"address","internalType":"address"}]},{"type":"error","name":"OwnableUnauthorizedAccount","inputs":[{"name":"account","type":"address","internalType":"address"}]},{"type":"error","name":"PositionNearLiquidation","inputs":[]},{"type":"error","name":"ProposalCooldownActive","inputs":[]},{"type":"error","name":"ProviderNotChanged","inputs":[]},{"type":"error","name":"ReentrancyGuardReentrantCall","inputs":[]},{"type":"error","name":"SafeERC20FailedOperation","inputs":[{"name":"token","type":"address","internalType":"address"}]},{"type":"error","name":"TimelockNotExpired","inputs":[]},{"type":"error","name":"ZeroAmount","inputs":[]}],"bytecode":{"object":"0x60e0346200029557601f62001f1638819003918201601f191683019291906001600160401b038411838510176200029957816080928492604096875283398101031262000295576200005181620002ad565b6200005f60208301620002ad565b60606200006e858501620002ad565b9301519233156200027e5760018060a01b03199182600154166001555f549033848316175f55865160018060a01b0392833391167f8be0079c531659141344cd1fd0a4f28419497f9722a3daafe3b4186f6b6457e05f80a36001600255828616156200024c57508116918215620002135716928315620001dc578415620001a75760805260a052600354161760035560c05251611c539081620002c3823960805181818161017f0152818161039701528181610ac301528181610c690152818161165b0152611b86015260a05181818161040a015281816108ae01528181610ddc0152818161169d0152611b2e015260c051818181610291015281816104ef015281816107d701528181610cf801528181610fe3015281816112410152818161141e01528181611520015281816117a20152611ae20152f35b855162461bcd60e51b815260206004820152600e60248201526d125b9d985b1a59081b585c9ad95d60921b6044820152606490fd5b855162461bcd60e51b815260206004820152601060248201526f24b73b30b634b210383937bb34b232b960811b6044820152606490fd5b865162461bcd60e51b8152602060048201526012602482015271125b9d985b1a590818dbdb1b185d195c985b60721b6044820152606490fd5b62461bcd60e51b815260206004820152600d60248201526c125b9d985b1a59081d985d5b1d609a1b6044820152606490fd5b8451631e4fbdf760e01b81525f6004820152602490fd5b5f80fd5b634e487b7160e01b5f52604160045260245ffd5b51906001600160a01b0382168203620002955756fe6080604081815260049182361015610015575f80fd5b5f92833560e01c9182630deb6adc1461122a5750816317499381146112015781631a02cdf3146110ea5781631bcf7ca2146110cb578163295c2b86146110ae57816329fe00c3146110855781632dd4a53414610fbf5781633332c5be14610fa35781633bacfca914610c555781633fcf685d14610c24578163467f67f914610c075781635162221714610b5a578163533e1ecc14610b3c5781635786643c14610b1e5781636112fe2e14610aad578163664ad03c14610a34578163715018a6146109cf57816379ba5097146109485781638da5cb5b1461092057816392e3601a14610901578163a5f352b7146108dd578163b2016bd414610899578163b44b3a8f146107b4578163b8d1e8901461036f578163bdeb345114610352578163c869623214610269578163e0c2f9351461024a578163e30c397814610221578163f2fde38b146101b2575063fbfa77cf1461016c575f80fd5b346101ae57816003193601126101ae57517f00000000000000000000000000000000000000000000000000000000000000006001600160a01b03168152602090f35b5080fd5b8390346101ae5760203660031901126101ae57356001600160a01b038181169182900361021d576101e1611264565b600180546001600160a01b031916831790558254167f38d16b8cac22d99fc7c124b9cd0de2d3fa1faef420bfe791d8c362d765e227008380a380f35b8280fd5b5050346101ae57816003193601126101ae5760015490516001600160a01b039091168152602090f35b5050346101ae57816003193601126101ae576020906008549051908152f35b82843461034f578060031936011261034f57825460055460035484516338b2e47960e01b81527f0000000000000000000000000000000000000000000000000000000000000000968101968752306020808901919091529296939590949390929185918290036040019082906001600160a01b03165afa918215610344579161030b575b519283526020830193909352506040810191909152606090f35b0390f35b90506020823d821161033c575b81610325602093836112de565b81010312610338576103079151906102ed565b5f80fd5b3d9150610318565b9051903d90823e3d90fd5b80fd5b5050346101ae57816003193601126101ae5760209051610bb88152f35b9190503461021d57606036600319011261021d576024918035908335906001600160a01b03907f0000000000000000000000000000000000000000000000000000000000000000821633036107a6576103c6611365565b831580801561079e575b61078f576044354211610780576127109081850285810483148615171561076e576107d0918288029288840414171561076e571061075f577f00000000000000000000000000000000000000000000000000000000000000009286516020946323b872dd60e01b86830152338a8301523060448301528660648301526064825260a082019167ffffffffffffffff928181108482111761072d578a526104769082611300565b898360035416928a51938d89818c6104c6896104b8858201938863095ea7b360e01b9b8c8752840160209093929193604081019460018060a01b031681520152565b03601f1981018b528a6112de565b88519082895af1903d8151918361073f575b505050156106e7575b5050505050888160035416987f000000000000000000000000000000000000000000000000000000000000000099803b1561021d57879160848c8580948e519687958694631ef80cab60e11b86528d8601528401528d604484015260016064840152623567e0f180156106dd576106c5575b505060035487516338b2e47960e01b81528481018a81523060208201529099929091169085908a9081906040010381845afa9889156106bb578a99610684575b5087516327f3a0d160e01b8152848101928352306020840152929185918491829081906040015b03915afa91821561067a578992610629575b5082547f3b1f2f3ca0c73d20356c3574f88fe4d4aae2bc312ffcb4823dbd36e6e7550d359861061294939290911561062357506106076113fd565b925b556005556114f0565b8351928352820152a1600160025580f35b92610609565b9291508383813d8311610673575b61064181836112de565b8101031261033857915190917f3b1f2f3ca0c73d20356c3574f88fe4d4aae2bc312ffcb4823dbd36e6e7550d356105cc565b503d610637565b87513d8b823e3d90fd5b9098508481819493943d83116106b4575b61069f81836112de565b810103126103385751979091906105ba610593565b503d610695565b88513d8c823e3d90fd5b6106ce906112b6565b6106d957885f610553565b8880fd5b89513d84823e3d90fd5b8b5192898401528c8301528c60448301526044825260808201908282109082111761072d5761072393929161071e918c5282611300565b611300565b5f808080806104e1565b8b604188634e487b7160e01b5f52525ffd5b5090915061075757508584163b15155b5f8f806104d8565b60011461074f565b50845163d637f8f160e01b8152fd5b634e487b7160e01b8a5260118452888afd5b508451631ab7da6b60e01b8152fd5b508451631f2a200560e01b8152fd5b5083156103d0565b8451638d1af8bd60e01b8152fd5b90503461021d578260031936011261021d57600354825163cbfb476960e01b81527f000000000000000000000000000000000000000000000000000000000000000092810192835230602080850191909152909492909185918290036040019082906001600160a01b03165afa92831561088d578193610858575b5061083e6020936005546113e2565b90808213156108505750905b51908152f35b90509061084a565b92506020833d8211610885575b81610872602093836112de565b810103126103385791519161083e61082f565b3d9150610865565b509051903d90823e3d90fd5b5050346101ae57816003193601126101ae57517f00000000000000000000000000000000000000000000000000000000000000006001600160a01b03168152602090f35b5050346101ae57816003193601126101ae576020906108fa6113fd565b9051908152f35b5050346101ae57816003193601126101ae576020906005549051908152f35b5050346101ae57816003193601126101ae57905490516001600160a01b039091168152602090f35b9190503461021d578260031936011261021d57600154916001600160a01b039133838516036109b85750506001600160601b0360a01b8092166001555f549133908316175f553391167f8be0079c531659141344cd1fd0a4f28419497f9722a3daafe3b4186f6b6457e05f80a380f35b60249250519063118cdaa760e01b82523390820152fd5b833461034f578060031936011261034f576109e8611264565b600180546001600160a01b03199081169091555f80549182168155906001600160a01b03167f8be0079c531659141344cd1fd0a4f28419497f9722a3daafe3b4186f6b6457e08280a380f35b90503461021d578260031936011261021d57610a4e611264565b6006546001600160a01b038116929091908315610aa05750506001600160a01b03191660065560078290557f07bab537ff8d16ec2fb554ca7aa91e3b61ebb32d18d2012205e9d717f2e25b808280a280f35b51633ea0a0f560e01b8152fd5b82843461034f57602036600319011261034f57507f00000000000000000000000000000000000000000000000000000000000000006001600160a01b03163303610b1157610b05602092610aff611365565b3561160f565b90600160025551908152f35b51638d1af8bd60e01b8152fd5b90503461021d578260031936011261021d5760209250549051908152f35b5050346101ae57816003193601126101ae5760209051620151808152f35b8383346101ae57816003193601126101ae57610b74611264565b600654926001600160a01b0390818516908115610bf9576007544210610beb5750837f886fc3173aea111da43037e3be9e3c7c15dd3fffa5c5eca51ce940e2620bf8cf9495600354906001600160601b0360a01b90848284161760035516600655816007558451938116845216176020820152a180f35b835163621e25c360e01b8152fd5b8351633ea0a0f560e01b8152fd5b5050346101ae57816003193601126101ae576020905161a8c08152f35b833461034f578060031936011261034f57610c3d611264565b610c45611365565b610c4d611a70565b600160025580f35b90503461021d578160031936011261021d577f0000000000000000000000000000000000000000000000000000000000000000918135906001600160a01b03908185163303610f9457610ca6611365565b8215610f8557670de0b6b3a764000093848411610f77576024354211610f695784610cd285835461128f565b0494610ce08560055461128f565b049285158015610f61575b610f5257806003541690887f000000000000000000000000000000000000000000000000000000000000000092803b156101ae578190608487518094819363577270cd60e01b8352888a8401528b60248401528d6044840152600160648401525af18015610f4857610f35575b5060035484516338b2e47960e01b81528481018481523060208281019190915294928416908590839081906040010381845afa918215610f2b579085918d93610ef8575b5087516327f3a0d160e01b815287810194855230602086015293849190829081906040015b03915afa918215610eee578b92610ebf575b508455600555817f00000000000000000000000000000000000000000000000000000000000000009360248651809481936370a0823160e01b8352309083015287165afa918215610eb5578992610e7d575b505090815f80516020611bfe83398151915297610e61959493610e6c575b50505051938493846040919493926060820195825260208201520152565b0390a1600160025580f35b610e75926113a4565b5f8080610e43565b90809594939250813d8311610eae575b610e9781836112de565b810103126103385792519192909186610e61610e25565b503d610e8d565b84513d8b823e3d90fd5b9091508381813d8311610ee7575b610ed781836112de565b810103126103385751905f610dd3565b503d610ecd565b86513d8d823e3d90fd5b8281939294503d8311610f24575b610f1081836112de565b810103126103385751908490610dc1610d9c565b503d610f06565b87513d8e823e3d90fd5b610f41909991996112b6565b975f610d58565b85513d8c823e3d90fd5b509051631f2a200560e01b8152fd5b508315610ceb565b9051631ab7da6b60e01b8152fd5b90516391decc1f60e01b8152fd5b51631f2a200560e01b81528390fd5b51638d1af8bd60e01b81528390fd5b5050346101ae57816003193601126101ae576020905160018152f35b9190503461021d578260031936011261021d57600354815163cbfb476960e01b81527f0000000000000000000000000000000000000000000000000000000000000000938101938452306020808601919091529093909184918290036040019082906001600160a01b03165afa91821561107b578392611044575b6020838351908152f35b9091506020813d8211611073575b8161105f602093836112de565b8101031261021d576020925051905f61103a565b3d9150611052565b81513d85823e3d90fd5b5050346101ae57816003193601126101ae5760065490516001600160a01b039091168152602090f35b5050346101ae57816003193601126101ae57602090516107d08152f35b5050346101ae57816003193601126101ae576020906007549051908152f35b9190503461021d57602036600319011261021d5781356001600160a01b0381811693918490036111fd5761111c611264565b83156111ee5760035416918284146111e15760085480151590816111b8575b506111ab57836001600160601b0360a01b6006541617600655620151804201918242116111985750816020917f86a650fffd38162ddc30827607c2ba0f631d4d72b6adb95ab7836eeaf7d72561936007554260085551908152a380f35b634e487b7160e01b865260119052602485fd5b5163fd7af65f60e01b8152fd5b905061a8c081018091116111ce5742105f61113b565b634e487b7160e01b865260118352602486fd5b5163e3b3da3160e01b8152fd5b509051633b136dc160e11b8152fd5b8480fd5b5050346101ae57816003193601126101ae5760035490516001600160a01b039091168152602090f35b8490346101ae57816003193601126101ae576020907f00000000000000000000000000000000000000000000000000000000000000008152f35b5f546001600160a01b0316330361127757565b60405163118cdaa760e01b8152336004820152602490fd5b818102929181159184041417156112a257565b634e487b7160e01b5f52601160045260245ffd5b67ffffffffffffffff81116112ca57604052565b634e487b7160e01b5f52604160045260245ffd5b90601f8019910116810190811067ffffffffffffffff8211176112ca57604052565b905f602091828151910182855af11561135a575f513d61135157506001600160a01b0381163b155b61132f5750565b604051635274afe760e01b81526001600160a01b039091166004820152602490fd5b60011415611328565b6040513d5f823e3d90fd5b60028054146113745760028055565b604051633ee5aeb560e01b8152600490fd5b8115611390570490565b634e487b7160e01b5f52601260045260245ffd5b60405163a9059cbb60e01b60208201526001600160a01b039290921660248301526044808301939093529181526113e09161071e6064836112de565b565b9190915f83820193841291129080158216911516176112a257565b6004541580156114e6575b6114e05760035460405163cbfb476960e01b81527f0000000000000000000000000000000000000000000000000000000000000000600482015230602482015290602090829060449082906001600160a01b03165afa90811561135a575f916114af575b5061147a60055491826113e2565b905f8213156114a95780156114a957612710918281029281840414901517156112a2576114a691611386565b90565b50505f90565b906020823d82116114d8575b816114c8602093836112de565b8101031261034f5750515f61146c565b3d91506114bb565b61271090565b5060055415611408565b600454156115ff576115006113fd565b610bb881111561150e575050565b60035460405163cbfb476960e01b81527f0000000000000000000000000000000000000000000000000000000000000000600482015230602482015290602090829060449082906001600160a01b03165afa90811561135a575f916115cd575b5060607fd3b69849f08b5d976bec72595edb9669e393bb5e5d6d390dc869742adf8464e5916005546040519185835260208301526040820152a16107d081106115b5575050565b10156113e0576040516314cb4e9d60e11b8152600490fd5b906020823d82116115f7575b816115e6602093836112de565b8101031261034f575051606061156e565b3d91506115d9565b50565b919082039182116112a257565b905f918015611a5e57600554928315611a5957670de0b6b3a7640000918281029081048303611a45578461164291611386565b828111611a3e575b604080516370a0823160e01b8082527f00000000000000000000000000000000000000000000000000000000000000006001600160a01b038181166004808601829052949a9098919795966020969594937f00000000000000000000000000000000000000000000000000000000000000008a8116949291898f602481895afa9b8c15611a3457899c611a02575b8a9b9c9d9e9f50889a999a5495856116f0868961128f565b04956116fc868361128f565b0496861515806119f9575b611779575b5050505050505050906024918751998a94859384528301525afa92831561176f57509161173f575b506114a69250611602565b905082813d8311611768575b61175581836112de565b81010312610338576114a691515f611734565b503d61174b565b51903d90823e3d90fd5b879b50906117908761179794959697989993611602565b8b55611602565b6005558060035416907f000000000000000000000000000000000000000000000000000000000000000091803b156119f5578b838f8c838f9560849351968795869463577270cd60e01b865285015260248401528c6044840152600160648401525af180156119d8576119e2575b506003548d516338b2e47960e01b81528a8101848152306020820152909392909116908d90849081906040010381845afa9182156119d8578d918f918c928f9561199e575b516327f3a0d160e01b81529283019081523060208201529194508491829081906040015b03915afa918215611994578b92611965575b5088556005558a519086825230888301528a82602481895afa91821561195b57908b98979695949392918b92611914575b50985f80516020611bfe833981519152949392826024999a9b6118f294611903575b5050508c51938493846040919493926060820195825260208201520152565b0390a190915f80808080808061170c565b61190c926113a4565b5f80806118d3565b809250899195949398993d8311611954575b61193081836112de565b8101031261033857518a979692939192915f80516020611bfe8339815191526118b1565b503d611926565b8c513d8c823e3d90fd5b9091508b81813d831161198d575b61197d81836112de565b810103126103385751905f611880565b503d611973565b8d513d8d823e3d90fd5b5092859194508092503d83116119d1575b6119b981836112de565b8101031261033857898e928e9261186e95519461184a565b503d6119af565b8e513d8e823e3d90fd5b6119ee909b919b6112b6565b995f611805565b8b80fd5b50871515611707565b9b50898f813d8311611a2d575b611a1981836112de565b810103126106d9579d519c9d8e9d9b6116d8565b503d611a0f565b8b513d8b823e3d90fd5b508161164a565b634e487b7160e01b82526011600452602482fd5b925050565b604051631f2a200560e01b8152600490fd5b6004545f8115611bf9576005549080600455806005556040915f80516020611bfe83398151915260608451670de0b6b3a764000081528660208201528386820152a16003546001600160a01b039490851691823b15611bf5579060848492838751958694859363577270cd60e01b85527f0000000000000000000000000000000000000000000000000000000000000000600486015260248501526044840152600160648401525af18015611beb579060249291611bdc575b5060207f0000000000000000000000000000000000000000000000000000000000000000948451938480926370a0823160e01b825230600483015288165afa92831561176f575091611bab575b5080611b80575050565b6113e0917f0000000000000000000000000000000000000000000000000000000000000000906113a4565b90506020813d8211611bd4575b81611bc5602093836112de565b8101031261033857515f611b76565b3d9150611bb8565b611be5906112b6565b5f611b29565b83513d84823e3d90fd5b8380fd5b505056fe8e1480132c7e8b87a596611b95b122a880835f60445ef0e961b878461251e987a2646970667358221220e871b99e3cbd1089433cff6c22382195c0274f28b023b40ca0a05d65d19ce19f64736f6c63430008140033","linkReferences":{}},"methodIdentifiers":{"IS_LONG()":"3332c5be","LIQUIDATION_WARNING_THRESHOLD_BPS()":"bdeb3451","MIN_COLLATERAL_RATIO_BPS()":"295c2b86","PERP_PROVIDER_TIMELOCK()":"533e1ecc","PROPOSAL_COOLDOWN()":"467f67f9","acceptOwnership()":"79ba5097","cancelPerpProviderProposal()":"664ad03c","collateralToken()":"b2016bd4","currentCollateral()":"92e3601a","currentNotional()":"5786643c","decreasePosition(uint256,uint256)":"3bacfca9","emergencyClosePosition()":"3fcf685d","executePerpProviderChange()":"51622217","gbpUsdMarket()":"0deb6adc","getHealthFactor()":"a5f352b7","getPositionDetails()":"c8696232","getPositionPnL()":"2dd4a534","getPositionValue()":"b44b3a8f","increasePosition(uint256,uint256,uint256)":"b8d1e890","lastProposalTimestamp()":"e0c2f935","owner()":"8da5cb5b","pendingOwner()":"e30c3978","pendingPerpProvider()":"29fe00c3","perpProvider()":"17499381","perpProviderChangeTimestamp()":"1bcf7ca2","proposePerpProviderChange(address)":"1a02cdf3","renounceOwnership()":"715018a6","transferOwnership(address)":"f2fde38b","vault()":"fbfa77cf","withdrawCollateral(uint256)":"6112fe2e"},"id":49}