{"abi":[{"type":"constructor","inputs":[{"name":"_vaultToken","type":"address","internalType":"address"},{"name":"_treasury","type":"address","internalType":"address"},{"name":"_reserveBuffer","type":"address","internalType":"address"},{"name":"_treasuryBps","type":"uint256","internalType":"uint256"},{"name":"_reserveBps","type":"uint256","internalType":"uint256"},{"name":"_owner","type":"address","internalType":"address"}],"stateMutability":"nonpayable"},{"type":"receive","stateMutability":"payable"},{"type":"function","name":"TOTAL_BPS","inputs":[],"outputs":[{"name":"","type":"uint256","internalType":"uint256"}],"stateMutability":"view"},{"type":"function","name":"acceptOwnership","inputs":[],"outputs":[],"stateMutability":"nonpayable"},{"type":"function","name":"owner","inputs":[],"outputs":[{"name":"","type":"address","internalType":"address"}],"stateMutability":"view"},{"type":"function","name":"pendingOwner","inputs":[],"outputs":[{"name":"","type":"address","internalType":"address"}],"stateMutability":"view"},{"type":"function","name":"releasable","inputs":[{"name":"account","type":"address","internalType":"address"}],"outputs":[{"name":"","type":"uint256","internalType":"uint256"}],"stateMutability":"view"},{"type":"function","name":"releaseReserve","inputs":[],"outputs":[],"stateMutability":"nonpayable"},{"type":"function","name":"releaseTreasury","inputs":[],"outputs":[],"stateMutability":"nonpayable"},{"type":"function","name":"releasedReserve","inputs":[],"outputs":[{"name":"","type":"uint256","internalType":"uint256"}],"stateMutability":"view"},{"type":"function","name":"releasedTreasury","inputs":[],"outputs":[{"name":"","type":"uint256","internalType":"uint256"}],"stateMutability":"view"},{"type":"function","name":"renounceOwnership","inputs":[],"outputs":[],"stateMutability":"nonpayable"},{"type":"function","name":"reserveBuffer","inputs":[],"outputs":[{"name":"","type":"address","internalType":"address"}],"stateMutability":"view"},{"type":"function","name":"reserveShareBps","inputs":[],"outputs":[{"name":"","type":"uint256","internalType":"uint256"}],"stateMutability":"view"},{"type":"function","name":"setReserveBuffer","inputs":[{"name":"_newBuffer","type":"address","internalType":"address"}],"outputs":[],"stateMutability":"nonpayable"},{"type":"function","name":"setRevenueSplit","inputs":[{"name":"_treasuryBps","type":"uint256","internalType":"uint256"},{"name":"_reserveBps","type":"uint256","internalType":"uint256"}],"outputs":[],"stateMutability":"nonpayable"},{"type":"function","name":"setTreasury","inputs":[{"name":"_newTreasury","type":"address","internalType":"address"}],"outputs":[],"stateMutability":"nonpayable"},{"type":"function","name":"totalReceived","inputs":[],"outputs":[{"name":"","type":"uint256","internalType":"uint256"}],"stateMutability":"view"},{"type":"function","name":"transferOwnership","inputs":[{"name":"newOwner","type":"address","internalType":"address"}],"outputs":[],"stateMutability":"nonpayable"},{"type":"function","name":"treasury","inputs":[],"outputs":[{"name":"","type":"address","internalType":"address"}],"stateMutability":"view"},{"type":"function","name":"treasuryShareBps","inputs":[],"outputs":[{"name":"","type":"uint256","internalType":"uint256"}],"stateMutability":"view"},{"type":"function","name":"vaultToken","inputs":[],"outputs":[{"name":"","type":"address","internalType":"contract IERC20"}],"stateMutability":"view"},{"type":"event","name":"OwnershipTransferStarted","inputs":[{"name":"previousOwner","type":"address","indexed":true,"internalType":"address"},{"name":"newOwner","type":"address","indexed":true,"internalType":"address"}],"anonymous":false},{"type":"event","name":"OwnershipTransferred","inputs":[{"name":"previousOwner","type":"address","indexed":true,"internalType":"address"},{"name":"newOwner","type":"address","indexed":true,"internalType":"address"}],"anonymous":false},{"type":"event","name":"PaymentReceived","inputs":[{"name":"from","type":"address","indexed":true,"internalType":"address"},{"name":"amount","type":"uint256","indexed":false,"internalType":"uint256"}],"anonymous":false},{"type":"event","name":"PaymentReleased","inputs":[{"name":"to","type":"address","indexed":true,"internalType":"address"},{"name":"amount","type":"uint256","indexed":false,"internalType":"uint256"}],"anonymous":false},{"type":"event","name":"ReserveBufferUpdated","inputs":[{"name":"oldBuffer","type":"address","indexed":true,"internalType":"address"},{"name":"newBuffer","type":"address","indexed":true,"internalType":"address"}],"anonymous":false},{"type":"event","name":"RevenueSplitUpdated","inputs":[{"name":"treasuryBps","type":"uint256","indexed":false,"internalType":"uint256"},{"name":"reserveBps","type":"uint256","indexed":false,"internalType":"uint256"}],"anonymous":false},{"type":"event","name":"TreasuryUpdated","inputs":[{"name":"oldTreasury","type":"address","indexed":true,"internalType":"address"},{"name":"newTreasury","type":"address","indexed":true,"internalType":"address"}],"anonymous":false},{"type":"error","name":"InvalidSplit","inputs":[]},{"type":"error","name":"NoPaymentDue","inputs":[]},{"type":"error","name":"OwnableInvalidOwner","inputs":[{"name":"owner","type":"address","internalType":"address"}]},{"type":"error","name":"OwnableUnauthorizedAccount","inputs":[{"name":"account","type":"address","internalType":"address"}]},{"type":"error","name":"ReentrancyGuardReentrantCall","inputs":[]},{"type":"error","name":"SafeERC20FailedOperation","inputs":[{"name":"token","type":"address","internalType":"address"}]},{"type":"error","name":"ZeroAddress","inputs":[]}],"bytecode":{"object":"0x60a0346101bd57601f610bd138819003918201601f191683019291906001600160401b038411838510176101c1578160c092849260409687528339810103126101bd5761004b816101d5565b610057602083016101d5565b906100638484016101d5565b6060840151608085015194909391906001600160a01b039081906100899060a0016101d5565b169081156101a65760018060a01b0319938460015416600155815f9687549480888716178955828c5196167f8be0079c531659141344cd1fd0a4f28419497f9722a3daafe3b4186f6b6457e08a80a36001600255169283156101975750811692831561018657169384156101755786860190818711610161575061271003610150576080528160035416176003556004541617600455600555600655516109e790816101ea82396080518181816103300152818161058b0152818161070801526108b00152f35b865163bcd55b0f60e01b8152600490fd5b634e487b7160e01b81526011600452602490fd5b875163d92e233d60e01b8152600490fd5b885163d92e233d60e01b8152600490fd5b63d92e233d60e01b8152600490fd5b8751631e4fbdf760e01b81525f6004820152602490fd5b5f80fd5b634e487b7160e01b5f52604160045260245ffd5b51906001600160a01b03821682036101bd5756fe604060808152600480361015610047575b50361561001b575f80fd5b513481527f6ef95f06320e7a25a04a175ca677b7052bdd97131872c2192525a629f51be77060203392a2005b905f91823560e01c80631acf21a5146106955780633047b6241461062157806330654a471461060257806361d027b3146105d957806365a7081f146105ba578063703bafd514610576578063715018a614610511578063771cee391461049557806379ba5097146104135780638da5cb5b146103eb578063a3c2c462146103cc578063a3f8eace14610392578063ac14c8d014610373578063d3933ada146102bd578063d3cd52bc146102a0578063e30c397814610277578063ee12628e14610258578063f0f44260146101ca578063f2fde38b1461015b5763fbf682dc14610131575090610010565b346101575782600319360112610157575490516001600160a01b03909116815260209150f35b8280fd5b8382346101c65760203660031901126101c657356001600160a01b03818116918290036101575761018a61074c565b600180546001600160a01b031916831790558254167f38d16b8cac22d99fc7c124b9cd0de2d3fa1faef420bfe791d8c362d765e227008380a380f35b5080fd5b509034610157576020366003190112610157576001600160a01b03823581811693919290849003610254576101fd61074c565b8315610247575050600354826bffffffffffffffffffffffff60a01b821617600355167f4ab5be82436d353e61ca18726e984e561f5c1cc7c6d38b29d2553c790434705a8380a380f35b5163d92e233d60e01b8152fd5b8480fd5b5050346101c657816003193601126101c6576020906006549051908152f35b5050346101c657816003193601126101c65760015490516001600160a01b039091168152602090f35b5050346101c657816003193601126101c657602090516127108152f35b50346101575782600319360112610157576102d661084b565b80546001600160a01b03908116916102ed8361088c565b928315610364579183916103548360209561032b7fdf20fd1e76bc69d672e4814fafb2c449bba3a5369d8359adf9e05e6fde87b05698600954610777565b6009557f0000000000000000000000000000000000000000000000000000000000000000610798565b54169351908152a2600160025580f35b50835163589b68c960e01b8152fd5b5050346101c657816003193601126101c6576020906008549051908152f35b50346101575760203660031901126101575735916001600160a01b03831683036103c957506103c260209261088c565b9051908152f35b80fd5b5050346101c657816003193601126101c6576020906007549051908152f35b5050346101c657816003193601126101c657905490516001600160a01b039091168152602090f35b509034610157578260031936011261015757600154916001600160a01b0391338385160361047e5750506001600160a01b031991821660015582543392811683178455167f8be0079c531659141344cd1fd0a4f28419497f9722a3daafe3b4186f6b6457e08380a380f35b60249250519063118cdaa760e01b82523390820152fd5b509190346101c657806003193601126101c65782356024356104b561074c565b6127106104c28284610777565b03610501577f6c8ba0b577cc4989572b185b5b1bc6584a837a7333975075b038b27c87ee30a4939450816005558060065582519182526020820152a180f35b825163bcd55b0f60e01b81528590fd5b83346103c957806003193601126103c95761052a61074c565b600180546001600160a01b03199081169091558154908116825581906001600160a01b03167f8be0079c531659141344cd1fd0a4f28419497f9722a3daafe3b4186f6b6457e08280a380f35b5050346101c657816003193601126101c657517f00000000000000000000000000000000000000000000000000000000000000006001600160a01b03168152602090f35b5050346101c657816003193601126101c6576020906009549051908152f35b5050346101c657816003193601126101c65760035490516001600160a01b039091168152602090f35b5050346101c657816003193601126101c6576020906005549051908152f35b509034610157576020366003190112610157576001600160a01b038235818116939192908490036102545761065461074c565b8315610247575080546001600160a01b031981168417909155167f0b91012283de7fe8c7c64bfd6f796c8eaf7f9ee232c08d869f804160758b1e208380a380f35b50346101575782600319360112610157576106ae61084b565b6003546001600160a01b039081166106c58161088c565b92831561073e57509160209161072c827fdf20fd1e76bc69d672e4814fafb2c449bba3a5369d8359adf9e05e6fde87b0569561070382600854610777565b6008557f0000000000000000000000000000000000000000000000000000000000000000610798565b600354169351908152a2600160025580f35b845163589b68c960e01b8152fd5b5f546001600160a01b0316330361075f57565b60405163118cdaa760e01b8152336004820152602490fd5b9190820180921161078457565b634e487b7160e01b5f52601160045260245ffd5b60405163a9059cbb60e01b602082019081526001600160a01b0393841660248301526044808301959095529381529092608082019067ffffffffffffffff821183831017610837576020925f92604052519082865af11561082c575f513d61082357508082163b155b610809575050565b604051635274afe760e01b81529116600482015260249150fd5b60011415610801565b6040513d5f823e3d90fd5b634e487b7160e01b5f52604160045260245ffd5b600280541461085a5760028055565b604051633ee5aeb560e01b8152600490fd5b8181029291811591840414171561078457565b9190820391821161078457565b6040516370a0823160e01b81523060048201526001600160a01b03916020826024817f000000000000000000000000000000000000000000000000000000000000000087165afa91821561082c575f92610954575b506108ef6008548093610777565b906108fd6009548093610777565b9380806003541692169182145f1461092e5750505061271061092561092b936005549061086c565b0461087f565b90565b9091925060045416146109415750505f90565b61271061092561092b936006549061086c565b909160203d81116109aa575b601f8101601f1916830167ffffffffffffffff811184821017610996576020918491604052810103126103c9575051905f6108e1565b634e487b7160e01b83526041600452602483fd5b503d61096056fea2646970667358221220ea79ac9b73e3ac2d7b69234ef4e76a28e9f8ca9fa86e669632409bc71889993264736f6c63430008140033","linkReferences":{}},"methodIdentifiers":{"TOTAL_BPS()":"d3cd52bc","acceptOwnership()":"79ba5097","owner()":"8da5cb5b","pendingOwner()":"e30c3978","releasable(address)":"a3f8eace","releaseReserve()":"d3933ada","releaseTreasury()":"1acf21a5","releasedReserve()":"65a7081f","releasedTreasury()":"ac14c8d0","renounceOwnership()":"715018a6","reserveBuffer()":"fbf682dc","reserveShareBps()":"ee12628e","setReserveBuffer(address)":"3047b624","setRevenueSplit(uint256,uint256)":"771cee39","setTreasury(address)":"f0f44260","totalReceived()":"a3c2c462","transferOwnership(address)":"f2fde38b","treasury()":"61d027b3","treasuryShareBps()":"30654a47","vaultToken()":"703bafd5"},"id":46}