{"abi":[{"type":"constructor","inputs":[{"name":"_usdc","type":"address","internalType":"address"},{"name":"_gbpbToken","type":"address","internalType":"address"},{"name":"_oracle","type":"address","internalType":"address"},{"name":"_owner","type":"address","internalType":"address"}],"stateMutability":"nonpayable"},{"type":"function","name":"LENDING_ALLOCATION_BPS","inputs":[],"outputs":[{"name":"","type":"uint256","internalType":"uint256"}],"stateMutability":"view"},{"type":"function","name":"LEVERAGE_CHANGE_DELAY","inputs":[],"outputs":[{"name":"","type":"uint256","internalType":"uint256"}],"stateMutability":"view"},{"type":"function","name":"MAX_PRICE_CHANGE_BPS","inputs":[],"outputs":[{"name":"","type":"uint256","internalType":"uint256"}],"stateMutability":"view"},{"type":"function","name":"MINT_FEE_BPS","inputs":[],"outputs":[{"name":"","type":"uint256","internalType":"uint256"}],"stateMutability":"view"},{"type":"function","name":"MIN_HOLD_TIME","inputs":[],"outputs":[{"name":"","type":"uint256","internalType":"uint256"}],"stateMutability":"view"},{"type":"function","name":"MIN_MINT_AMOUNT","inputs":[],"outputs":[{"name":"","type":"uint256","internalType":"uint256"}],"stateMutability":"view"},{"type":"function","name":"MIN_POSITION_SIZE","inputs":[],"outputs":[{"name":"","type":"uint256","internalType":"uint256"}],"stateMutability":"view"},{"type":"function","name":"MIN_WEEKEND_HEALTH_BPS","inputs":[],"outputs":[{"name":"","type":"uint256","internalType":"uint256"}],"stateMutability":"view"},{"type":"function","name":"PERP_ALLOCATION_BPS","inputs":[],"outputs":[{"name":"","type":"uint256","internalType":"uint256"}],"stateMutability":"view"},{"type":"function","name":"REBALANCE_HEALTH_THRESHOLD_BPS","inputs":[],"outputs":[{"name":"","type":"uint256","internalType":"uint256"}],"stateMutability":"view"},{"type":"function","name":"REDEEM_FEE_BPS","inputs":[],"outputs":[{"name":"","type":"uint256","internalType":"uint256"}],"stateMutability":"view"},{"type":"function","name":"STRATEGY_CHANGE_DELAY","inputs":[],"outputs":[{"name":"","type":"uint256","internalType":"uint256"}],"stateMutability":"view"},{"type":"function","name":"acceptOwnership","inputs":[],"outputs":[],"stateMutability":"nonpayable"},{"type":"function","name":"accumulatedYield","inputs":[],"outputs":[{"name":"","type":"uint256","internalType":"uint256"}],"stateMutability":"view"},{"type":"function","name":"activeStrategy","inputs":[],"outputs":[{"name":"","type":"address","internalType":"contract IYieldStrategy"}],"stateMutability":"view"},{"type":"function","name":"calculateNetYield","inputs":[],"outputs":[{"name":"netYield","type":"uint256","internalType":"uint256"}],"stateMutability":"nonpayable"},{"type":"function","name":"canHarvest","inputs":[],"outputs":[{"name":"harvestReady","type":"bool","internalType":"bool"},{"name":"netYield","type":"uint256","internalType":"uint256"},{"name":"timeUntilNext","type":"uint256","internalType":"uint256"}],"stateMutability":"nonpayable"},{"type":"function","name":"cancelLeverageProposal","inputs":[],"outputs":[],"stateMutability":"nonpayable"},{"type":"function","name":"checkRebalanceStatus","inputs":[],"outputs":[],"stateMutability":"nonpayable"},{"type":"function","name":"checkWeekendHealth","inputs":[],"outputs":[{"name":"safe","type":"bool","internalType":"bool"},{"name":"healthFactor","type":"uint256","internalType":"uint256"},{"name":"hoursUntilClose","type":"uint256","internalType":"uint256"}],"stateMutability":"nonpayable"},{"type":"function","name":"consecutiveDeficitDays","inputs":[],"outputs":[{"name":"","type":"uint256","internalType":"uint256"}],"stateMutability":"view"},{"type":"function","name":"emergencyRebalance","inputs":[{"name":"minTVL","type":"uint256","internalType":"uint256"}],"outputs":[],"stateMutability":"nonpayable"},{"type":"function","name":"emergencyWithdrawStrategy","inputs":[],"outputs":[{"name":"amount","type":"uint256","internalType":"uint256"}],"stateMutability":"nonpayable"},{"type":"function","name":"executeLeverageChange","inputs":[],"outputs":[],"stateMutability":"nonpayable"},{"type":"function","name":"executeStrategyChange","inputs":[],"outputs":[],"stateMutability":"nonpayable"},{"type":"function","name":"feeRecipient","inputs":[],"outputs":[{"name":"","type":"address","internalType":"address"}],"stateMutability":"view"},{"type":"function","name":"fundReserve","inputs":[{"name":"amount","type":"uint256","internalType":"uint256"}],"outputs":[],"stateMutability":"nonpayable"},{"type":"function","name":"gbpbToken","inputs":[],"outputs":[{"name":"","type":"address","internalType":"contract GBPb"}],"stateMutability":"view"},{"type":"function","name":"getHarvestStats","inputs":[],"outputs":[{"name":"lastHarvest","type":"uint256","internalType":"uint256"},{"name":"totalDistributed","type":"uint256","internalType":"uint256"},{"name":"pendingYield","type":"uint256","internalType":"uint256"},{"name":"nextHarvestEligible","type":"uint256","internalType":"uint256"}],"stateMutability":"nonpayable"},{"type":"function","name":"getHealthStatus","inputs":[],"outputs":[{"name":"healthFactor","type":"uint256","internalType":"uint256"},{"name":"needsRebalance","type":"bool","internalType":"bool"},{"name":"perpPnL","type":"int256","internalType":"int256"},{"name":"estimatedLoss","type":"uint256","internalType":"uint256"},{"name":"currentTVL","type":"uint256","internalType":"uint256"}],"stateMutability":"view"},{"type":"function","name":"getMarginDeficitStatus","inputs":[],"outputs":[{"name":"isDeficit","type":"bool","internalType":"bool"},{"name":"consecutiveDays","type":"uint256","internalType":"uint256"},{"name":"requiresIntervention","type":"bool","internalType":"bool"},{"name":"currentDeficit","type":"uint256","internalType":"uint256"}],"stateMutability":"view"},{"type":"function","name":"getPerpMarginStats","inputs":[],"outputs":[{"name":"lastSnapshot","type":"uint256","internalType":"uint256"},{"name":"currentCollateral","type":"uint256","internalType":"uint256"},{"name":"marginSinceLastHarvest","type":"uint256","internalType":"uint256"}],"stateMutability":"view"},{"type":"function","name":"getReserveAccounting","inputs":[],"outputs":[{"name":"currentReserve","type":"uint256","internalType":"uint256"},{"name":"minReserve","type":"uint256","internalType":"uint256"},{"name":"openingFeesPaid","type":"uint256","internalType":"uint256"},{"name":"redemptionFeesCollected","type":"uint256","internalType":"uint256"},{"name":"netRevenue","type":"int256","internalType":"int256"},{"name":"yieldCurrentlyBorrowed","type":"uint256","internalType":"uint256"},{"name":"totalContributed","type":"uint256","internalType":"uint256"}],"stateMutability":"view"},{"type":"function","name":"globalOperationCooldown","inputs":[],"outputs":[{"name":"","type":"uint256","internalType":"uint256"}],"stateMutability":"view"},{"type":"function","name":"harvestYield","inputs":[],"outputs":[{"name":"gbpbMinted","type":"uint256","internalType":"uint256"}],"stateMutability":"nonpayable"},{"type":"function","name":"isApproachingWeekend","inputs":[],"outputs":[{"name":"approaching","type":"bool","internalType":"bool"}],"stateMutability":"view"},{"type":"function","name":"isReserveHealthy","inputs":[],"outputs":[{"name":"","type":"bool","internalType":"bool"}],"stateMutability":"view"},{"type":"function","name":"isWeekend","inputs":[],"outputs":[{"name":"closed","type":"bool","internalType":"bool"}],"stateMutability":"view"},{"type":"function","name":"lastDeficitCheckTimestamp","inputs":[],"outputs":[{"name":"","type":"uint256","internalType":"uint256"}],"stateMutability":"view"},{"type":"function","name":"lastGBPbPrice","inputs":[],"outputs":[{"name":"","type":"uint256","internalType":"uint256"}],"stateMutability":"view"},{"type":"function","name":"lastGlobalOperation","inputs":[],"outputs":[{"name":"","type":"uint256","internalType":"uint256"}],"stateMutability":"view"},{"type":"function","name":"lastHarvestTimestamp","inputs":[],"outputs":[{"name":"","type":"uint256","internalType":"uint256"}],"stateMutability":"view"},{"type":"function","name":"lastMintTime","inputs":[{"name":"","type":"address","internalType":"address"}],"outputs":[{"name":"","type":"uint256","internalType":"uint256"}],"stateMutability":"view"},{"type":"function","name":"lastMorphoAssets","inputs":[],"outputs":[{"name":"","type":"uint256","internalType":"uint256"}],"stateMutability":"view"},{"type":"function","name":"lastPerpCollateral","inputs":[],"outputs":[{"name":"","type":"uint256","internalType":"uint256"}],"stateMutability":"view"},{"type":"function","name":"lastPriceUpdate","inputs":[],"outputs":[{"name":"","type":"uint256","internalType":"uint256"}],"stateMutability":"view"},{"type":"function","name":"lastUserOperation","inputs":[{"name":"","type":"address","internalType":"address"}],"outputs":[{"name":"","type":"uint256","internalType":"uint256"}],"stateMutability":"view"},{"type":"function","name":"leverageChangeTimestamp","inputs":[],"outputs":[{"name":"","type":"uint256","internalType":"uint256"}],"stateMutability":"view"},{"type":"function","name":"maxYieldBorrowed","inputs":[],"outputs":[{"name":"","type":"uint256","internalType":"uint256"}],"stateMutability":"view"},{"type":"function","name":"minHarvestAmount","inputs":[],"outputs":[{"name":"","type":"uint256","internalType":"uint256"}],"stateMutability":"view"},{"type":"function","name":"minHarvestInterval","inputs":[],"outputs":[{"name":"","type":"uint256","internalType":"uint256"}],"stateMutability":"view"},{"type":"function","name":"minReserveBalance","inputs":[],"outputs":[{"name":"","type":"uint256","internalType":"uint256"}],"stateMutability":"view"},{"type":"function","name":"mint","inputs":[{"name":"usdcAmount","type":"uint256","internalType":"uint256"},{"name":"minGbpAmount","type":"uint256","internalType":"uint256"}],"outputs":[{"name":"gbpAmount","type":"uint256","internalType":"uint256"}],"stateMutability":"nonpayable"},{"type":"function","name":"oracle","inputs":[],"outputs":[{"name":"","type":"address","internalType":"contract ChainlinkOracle"}],"stateMutability":"view"},{"type":"function","name":"owner","inputs":[],"outputs":[{"name":"","type":"address","internalType":"address"}],"stateMutability":"view"},{"type":"function","name":"pause","inputs":[],"outputs":[],"stateMutability":"nonpayable"},{"type":"function","name":"paused","inputs":[],"outputs":[{"name":"","type":"bool","internalType":"bool"}],"stateMutability":"view"},{"type":"function","name":"pendingDeposits","inputs":[],"outputs":[{"name":"","type":"uint256","internalType":"uint256"}],"stateMutability":"view"},{"type":"function","name":"pendingOwner","inputs":[],"outputs":[{"name":"","type":"address","internalType":"address"}],"stateMutability":"view"},{"type":"function","name":"perpManager","inputs":[],"outputs":[{"name":"","type":"address","internalType":"contract PerpPositionManager"}],"stateMutability":"view"},{"type":"function","name":"priceHistory","inputs":[{"name":"","type":"uint256","internalType":"uint256"}],"outputs":[{"name":"","type":"uint256","internalType":"uint256"}],"stateMutability":"view"},{"type":"function","name":"priceHistoryIndex","inputs":[],"outputs":[{"name":"","type":"uint256","internalType":"uint256"}],"stateMutability":"view"},{"type":"function","name":"proposeLeverageChange","inputs":[{"name":"newLeverage","type":"uint256","internalType":"uint256"}],"outputs":[],"stateMutability":"nonpayable"},{"type":"function","name":"proposeStrategyChange","inputs":[{"name":"newStrategy","type":"address","internalType":"address"}],"outputs":[],"stateMutability":"nonpayable"},{"type":"function","name":"proposedLeverage","inputs":[],"outputs":[{"name":"","type":"uint256","internalType":"uint256"}],"stateMutability":"view"},{"type":"function","name":"proposedStrategy","inputs":[],"outputs":[{"name":"","type":"address","internalType":"address"}],"stateMutability":"view"},{"type":"function","name":"rebalancePerp","inputs":[{"name":"minTVLAfterRebalance","type":"uint256","internalType":"uint256"},{"name":"force","type":"bool","internalType":"bool"}],"outputs":[],"stateMutability":"nonpayable"},{"type":"function","name":"redeem","inputs":[{"name":"gbpAmount","type":"uint256","internalType":"uint256"}],"outputs":[{"name":"usdcAmount","type":"uint256","internalType":"uint256"}],"stateMutability":"nonpayable"},{"type":"function","name":"renounceOwnership","inputs":[],"outputs":[],"stateMutability":"nonpayable"},{"type":"function","name":"reserveBalance","inputs":[],"outputs":[{"name":"","type":"uint256","internalType":"uint256"}],"stateMutability":"view"},{"type":"function","name":"reserveContributions","inputs":[{"name":"","type":"address","internalType":"address"}],"outputs":[{"name":"","type":"uint256","internalType":"uint256"}],"stateMutability":"view"},{"type":"function","name":"sGBPbVault","inputs":[],"outputs":[{"name":"","type":"address","internalType":"address"}],"stateMutability":"view"},{"type":"function","name":"setActiveStrategy","inputs":[{"name":"_strategy","type":"address","internalType":"address"}],"outputs":[],"stateMutability":"nonpayable"},{"type":"function","name":"setFeeRecipient","inputs":[{"name":"_feeRecipient","type":"address","internalType":"address"}],"outputs":[],"stateMutability":"nonpayable"},{"type":"function","name":"setHarvestConfig","inputs":[{"name":"_minInterval","type":"uint256","internalType":"uint256"},{"name":"_minAmount","type":"uint256","internalType":"uint256"}],"outputs":[],"stateMutability":"nonpayable"},{"type":"function","name":"setMaxYieldBorrowed","inputs":[{"name":"_maxYieldBorrowed","type":"uint256","internalType":"uint256"}],"outputs":[],"stateMutability":"nonpayable"},{"type":"function","name":"setMinReserveBalance","inputs":[{"name":"_minReserve","type":"uint256","internalType":"uint256"}],"outputs":[],"stateMutability":"nonpayable"},{"type":"function","name":"setPerpManager","inputs":[{"name":"_perpManager","type":"address","internalType":"address"}],"outputs":[],"stateMutability":"nonpayable"},{"type":"function","name":"setSGBPbVault","inputs":[{"name":"_sGBPbVault","type":"address","internalType":"address"}],"outputs":[],"stateMutability":"nonpayable"},{"type":"function","name":"setTVLCap","inputs":[{"name":"newCap","type":"uint256","internalType":"uint256"}],"outputs":[],"stateMutability":"nonpayable"},{"type":"function","name":"setUserOperationCooldown","inputs":[{"name":"newCooldown","type":"uint256","internalType":"uint256"}],"outputs":[],"stateMutability":"nonpayable"},{"type":"function","name":"setWeekendCheckEnabled","inputs":[{"name":"enabled","type":"bool","internalType":"bool"}],"outputs":[],"stateMutability":"nonpayable"},{"type":"function","name":"setWeekendTimes","inputs":[{"name":"closeTime","type":"uint256","internalType":"uint256"},{"name":"openTime","type":"uint256","internalType":"uint256"}],"outputs":[],"stateMutability":"nonpayable"},{"type":"function","name":"strategyChangeTimestamp","inputs":[],"outputs":[{"name":"","type":"uint256","internalType":"uint256"}],"stateMutability":"view"},{"type":"function","name":"targetLeverage","inputs":[],"outputs":[{"name":"","type":"uint256","internalType":"uint256"}],"stateMutability":"view"},{"type":"function","name":"totalAssets","inputs":[],"outputs":[{"name":"","type":"uint256","internalType":"uint256"}],"stateMutability":"view"},{"type":"function","name":"totalGBPbValue","inputs":[],"outputs":[{"name":"","type":"uint256","internalType":"uint256"}],"stateMutability":"view"},{"type":"function","name":"totalOpeningFeesPaid","inputs":[],"outputs":[{"name":"","type":"uint256","internalType":"uint256"}],"stateMutability":"view"},{"type":"function","name":"totalRealizedPnL","inputs":[],"outputs":[{"name":"","type":"int256","internalType":"int256"}],"stateMutability":"view"},{"type":"function","name":"totalRedemptionFeesCollected","inputs":[],"outputs":[{"name":"","type":"uint256","internalType":"uint256"}],"stateMutability":"view"},{"type":"function","name":"totalReserveContributions","inputs":[],"outputs":[{"name":"","type":"uint256","internalType":"uint256"}],"stateMutability":"view"},{"type":"function","name":"totalYieldDistributed","inputs":[],"outputs":[{"name":"","type":"uint256","internalType":"uint256"}],"stateMutability":"view"},{"type":"function","name":"transferOwnership","inputs":[{"name":"newOwner","type":"address","internalType":"address"}],"outputs":[],"stateMutability":"nonpayable"},{"type":"function","name":"tvlCap","inputs":[],"outputs":[{"name":"","type":"uint256","internalType":"uint256"}],"stateMutability":"view"},{"type":"function","name":"tvlCapBufferBPS","inputs":[],"outputs":[{"name":"","type":"uint256","internalType":"uint256"}],"stateMutability":"view"},{"type":"function","name":"unpause","inputs":[],"outputs":[],"stateMutability":"nonpayable"},{"type":"function","name":"updateLastPrice","inputs":[],"outputs":[],"stateMutability":"nonpayable"},{"type":"function","name":"usdc","inputs":[],"outputs":[{"name":"","type":"address","internalType":"contract IERC20"}],"stateMutability":"view"},{"type":"function","name":"userOperationCooldown","inputs":[],"outputs":[{"name":"","type":"uint256","internalType":"uint256"}],"stateMutability":"view"},{"type":"function","name":"verifyGBPbBacking","inputs":[],"outputs":[{"name":"isBackedProperly","type":"bool","internalType":"bool"},{"name":"backingRatioBPS","type":"uint256","internalType":"uint256"},{"name":"totalBackingUSDC","type":"uint256","internalType":"uint256"},{"name":"totalGBPbValueUSDC","type":"uint256","internalType":"uint256"}],"stateMutability":"view"},{"type":"function","name":"weekendCheckEnabled","inputs":[],"outputs":[{"name":"","type":"bool","internalType":"bool"}],"stateMutability":"view"},{"type":"function","name":"weekendCloseTime","inputs":[],"outputs":[{"name":"","type":"uint256","internalType":"uint256"}],"stateMutability":"view"},{"type":"function","name":"weekendOpenTime","inputs":[],"outputs":[{"name":"","type":"uint256","internalType":"uint256"}],"stateMutability":"view"},{"type":"function","name":"withdrawReserveContribution","inputs":[],"outputs":[{"name":"withdrawn","type":"uint256","internalType":"uint256"}],"stateMutability":"nonpayable"},{"type":"function","name":"yieldBorrowed","inputs":[],"outputs":[{"name":"","type":"uint256","internalType":"uint256"}],"stateMutability":"view"},{"type":"event","name":"ConsecutiveDeficitDays","inputs":[{"name":"dayCount","type":"uint256","indexed":false,"internalType":"uint256"},{"name":"totalDeficit","type":"uint256","indexed":false,"internalType":"uint256"}],"anonymous":false},{"type":"event","name":"EmergencyWithdrawal","inputs":[{"name":"strategy","type":"address","indexed":true,"internalType":"address"},{"name":"amount","type":"uint256","indexed":false,"internalType":"uint256"}],"anonymous":false},{"type":"event","name":"FeeCollected","inputs":[{"name":"user","type":"address","indexed":true,"internalType":"address"},{"name":"amount","type":"uint256","indexed":false,"internalType":"uint256"},{"name":"recipient","type":"address","indexed":true,"internalType":"address"}],"anonymous":false},{"type":"event","name":"FeeRecipientUpdated","inputs":[{"name":"oldRecipient","type":"address","indexed":true,"internalType":"address"},{"name":"newRecipient","type":"address","indexed":true,"internalType":"address"}],"anonymous":false},{"type":"event","name":"FounderRepaid","inputs":[{"name":"amount","type":"uint256","indexed":false,"internalType":"uint256"},{"name":"remainingDebt","type":"uint256","indexed":false,"internalType":"uint256"}],"anonymous":false},{"type":"event","name":"GlobalOperationRecorded","inputs":[{"name":"timestamp","type":"uint256","indexed":false,"internalType":"uint256"}],"anonymous":false},{"type":"event","name":"HarvestConfigUpdated","inputs":[{"name":"minInterval","type":"uint256","indexed":false,"internalType":"uint256"},{"name":"minAmount","type":"uint256","indexed":false,"internalType":"uint256"}],"anonymous":false},{"type":"event","name":"LeverageChangeProposed","inputs":[{"name":"currentLeverage","type":"uint256","indexed":false,"internalType":"uint256"},{"name":"proposedLeverage","type":"uint256","indexed":false,"internalType":"uint256"},{"name":"executeTime","type":"uint256","indexed":false,"internalType":"uint256"}],"anonymous":false},{"type":"event","name":"LeverageChanged","inputs":[{"name":"oldLeverage","type":"uint256","indexed":false,"internalType":"uint256"},{"name":"newLeverage","type":"uint256","indexed":false,"internalType":"uint256"}],"anonymous":false},{"type":"event","name":"LeverageProposalCancelled","inputs":[{"name":"cancelledLeverage","type":"uint256","indexed":false,"internalType":"uint256"}],"anonymous":false},{"type":"event","name":"LowReserveWarning","inputs":[{"name":"balance","type":"uint256","indexed":false,"internalType":"uint256"},{"name":"minRequired","type":"uint256","indexed":false,"internalType":"uint256"}],"anonymous":false},{"type":"event","name":"MarginDeficit","inputs":[{"name":"morphoYield","type":"uint256","indexed":false,"internalType":"uint256"},{"name":"marginCosts","type":"uint256","indexed":false,"internalType":"uint256"},{"name":"deficit","type":"uint256","indexed":false,"internalType":"uint256"}],"anonymous":false},{"type":"event","name":"MintTimeRecorded","inputs":[{"name":"user","type":"address","indexed":true,"internalType":"address"},{"name":"timestamp","type":"uint256","indexed":false,"internalType":"uint256"}],"anonymous":false},{"type":"event","name":"Minted","inputs":[{"name":"user","type":"address","indexed":true,"internalType":"address"},{"name":"usdcAmount","type":"uint256","indexed":false,"internalType":"uint256"},{"name":"gbpAmount","type":"uint256","indexed":false,"internalType":"uint256"}],"anonymous":false},{"type":"event","name":"OpeningFeePaid","inputs":[{"name":"amount","type":"uint256","indexed":false,"internalType":"uint256"},{"name":"reserveAfter","type":"uint256","indexed":false,"internalType":"uint256"}],"anonymous":false},{"type":"event","name":"OwnershipTransferStarted","inputs":[{"name":"previousOwner","type":"address","indexed":true,"internalType":"address"},{"name":"newOwner","type":"address","indexed":true,"internalType":"address"}],"anonymous":false},{"type":"event","name":"OwnershipTransferred","inputs":[{"name":"previousOwner","type":"address","indexed":true,"internalType":"address"},{"name":"newOwner","type":"address","indexed":true,"internalType":"address"}],"anonymous":false},{"type":"event","name":"Paused","inputs":[{"name":"account","type":"address","indexed":false,"internalType":"address"}],"anonymous":false},{"type":"event","name":"PriceSanityCheckFailed","inputs":[{"name":"lastPrice","type":"uint256","indexed":false,"internalType":"uint256"},{"name":"newPrice","type":"uint256","indexed":false,"internalType":"uint256"},{"name":"change","type":"uint256","indexed":false,"internalType":"uint256"}],"anonymous":false},{"type":"event","name":"RealizedPnL","inputs":[{"name":"amount","type":"int256","indexed":false,"internalType":"int256"},{"name":"cumulative","type":"int256","indexed":false,"internalType":"int256"}],"anonymous":false},{"type":"event","name":"RebalanceExecuted","inputs":[{"name":"healthBefore","type":"uint256","indexed":false,"internalType":"uint256"},{"name":"perpPnL","type":"int256","indexed":false,"internalType":"int256"},{"name":"oldTVL","type":"uint256","indexed":false,"internalType":"uint256"},{"name":"newTVL","type":"uint256","indexed":false,"internalType":"uint256"},{"name":"lossRealized","type":"uint256","indexed":false,"internalType":"uint256"}],"anonymous":false},{"type":"event","name":"RebalanceRequired","inputs":[{"name":"healthFactor","type":"uint256","indexed":false,"internalType":"uint256"},{"name":"perpPnL","type":"int256","indexed":false,"internalType":"int256"},{"name":"estimatedLoss","type":"uint256","indexed":false,"internalType":"uint256"}],"anonymous":false},{"type":"event","name":"Redeemed","inputs":[{"name":"user","type":"address","indexed":true,"internalType":"address"},{"name":"gbpAmount","type":"uint256","indexed":false,"internalType":"uint256"},{"name":"usdcAmount","type":"uint256","indexed":false,"internalType":"uint256"}],"anonymous":false},{"type":"event","name":"ReserveFunded","inputs":[{"name":"funder","type":"address","indexed":true,"internalType":"address"},{"name":"amount","type":"uint256","indexed":false,"internalType":"uint256"}],"anonymous":false},{"type":"event","name":"SGBPbVaultUpdated","inputs":[{"name":"oldVault","type":"address","indexed":true,"internalType":"address"},{"name":"newVault","type":"address","indexed":true,"internalType":"address"}],"anonymous":false},{"type":"event","name":"StrategyChangeProposed","inputs":[{"name":"newStrategy","type":"address","indexed":true,"internalType":"address"},{"name":"executeTime","type":"uint256","indexed":false,"internalType":"uint256"}],"anonymous":false},{"type":"event","name":"StrategyChanged","inputs":[{"name":"oldStrategy","type":"address","indexed":true,"internalType":"address"},{"name":"newStrategy","type":"address","indexed":true,"internalType":"address"}],"anonymous":false},{"type":"event","name":"TVLCapUpdated","inputs":[{"name":"oldCap","type":"uint256","indexed":false,"internalType":"uint256"},{"name":"newCap","type":"uint256","indexed":false,"internalType":"uint256"}],"anonymous":false},{"type":"event","name":"Unpaused","inputs":[{"name":"account","type":"address","indexed":false,"internalType":"address"}],"anonymous":false},{"type":"event","name":"UserOperationRecorded","inputs":[{"name":"user","type":"address","indexed":true,"internalType":"address"},{"name":"timestamp","type":"uint256","indexed":false,"internalType":"uint256"}],"anonymous":false},{"type":"event","name":"WeekendHealthCheck","inputs":[{"name":"healthFactor","type":"uint256","indexed":false,"internalType":"uint256"},{"name":"safe","type":"bool","indexed":false,"internalType":"bool"},{"name":"hoursUntilClose","type":"uint256","indexed":false,"internalType":"uint256"}],"anonymous":false},{"type":"event","name":"WeekendTimesUpdated","inputs":[{"name":"closeTime","type":"uint256","indexed":false,"internalType":"uint256"},{"name":"openTime","type":"uint256","indexed":false,"internalType":"uint256"}],"anonymous":false},{"type":"event","name":"YieldAccumulated","inputs":[{"name":"amount","type":"uint256","indexed":false,"internalType":"uint256"},{"name":"totalAccumulated","type":"uint256","indexed":false,"internalType":"uint256"}],"anonymous":false},{"type":"event","name":"YieldBorrowed","inputs":[{"name":"amount","type":"uint256","indexed":false,"internalType":"uint256"},{"name":"totalBorrowed","type":"uint256","indexed":false,"internalType":"uint256"}],"anonymous":false},{"type":"event","name":"YieldHarvested","inputs":[{"name":"usdcAmount","type":"uint256","indexed":false,"internalType":"uint256"},{"name":"gbpbMinted","type":"uint256","indexed":false,"internalType":"uint256"},{"name":"netYield","type":"uint256","indexed":false,"internalType":"uint256"}],"anonymous":false},{"type":"event","name":"YieldRepaid","inputs":[{"name":"amount","type":"uint256","indexed":false,"internalType":"uint256"},{"name":"remainingDebt","type":"uint256","indexed":false,"internalType":"uint256"}],"anonymous":false},{"type":"error","name":"BelowMinimumMint","inputs":[]},{"type":"error","name":"EnforcedPause","inputs":[]},{"type":"error","name":"ExpectedPause","inputs":[]},{"type":"error","name":"GlobalRateLimitActive","inputs":[]},{"type":"error","name":"HealthTooHigh","inputs":[]},{"type":"error","name":"InsufficientLiquidity","inputs":[]},{"type":"error","name":"InsufficientReserve","inputs":[]},{"type":"error","name":"MinimumHoldTimeNotMet","inputs":[]},{"type":"error","name":"NoActivePosition","inputs":[]},{"type":"error","name":"NoStrategyProposed","inputs":[]},{"type":"error","name":"OstiumMarketClosed","inputs":[]},{"type":"error","name":"OwnableInvalidOwner","inputs":[{"name":"owner","type":"address","internalType":"address"}]},{"type":"error","name":"OwnableUnauthorizedAccount","inputs":[{"name":"account","type":"address","internalType":"address"}]},{"type":"error","name":"PerpLossTooHigh","inputs":[]},{"type":"error","name":"PriceChangeTooLarge","inputs":[]},{"type":"error","name":"RateLimitActive","inputs":[]},{"type":"error","name":"RebalanceNotNeeded","inputs":[]},{"type":"error","name":"ReentrancyGuardReentrantCall","inputs":[]},{"type":"error","name":"SafeERC20FailedOperation","inputs":[{"name":"token","type":"address","internalType":"address"}]},{"type":"error","name":"SlippageExceeded","inputs":[]},{"type":"error","name":"TVLCapExceeded","inputs":[]},{"type":"error","name":"TimelockNotExpired","inputs":[]},{"type":"error","name":"UnreasonableConversion","inputs":[]},{"type":"error","name":"UnsafeForWeekend","inputs":[]},{"type":"error","name":"ZeroAddress","inputs":[]},{"type":"error","name":"ZeroAmount","inputs":[]}],"bytecode":{"object":"0x60c0604081815234620002bc576080826200531d8038038091620000248285620002c0565b833981010312620002bc576200003a82620002f8565b916200004960208201620002f8565b906200006560606200005d858401620002f8565b9201620002f8565b916001600160a01b0380841692908315620002a55760018060a01b0319928360015416600155815f9889549680878916178b55828a5198167f8be0079c531659141344cd1fd0a4f28419497f9722a3daafe3b4186f6b6457e08c80a3600160025560ff1960035416600355169485156200029657508116918215620002855716928315620002745760805260a05260058054909116821781556509184e72a0006006556101f4600755603c600955600a600c55602855825163fefe46f160e01b815290602090829060049082905afa9081156200026757849162000226575b50600d55603a80546305f5e100603c55633b9aca00845561a8c06036556298968060375542602e5562067b6060385562091e606039556001600160a81b03191660089290921b610100600160a81b03169190911760011790555161500f90816200030e8239608051818181610ada01528181610bcd01528181611a2f01528181611d5f015281816122400152818161278b0152818161312a01528181613d9601528181613e500152818161411a01528181614211015261495a015260a05181818161086301528181610936015281816129b10152818161470b0152614f2d0152f35b90506020813d82116200025e575b816200024360209383620002c0565b810103126200025a57600192935051839262000144565b8380fd5b3d915062000234565b50505051903d90823e3d90fd5b855163d92e233d60e01b8152600490fd5b865163d92e233d60e01b8152600490fd5b63d92e233d60e01b8152600490fd5b8551631e4fbdf760e01b81525f6004820152602490fd5b5f80fd5b601f909101601f19168101906001600160401b03821190821017620002e457604052565b634e487b7160e01b5f52604160045260245ffd5b51906001600160a01b0382168203620002bc5756fe60406080815260049081361015610014575f80fd5b5f91823560e01c908162f156761461332657816301e1d114146133095781630e1c5f3e146130455781630e4739fe146130275781631064ac1514612fa45781631363ca5f14612f9f578163143cbba214612f805781631638f97114612de557816316adfd6a14612dc65781631719f0a014612d8f5781631801e15614612d535781631b2ef1ca146125e15781632257a738146125c257816323fd6eeb146125a3578163257f3f451461251057816327d9ad65146123e857816327f5a427146123b157816329a5ba541461239257816332ec37e31461235b578163368dbba81461233d5781633713b5d1146122e857816337cf6612146122c957816338fd6bdb146122ad5781633a777eab1461228e5781633aac77ee1461226f5781633e413bee1461222b5781633f23fa1a1461220c5781633f4ba83a146121a25781633fb0826f1461216857816340d523e21461214957816343b396041461212d57816346904840146121005781634c170d01146120a75781635a67705b146120825781635afc1403146120635781635b596c9b1461201b5781635c074f4414611ffc5781635c975abb14611fd85781635e09cd9e14611ec75781635e235c8214611eaa5781635e61e81414611e815781635f8247cd14611cc35781635fc4406e14611c65578163608616e914611c2b5781636187055314611c0c57816361eaa2d214611bed5781636949faeb14611bce5781636a2f794114611baf5781636aa71d1814611b755781636e28111714611b5757816370a9b57414611b1b578163715018a614611ab657816375c5422414611a1257816379ba50971461198b5781637cb14a991461189d5781637d84964f1461187b5781637dc0d1d0146118525781638248bb461461170e5781638456cb59146116b35781638926b735146116965781638b845200146115e45781638c9c0b54146115c55781638da5cb5b1461159d5781638edc40da1461157e578163938052e01461155557816394bad40a146114b857816397206bd51461149957816397a8522a14611384578163995785341461135c5781639d8d81ed14611279578163a10954fe1461125a578163a4692af414611236578163a490c84414611217578163ad574248146111f8578163b0fea764146111d6578163b27a0484146111aa578163b65d1ea81461118d578163b896368114611170578163b8e772dd14611117578163bcfcfc73146110f8578163beb2166a146110d9578163bf938ab714611004578163c714d0f714610fe9578163ca419ff314610eb3578163cade57a014610e94578163cd3c425514610e67578163d56926a014610e48578163d6c946ea14610e29578163db006a75146108dc578163e0899e5e146108bb578163e30c397814610892578163e41a449e1461084e578163e6fe5c01146106fd578163e74b981b14610664578163e8d991d11461062b578163ebe473ae1461060c578163f2fde38b1461059d57508063f646859d14610581578063f87879611461055c578063fb4af4d11461053e578063fcdfd5c514610520578063fce04ce914610502578063fd75f71f146104e4578063fe9f9837146104c15763ffcd0088146104a2575f80fd5b346104bd57816003193601126104bd57602090516107d08152f35b5080fd5b50346104bd57816003193601126104bd576020906104dd614cab565b9051908152f35b50346104bd57816003193601126104bd576020906042549051908152f35b50346104bd57816003193601126104bd57602090603c549051908152f35b50346104bd57816003193601126104bd576020906034549051908152f35b50346104bd57816003193601126104bd57602090603d549051908152f35b50346104bd57816003193601126104bd576020906105786133ee565b90519015158152f35b50346104bd57816003193601126104bd57602090516113888152f35b8390346104bd5760203660031901126104bd57356001600160a01b0381811691829003610608576105cc613359565b600180546001600160a01b031916831790558254167f38d16b8cac22d99fc7c124b9cd0de2d3fa1faef420bfe791d8c362d765e227008380a380f35b8280fd5b5050346104bd57816003193601126104bd576020906009549051908152f35b5050346104bd57816003193601126104bd5760209061064861379c565b61065061377e565b6106586145a2565b90600160025551908152f35b9050346106085760203660031901126106085780356001600160a01b03818116939092908483036106f957610697613359565b84156106ec575050603a8054610100600160a81b03198116600893841b610100600160a81b031617909155901c167faaebcf1bfa00580e41d966056b48521fa9f202645c86d4ddf28113e617c1b1d38380a380f35b5163d92e233d60e01b8152fd5b8580fd5b919050346106085760208060031936011261084a5761071a613359565b61072261379c565b61072a61377e565b6107326133a5565b61083c5782546001600160a01b031690811561082d57825163a5f352b760e01b81529181838681845afa928315610823579085929187946107ef575b508190855196878092630b75294d60e21b82525afa9384156107e6575085936107b0575b506107a8935035916107a26139eb565b91613d41565b600160025580f35b90925083813d83116107df575b6107c78183613458565b810103126107db576107a89251915f610792565b5f80fd5b503d6107bd565b513d87823e3d90fd5b82809295508194503d831161081c575b6108098183613458565b810103126107db5780859251939061076e565b503d6107ff565b84513d88823e3d90fd5b505051630cf2fcaf60e21b8152fd5b50516367bc0eaf60e01b8152fd5b8380fd5b5050346104bd57816003193601126104bd57517f00000000000000000000000000000000000000000000000000000000000000006001600160a01b03168152602090f35b5050346104bd57816003193601126104bd5760015490516001600160a01b039091168152602090f35b905034610608576020366003190112610608576108d6613359565b35905580f35b919050346106085760209283600319360112610e26578235906108fd61379c565b61090561377e565b8115610e17576109136133a5565b610e0857825163b3cdb0dd60e01b815233818601526024946001600160a01b03917f000000000000000000000000000000000000000000000000000000000000000083169088818981855afa908115610dfe578591610dd1575b50620151808101809111610dbf574210610db057803b1561084a57855163079cc67960e41b815233838201908152602081018790529091859183919082908490829060400103925af18015610da657908491610d92575b50506109cf84613b59565b92611f408085029480159181870414821715610d8057612710809604916107d0808302928304141715610d805790858392048a868b6003548c519687938492632e1a7d4d60e01b8452888c85015260081c165af1928315610d76578493610d47575b506126ac9182810290808204841490151715610d35578790048310610d2557908392918b878754168c8c51809781936330897f1760e11b8352868c8401525af1938415610d1b578594610cec575b50818102918183041490151715610cda578690048210610cca57610ac1610aaa8b93610ac893613384565b96610ab488613836565b9060148909151590613384565b80966133e1565b9785610b38575b50878787610afe83337f00000000000000000000000000000000000000000000000000000000000000006139af565b815190815282848201527ff3a670cd3af7d64b488926880889d08a8585a138ff455227af6737339a1ec262823392a2600160025551908152f35b8590610b4687603e54613384565b603e558391898593603f549283610ca6575b80610c9e575b5080610c5d575b50505081610bb0575b5050505050603a5460081c169083519081527f36119f4f28ae3384ed31589f21ec2992cb0ebe53b11c79a24466ee74471764ed863392a35f8080808781610acf565b610bbc82603b54613384565b603b55610bf1828760035460081c167f000000000000000000000000000000000000000000000000000000000000000061362d565b8560035460081c1694848a51968794859363b6b55f2560e01b85528401525af1908115610c525750908791610c29575b818180610b6e565b813d8311610c4b575b610c3c8183613458565b810103126107db57855f610c21565b503d610c32565b8651903d90823e3d90fd5b610c88817fc603bf408da9dcdca1fdfd9f1947655cf7a6e2df5fbcb5ae439ea6edc596d194946133e1565b80603f55825191825286820152a15f8981610b65565b94505f610b5e565b50505080881115610cc35789815b610cbe818b6133e1565b610b58565b8988610cb4565b875163bb55fd2760e01b81528490fd5b634e487b7160e01b8452601185528984fd5b9093508b81813d8311610d14575b610d048183613458565b810103126107db5751925f610a7f565b503d610cfa565b8a513d87823e3d90fd5b885163bb55fd2760e01b81528590fd5b634e487b7160e01b8552601186528a85fd5b9092508a81813d8311610d6f575b610d5f8183613458565b810103126107db5751915f610a31565b503d610d55565b89513d86823e3d90fd5b634e487b7160e01b8352601184528883fd5b610d9b90613430565b61060857825f6109c4565b86513d86823e3d90fd5b508451635ac3233f60e11b8152fd5b634e487b7160e01b8552601183528785fd5b90508881813d8311610df7575b610de88183613458565b810103126107db57515f61096d565b503d610dde565b87513d87823e3d90fd5b5050516367bc0eaf60e01b8152fd5b505051631f2a200560e01b8152fd5b80fd5b5050346104bd57816003193601126104bd576020906028549051908152f35b5050346104bd57816003193601126104bd576020905163077359408152f35b5050346104bd57816003193601126104bd57600354905160089190911c6001600160a01b03168152602090f35b5050346104bd57816003193601126104bd57602090600d549051908152f35b8383346104bd57610ec336613343565b93610ecc613359565b62093a8080831015610fa657851015610f6357848214610f2057507f37338d36de7f993a0a52ba6cd79999677a6b67ad7a91d3c92c919eec9761a4989293816038558060395582519182526020820152a180f35b606490602084519162461bcd60e51b8352820152601760248201527f54696d6573206d75737420626520646966666572656e740000000000000000006044820152fd5b606490602084519162461bcd60e51b8352820152601d60248201527f4f70656e2074696d65206d7573742062652077697468696e207765656b0000006044820152fd5b835162461bcd60e51b8152602081840152601e60248201527f436c6f73652074696d65206d7573742062652077697468696e207765656b00006044820152606490fd5b5050346104bd57816003193601126104bd5751908152602090f35b90503461060857826003193601126106085760305481549092906001600160a01b031680156110cd57602090825193848092634971b00d60e11b82525afa80156110c3578490611090575b6110869250935b8484111561108a575061106984846133e1565b905b51938493846040919493926060820195825260208201520152565b0390f35b9061106b565b506020823d82116110bb575b816110a960209383613458565b810103126107db57611086915161104f565b3d915061109c565b81513d86823e3d90fd5b50611086915083611056565b5050346104bd57816003193601126104bd57602090602f549051908152f35b5050346104bd57816003193601126104bd576020906037549051908152f35b5050346104bd57816003193601126104bd5760e090603b5490603c5490603d54603e546111448282613d29565b91603f549360425495815197885260208801528601526060850152608084015260a083015260c0820152f35b5050346104bd57816003193601126104bd576020906105786133a5565b5050346104bd57816003193601126104bd57602090516103e88152f35b905034610608576020366003190112610608573560188110156106085760209250600e01549051908152f35b8390346104bd5760203660031901126104bd576111f1613359565b3560095580f35b5050346104bd57816003193601126104bd576020906031549051908152f35b5050346104bd57816003193601126104bd57602090602a549051908152f35b5050346104bd57816003193601126104bd5760209060ff603a541690519015158152f35b5050346104bd57816003193601126104bd57602090603b549051908152f35b905034610608578260031936011261060857611293613359565b602b5490811561132257602c5442106112e85750907f259a58656a5a02c7f9603b34624fdaba712e519d51f11b4b7726b1bcbc60add391602854908060285584602b5584602c5582519182526020820152a180f35b606490602084519162461bcd60e51b83528201526014602482015273151a5b595b1bd8dac81b9bdd08195e1c1a5c995960621b6044820152fd5b606490602084519162461bcd60e51b83528201526014602482015273139bc81b195d995c9859d9481c1c9bdc1bdcd95960621b6044820152fd5b9050346106085782600319360112610608575490516001600160a01b03909116815260209150f35b8383346104bd5761139436613343565b9361139d613359565b610e1082106114615762093a80821161142a57620f424085106113f457507fcc719c9034f4c40d7544644391ae315db58cd22ab988f2c88bf217a7e2e8d8769293816036558060375582519182526020820152a180f35b606490602084519162461bcd60e51b8352820152601060248201526f105b5bdd5b9d081d1bdbc81cdb585b1b60821b6044820152fd5b606490602084519162461bcd60e51b83528201526011602482015270496e74657276616c20746f6f206c6f6e6760781b6044820152fd5b606490602084519162461bcd60e51b83528201526012602482015271125b9d195c9d985b081d1bdbc81cda1bdc9d60721b6044820152fd5b5050346104bd57816003193601126104bd576020906035549051908152f35b9050346106085760203660031901126106085780356001600160a01b038116929083900361084a576114e8613359565b82156106ec57826001600160601b0360a01b6029541617602955620151804201918242116115425750816020917fcb75790a6cf11058a439edbee7fdac1f76bc6baa6892efd0d20f7d6e8bc76ba093602a5551908152a280f35b634e487b7160e01b855260119052602484fd5b5050346104bd57816003193601126104bd57602d5490516001600160a01b039091168152602090f35b5050346104bd57816003193601126104bd576020906033549051908152f35b5050346104bd57816003193601126104bd57905490516001600160a01b039091168152602090f35b5050346104bd57816003193601126104bd576020906026549051908152f35b91905034610608576020366003190112610608576001600160a01b0382358181169391929084900361169257611618613359565b831561165d575050602d54826001600160601b0360a01b821617602d55167f8362d45d11ea49d1842917a8659e94f033f2c62e669bd79594480b135ab5c1d78380a380f35b906020606492519162461bcd60e51b8352820152600f60248201526e496e76616c6964206164647265737360881b6044820152fd5b8480fd5b5050346104bd57816003193601126104bd5760209051611f408152f35b5050346104bd57816003193601126104bd5760207f62e78cea01bee320cd4e420270b5ea74000d11b0c9f74754ebdbfc544b05a258916116f1613359565b6116f961377e565b600160ff19600354161760035551338152a180f35b919050346106085780600319360112610608576024358015801582036107db57611736613359565b61173e61379c565b61174661377e565b61174e6133a5565b610e085783546001600160a01b0316801561184257835163a5f352b760e01b81529260209283858881865afa948515611838578895611809575b50806117fd575b6117ed57806117e1575b6117d15790808592855196878092630b75294d60e21b82525afa9384156107e6575085936107b057506107a8935035916107a26139eb565b50505051630104b64760e61b8152fd5b50612328831015611799565b8451635121f34360e01b81528690fd5b5061138884101561178f565b9094508381813d8311611831575b6118218183613458565b810103126107db5751935f611788565b503d611817565b86513d8a823e3d90fd5b50505051630cf2fcaf60e21b8152fd5b5050346104bd57816003193601126104bd5760055490516001600160a01b039091168152602090f35b8390346104bd5760203660031901126104bd57611896613359565b35603c5580f35b919050346106085782600319360112610608576118b8613359565b600554815163fefe46f160e01b81529260209184919082906001600160a01b03165afa91821561198157839261194e575b5081600d546118f88282613bde565b926103e8841161190b575b8583600d5580f35b51908152602081019190915260408101919091527f0dc3b67529b4590fdcd260f6c03ae80b8092f6e1be72f657d201432cc52f8ee290606090a15f818180611903565b9091506020813d8211611979575b8161196960209383613458565b810103126107db5751905f6118e9565b3d915061195c565b81513d85823e3d90fd5b91905034610608578260031936011261060857600154916001600160a01b039133838516036119fb5750506001600160601b0360a01b8092166001555f549133908316175f553391167f8be0079c531659141344cd1fd0a4f28419497f9722a3daafe3b4186f6b6457e05f80a380f35b60249250519063118cdaa760e01b82523390820152fd5b905034610608576020366003190112610608573590611a538230337f00000000000000000000000000000000000000000000000000000000000000006135d4565b611a5f82603b54613384565b603b553383526041602052808320611a78838254613384565b9055611a8682604254613384565b604255519081527fb52b99b9e83551fcbd069b559cc3e823e2a1a3bad8ece46561ea77524394c85060203392a280f35b8334610e265780600319360112610e2657611acf613359565b600180546001600160a01b03199081169091555f80549182168155906001600160a01b03167f8be0079c531659141344cd1fd0a4f28419497f9722a3daafe3b4186f6b6457e08280a380f35b5050346104bd57816003193601126104bd5761108690611b39613498565b92519115158252602082015260408101919091529081906060820190565b5050346104bd57816003193601126104bd5780602091549051908152f35b90503461060857602036600319011261060857356001600160a01b0381169081900361060857828291602094526043845220549051908152f35b5050346104bd57816003193601126104bd57602090600c549051908152f35b5050346104bd57816003193601126104bd576020906027549051908152f35b5050346104bd57816003193601126104bd576020906039549051908152f35b5050346104bd57816003193601126104bd576020906032549051908152f35b90503461060857602036600319011261060857356001600160a01b0381169081900361060857828291602094526041845220549051908152f35b905034610608576020366003190112610608578035916001600160a01b03831680840361169257611c94613359565b156106ec57505060038054610100600160a81b03191660089290921b610100600160a81b031691909117905580f35b905034610608578260031936011261060857611cdd613359565b6029546001600160a01b039190821615611e7357602a544210611e65576003549280519163429c145b60e11b8352602091828483818a8960089b8c1c165af1938415611e5b578794611e2c575b5060038054602954610100600160a81b0319821690891b610100600160a81b03161791829055948491611d839082908a1c89167f000000000000000000000000000000000000000000000000000000000000000061362d565b6024876003548a1c16948a8551968794859363b6b55f2560e01b85528401525af1908115611e235750611dfa575b50506001600160601b0360a01b6029541660295583602a5581600354841c16921c167f254c88e7a2ea123aeeb89b7cc413fb949188fefcdb7584c4f3d493294daf65c58380a380f35b813d8311611e1c575b611e0d8183613458565b810103126107db575f80611db1565b503d611e03565b513d88823e3d90fd5b9093508281813d8311611e54575b611e448183613458565b810103126107db5751925f611d2a565b503d611e3a565b81513d89823e3d90fd5b825163621e25c360e01b8152fd5b825163f4603e2560e01b8152fd5b5050346104bd57816003193601126104bd5760295490516001600160a01b039091168152602090f35b5050346104bd57816003193601126104bd5760209051611b588152f35b8383346104bd57816003193601126104bd57611ee1613359565b60035460ff811615611f96575b5060035481516336cb886f60e21b81526020946001600160a01b0392869183918290889060081c87165af1938415611f8b5793611f5c575b5060035460081c167f23d6711a1d031134a36921253c75aa59e967d38e369ac625992824315e204f20848351858152a251908152f35b9092508381813d8311611f84575b611f748183613458565b810103126107db57519184611f26565b503d611f6a565b8351903d90823e3d90fd5b600190611fa161377e565b60ff1916176003557f62e78cea01bee320cd4e420270b5ea74000d11b0c9f74754ebdbfc544b05a25860208251338152a183611eee565b5050346104bd57816003193601126104bd5760209060ff6003541690519015158152f35b5050346104bd57816003193601126104bd576020906008549051908152f35b5050346104bd57816003193601126104bd57602e5460355460809261203e614cab565b9061204e602e5460365490613384565b92815194855260208501528301526060820152f35b5050346104bd57816003193601126104bd57602090603e549051908152f35b5050346104bd57816003193601126104bd576020906104dd6120a26139eb565b613ae4565b919050346106085760203660031901126106085781356001600160a01b038116919082900361084a576120d8613359565b81156120f1575081546001600160a01b03191617905580f35b5163d92e233d60e01b81529050fd5b5050346104bd57816003193601126104bd57603a54905160089190911c6001600160a01b03168152602090f35b8334610e265780600319360112610e2657612146614404565b80f35b5050346104bd57816003193601126104bd576020906038549051908152f35b90503461060857602036600319011261060857356001600160a01b038116908190036106085782829160209452600a845220549051908152f35b9050346106085782600319360112610608576121bc613359565b6003549060ff8216156121fe575060ff1916600355513381527f5db9ee0a495bf2e6ff9c91a7834c1ba4fdd244a5e8aa4e537bd38aeae4b073aa90602090a180f35b8251638dfc202b60e01b8152fd5b5050346104bd57816003193601126104bd576020906006549051908152f35b5050346104bd57816003193601126104bd57517f00000000000000000000000000000000000000000000000000000000000000006001600160a01b03168152602090f35b5050346104bd57816003193601126104bd57602090603f549051908152f35b5050346104bd57816003193601126104bd576020906030549051908152f35b5050346104bd57816003193601126104bd576020905160148152f35b5050346104bd57816003193601126104bd57602090602b549051908152f35b91905034610608576020366003190112610608577fd9a6b1c154f0705d4e7699469d08d3bf40887b76ae2f73030e902c7a094e1e229135612327613359565b600654908060065582519182526020820152a180f35b5050346104bd57816003193601126104bd5760209051624c4b408152f35b5050346104bd57816003193601126104bd57608090612378614f10565b929390918151941515855260208501528301526060820152f35b5050346104bd57816003193601126104bd576020906007549051908152f35b8390346104bd5760203660031901126104bd57358015158091036107db576123d7613359565b60ff8019603a5416911617603a5580f35b8383346104bd5760203660031901126104bd57823590612406613359565b600282101580612505575b156124ca57602854908183146124885782602b556202a30042019081421161247557602c82905551918252602082019290925260408101919091527f9606eb08567715ee3f51c77178211ce5615a4ef3f173e4c9eb9655eb1487fa1890606090a180f35b634e487b7160e01b855260118652602485fd5b5162461bcd60e51b8152602081860152601860248201527f416c72656164792061742074686973206c6576657261676500000000000000006044820152606490fd5b5162461bcd60e51b81526020818501526016602482015275098caeccae4c2ceca40daeae6e840c4ca40645a6260f60531b6044820152606490fd5b50600a821115612411565b9190503461060857826003193601126106085761252b613359565b602b5491821561256b57507fdc0ffe53ad401cd83baefe1ac0cf06deef7925742cb442919c2b949e24e21e0b9160209184602b5584602c5551908152a180f35b6020606492519162461bcd60e51b83528201526013602482015272139bc81c195b991a5b99c81c1c9bdc1bdcd85b606a1b6044820152fd5b5050346104bd57816003193601126104bd576020906036549051908152f35b5050346104bd57816003193601126104bd57602090602e549051908152f35b8383346104bd576125f136613343565b926125fa61379c565b61260261377e565b8115612d335763077359408210612d43578315612d33576126216133a5565b612d2357600890612633838354613384565b8255612644600b54600c5490613384565b4210612d1357338152602095600a87526126648583205460095490613384565b4210612d055742600b55338252600a875242858320557ff043f6de83a8fd6c78e8e659df4964dc9ec99bfffb0215820070cdcaa28fc6d3878651428152a184514281527f0533feee0b69991e6f1b4fc8c193c4ed8854c74efd81178888b061326caee4c8883392a26126e8846126e36126db6139eb565b865490613384565b613384565b600654906127076127109283612700600754836135c1565b04906133e1565b10612cf657600554865163fefe46f160e01b81526001600160a01b0392918a9082908690829087165afa908115612cec578591612cbf575b50602754610e108101809111612b3b57421015612c8f575b60265460178101809111612b3b57601890066018811015612c7c57600e015480612c53575b50508183541680612b4e575b507f00000000000000000000000000000000000000000000000000000000000000006127b6873033846135d4565b33855260438a52428886205587514281527f7f652c2785a530367faa250cea3a1f5e4f4c8bb0e12b07856727d692154cbd518b3392a26107d087026107cf1988820401612b3b5761280c908360285491046135c1565b612825612818826137bd565b8460038409151590613384565b92612830848a6133e1565b90611f40808302908382041483151715612ad657049361285085836133e1565b9161287961286083603b54613384565b9182603b5561287184603d54613384565b603d55613ae4565b9c6709b6e64a8ec600008c026709b6e64a8ec5ffff198d820401612b2857670c7d713b49da00008d0290670c7d713b49d9ffff198e830401612b15578f90620f42408091048210928315612b09575b505050612af9578d10612ae957906128e381612908936133e1565b603b556128fe878954166128f78386613384565b908761362d565b8688541692613384565b90610384420192834211612ad657813b15612ad2579088929183896129518f5197889687958694630b8d1e8960e41b865285016040919493926060820195825260208201520152565b0392623d0900f18015612ac857908b939291612aab575b509061297e81879493866003548b1c169061362d565b602484600354891c16918a51948593849263b6b55f2560e01b8452898401525af18015612aa157908991612a78575b50507f00000000000000000000000000000000000000000000000000000000000000001690813b156106085785516340c10f1960e01b8152339181019182526020820188905291839183919082908490829060400103925af18015612a6e57612a5a575b5050612a1e8282546133e1565b9055815190815282848201527f25b428dfde728ccfaddad7e29e4ac23c24ed7fd1a6e3e3f91894a9a073f5dfff823392a2600160025551908152f35b612a648291613430565b610e265780612a11565b85513d84823e3d90fd5b813d8311612a9a575b612a8b8183613458565b810103126107db5787896129ad565b503d612a81565b87513d86823e3d90fd5b8296612abd61297e9295949395613430565b965092909192612968565b89513d88823e3d90fd5b8880fd5b634e487b7160e01b895260118852602489fd5b8b51638199f5f360e01b81528890fd5b8c5163028b754160e11b81528990fd5b041090508e5f806128c8565b634e487b7160e01b8c5260118b5260248cfd5b634e487b7160e01b8b5260118a5260248bfd5b634e487b7160e01b865260118552602486fd5b8751630b75294d60e21b8152908a828681845afa918215612ac8578592918c918893612c21575b508a51634971b00d60e11b815293849182905afa918215612ac8578692612bf2575b5085811280612be9575b612bac575b50612788565b612bb590613bce565b90610fa090818102918183041490151715612b3b5782900410612bd9578980612ba6565b865163292264fd60e21b81528390fd5b50811515612ba1565b9091508a81813d8311612c1a575b612c0a8183613458565b810103126106f95751908b612b97565b503d612c00565b9250925081813d8311612c4c575b612c398183613458565b810103126106f9575184918b908d612b75565b503d612c2f565b6103e891612c6091613bde565b11612c6c57898061277c565b865163a8eb64ed60e01b81528390fd5b634e487b7160e01b865260328552602486fd5b6026546018811015612c7c578190600e015560265460018101809111612b3b576018900660265542602755612757565b90508981813d8311612ce5575b612cd68183613458565b8101031261169257518a61273f565b503d612ccc565b88513d87823e3d90fd5b5084516337c021db60e01b8152fd5b8451631d76e54160e11b8152fd5b835163c355c92d60e01b81528690fd5b82516367bc0eaf60e01b81528590fd5b8251631f2a200560e01b81528590fd5b82516310c241e560e31b81528590fd5b5050346104bd57816003193601126104bd5760a090612d70613c25565b9394909281519586521515602086015284015260608301526080820152f35b5050346104bd57816003193601126104bd57602090603b54603c5411159081612dbb575b519015158152f35b603f54159150612db3565b5050346104bd57816003193601126104bd57602090600b549051908152f35b8383346104bd57816003193601126104bd576003546001600160a01b039290849060081c84168015612f78576020908451928380926278744560e21b82525afa908115612f2a578291612f47575b505b602f5480821115612f3f57612e49916133e1565b819385541680151580612f34575b612eae575b50608094508084119384612ea4575b8415612e9c57612e7b92506133e1565b905b6003603254825194151585528060208601521015908301526060820152f35b505090612e7d565b8015159450612e6b565b602090845196878092634971b00d60e11b82525afa8015612f2a578290612ef8575b60809550603054818111612ee5575b50612e5c565b612ef09295506133e1565b928580612edf565b506020853d8211612f22575b81612f1160209383613458565b810103126104bd5760809451612ed0565b3d9150612f04565b83513d84823e3d90fd5b506030541515612e57565b505080612e49565b90506020813d8211612f70575b81612f6160209383613458565b810103126104bd575185612e33565b3d9150612f54565b505080612e35565b5050346104bd57816003193601126104bd57602090602c549051908152f35b613326565b5050346104bd57816003193601126104bd57612fbe614cab565b91602e548042115f1461302057612fd590426133e1565b6036548082106130115750505b80159081613004575b9151901515815260208101929092526040820152606090f35b6037548410159150612feb565b61301b92506133e1565b612fe2565b5080612fd5565b5050346104bd57816003193601126104bd57602090516202a3008152f35b9190503461060857826003193601126106085761306061379c565b33835260209260418452818120549283156132d45780546001600160a01b039082908790831680613214575b505050603b5461309e603c5487613384565b116131d1578583913383526041825282868120556130be876042546133e1565b6042556130cd87603b546133e1565b603b5560035460081c166024865180968193632e1a7d4d60e01b83528a888401525af19283156131c5578193613196575b506126ac8502916126ab19868404016131835750506127106131239104821015614556565b61314e81337f00000000000000000000000000000000000000000000000000000000000000006139af565b81519081527fb52b99b9e83551fcbd069b559cc3e823e2a1a3bad8ece46561ea77524394c850843392a2600160025551908152f35b634e487b7160e01b825260119052602490fd5b9092508581813d83116131be575b6131ae8183613458565b810103126106085751915f6130fe565b503d6131a4565b508351903d90823e3d90fd5b835162461bcd60e51b8152808301879052601c60248201527f576f756c6420627265616368206d696e696d756d2072657365727665000000006044820152606490fd5b865163a5f352b760e01b815292839182905afa80156132ca57849061329b575b611b589150106132465781865f61308c565b835162461bcd60e51b8152808301879052602960248201527f43616e6e6f74207769746864726177207265736572766520647572696e67206c6044820152680deee40d0cac2d8e8d60bb1b6064820152608490fd5b508681813d83116132c3575b6132b18183613458565b8101031261084a57611b589051613234565b503d6132a7565b85513d86823e3d90fd5b825162461bcd60e51b8152908101859052600f60248201526e27379031b7b73a3934b13aba34b7b760891b6044820152606490fd5b5050346104bd57816003193601126104bd576020906104dd6139eb565b346107db575f3660031901126107db576020604051620151808152f35b60409060031901126107db576004359060243590565b5f546001600160a01b0316330361336c57565b60405163118cdaa760e01b8152336004820152602490fd5b9190820180921161339157565b634e487b7160e01b5f52601160045260245ffd5b60ff603a5416156133dd576203f48042018042116133915762093a8090066038548110908115916133d4575090565b90506039541190565b5f90565b9190820391821161339157565b60ff603a5416156133dd576203f48042018042116133915762093a80900660385461545f19810181811161339157821015918261342a57505090565b10919050565b67ffffffffffffffff811161344457604052565b634e487b7160e01b5f52604160045260245ffd5b90601f8019910116810190811067ffffffffffffffff82111761344457604052565b8115613484570490565b634e487b7160e01b5f52601260045260245ffd5b6004546001600160a01b031680156135b55760206004916040519283809263a5f352b760e01b82525afa9081156135aa575f91613579575b50806134da6133a5565b156134ea57611b585f911015925b565b916134f36133ee565b15613571576203f48042018042116133915761351962093a80610e1092066038546133e1565b0490611b5884107f3d0e0a4ea75e2c08125bbfd1f05c50f93bd82182babbbbef2ee93f946f85b5406060821596604051908152876020820152856040820152a161355f57565b6040516306322a7360e01b8152600490fd5b91505f600192565b906020823d82116135a2575b8161359260209383613458565b81010312610e265750515f6134d0565b3d9150613585565b6040513d5f823e3d90fd5b50600190612710905f90565b8181029291811591840414171561339157565b6040516323b872dd60e01b60208201526001600160a01b03928316602482015292909116604483015260648083019390935291815260a081019181831067ffffffffffffffff841117613444576134e892604052613724565b60405163095ea7b360e01b602082018181526001600160a01b038516602484015260448084019690965294825294939092613669606485613458565b60205f809386519082875af182513d826136ff575b50501561368e575b505050509050565b60405160208101969096526001600160a01b0316602486015260448086018290528552608085019067ffffffffffffffff8211868310176136eb57506136e193946136dc9160405282613724565b613724565b805f808080613686565b634e487b7160e01b81526041600452602490fd5b90915061371c57506001600160a01b0383163b15155b5f8061367e565b600114613715565b905f602091828151910182855af1156135aa575f513d61377557506001600160a01b0381163b155b6137535750565b604051635274afe760e01b81526001600160a01b039091166004820152602490fd5b6001141561374c565b60ff6003541661378a57565b60405163d93c066560e01b8152600490fd5b60028054146137ab5760028055565b604051633ee5aeb560e01b8152600490fd5b600381025f196003830981808210910390808203911461382c576127108181111561381a5760037fbc01a36e2eb1c432ca57a786c226809d495182a9930be0ded288ce703afb7e91940990828211900360fc1b910360041c170290565b634e487b715f5260116020526024601cfd5b5061271091500490565b601481025f196014830981808210910390808203911461382c576127108181111561381a5760147fbc01a36e2eb1c432ca57a786c226809d495182a9930be0ded288ce703afb7e91940990828211900360fc1b910360041c170290565b9068056bc75e2d6310000080830291905f198185099383808610950394808603951461392957848311156139115790829109815f038216809204600280826003021880830282030280830282030280830282030280830282030280830282030280920290030293600183805f03040190848311900302920304170290565b82634e487b715f52156003026011186020526024601cfd5b505090613936925061347a565b90565b90808202905f198184099082808310920391808303921461399d5768056bc75e2d63100000908282111561381a577f2fdf29ec6a12d6f7bf48d6861d4b553283e011b18b576460d489e3a9addec2d1940990828211900360ec1b910360141c170290565b505068056bc75e2d6310000091500490565b60405163a9059cbb60e01b60208201526001600160a01b039290921660248301526044808301939093529181526134e8916136dc606483613458565b6003546001600160a01b03919060081c82165f8115613adc57506020600491604051928380926278744560e21b82525afa9081156135aa575f91613aab575b50915b60045416915f8315613a9f575060206004936040519485809263b44b3a8f60e01b82525afa9283156135aa575f93613a6c575b50613936919290613384565b6020813d8211613a97575b81613a8460209383613458565b8101031261084a57519250613936613a60565b3d9150613a77565b61393692935090613384565b906020823d8211613ad4575b81613ac460209383613458565b81010312610e265750515f613a2a565b3d9150613ab7565b905091613a2d565b60055460405163fefe46f160e01b8152929190602090849060049082906001600160a01b03165afa9283156135aa575f93613b26575b50916139369192613893565b6020813d8211613b51575b81613b3e60209383613458565b8101031261084a57519250613936613b1a565b3d9150613b31565b60055460405163fefe46f160e01b8152929190602090849060049082906001600160a01b03165afa9283156135aa575f93613b9b575b50916139369192613939565b6020813d8211613bc6575b81613bb360209383613458565b8101031261084a57519250613936613b8f565b3d9150613ba6565b600160ff1b8114613391575f0390565b908115613c1f578180821115613c1557613bf7916133e1565b9061271091828102928184041490151715613391576139369161347a565b90613bf7916133e1565b50505f90565b6004546001600160a01b0316908115613d125760405163a5f352b760e01b81526020918282600481875afa9182156135aa575f92613ce3575b50600483839560405192838092630b75294d60e21b82525afa9384156135aa575f94613cb2575b5050611388839210925f81125f14613caa57613ca090613bce565b905b6139366139eb565b505f90613ca2565b8181959293953d8311613cdc575b613cca8183613458565b81010312610e26575051915f80613c85565b503d613cc0565b90918382813d8311613d0b575b613cfa8183613458565b81010312610e26575051905f613c5e565b503d613cf0565b9050613d1c6139eb565b612710915f915f915f9190565b81810392915f13801582851316918412161761339157565b60048054604051634971b00d60e11b815293959294915f906020908690816001600160a01b0386165afa9485156143f75781956143c3575b506040516370a0823160e01b8152306004820152916020836024817f00000000000000000000000000000000000000000000000000000000000000006001600160a01b03165afa9283156141ab57829361438f575b506103844201421161437b576001600160a01b0381163b156104bd57604051633bacfca960e01b8152670de0b6b3a76400006004820152426103840160248201529082908290604490829084906001600160a01b03165af180156141ab5761436c575b506040516370a0823160e01b81523060048201529091906020816024817f00000000000000000000000000000000000000000000000000000000000000006001600160a01b03165afa9081156141e1578391614338575b50613e9d91613e96916133e1565b9485613d29565b60315481810190838383129112908015821691151617614324577f3306cb9cf3058d682cf34e9305ca8616c2c0d85ad370492df021c3944e31181c918160409260315582519182526020820152a16003546040516278744560e21b815260089190911c6001600160a01b031690602081600481855afa80156141e157869084906142ee575b613f2c9250613384565b603b54808211156142e557613f40916133e1565b935b80151590816142db575b506142c95781948385106142b7575b8415611f408681810204148117156142a3576107d0908682810204821417156142a357906127108492870204928184115f146141ec5750613f9e602091846133e1565b600354604051632e1a7d4d60e01b8152600481019290925290928391602491839160081c6001600160a01b03165af180156141e1576141b6575b505b806140fc575b506004546001600160a01b031680156140cd57602060049160405192838092634971b00d60e11b82525afa9182156140c15791614063575b50907fa2b37f262b0dfc8c4e9457e2ecd76d0f389faef68cca0b2798d476973173157e9560a0959493925b6030556040519485526020850152604084015260608301526080820152a1565b9493929190506020853d6020116140b9575b8161408260209383613458565b810103126107db579351929391929091907fa2b37f262b0dfc8c4e9457e2ecd76d0f389faef68cca0b2798d476973173157e614018565b3d9150614075565b604051903d90823e3d90fd5b50907fa2b37f262b0dfc8c4e9457e2ecd76d0f389faef68cca0b2798d476973173157e9560a095949392614043565b614108602854826135c1565b9061413e8160018060a01b03600454167f000000000000000000000000000000000000000000000000000000000000000061362d565b6004546001600160a01b031690813b1561084a57604051630b8d1e8960e41b8152600481019390935260248301526103844201604483015282908290606490829084905af180156141ab57908291614197575b50613fe0565b6141a090613430565b610e2657805f614191565b6040513d84823e3d90fd5b602090813d83116141da575b6141cc8183613458565b810103126107db575f613fd8565b503d6141c2565b6040513d85823e3d90fd5b838083116141fe575b50505050613fda565b61420d614235916020946133e1565b80927f000000000000000000000000000000000000000000000000000000000000000061362d565b60035460405163b6b55f2560e01b8152600481019290925290928391602491839160081c6001600160a01b03165af180156141e157614278575b808391836141f5565b602090813d831161429c575b61428e8183613458565b810103126107db575f61426f565b503d614284565b634e487b7160e01b84526011600452602484fd5b94506142c384846133e1565b94613f5b565b604051638199f5f360e01b8152600490fd5b905084105f613f4c565b50508193613f42565b50506020813d60201161431c575b8161430960209383613458565b810103126107db5785613f2c9151613f22565b3d91506142fc565b634e487b7160e01b83526011600452602483fd5b90506020813d602011614364575b8161435360209383613458565b810103126107db5751613e9d613e88565b3d9150614346565b61437590613430565b5f613e31565b634e487b7160e01b82526011600452602482fd5b9092506020813d6020116143bb575b816143ab60209383613458565b810103126104bd5751915f613dce565b3d915061439e565b9094506020813d6020116143ef575b816143df60209383613458565b810103126116925751935f613d79565b3d91506143d2565b50604051903d90823e3d90fd5b6004546001600160a01b03168015614553576040805163a5f352b760e01b815291602091908284600481845afa93841561451a575f94614524575b506113888410614450575b50505050565b82600491835192838092630b75294d60e21b82525afa90811561451a575f916144cd575b50917f38adb85ba250e5355c5190228dc296243f03a81cc8114789a131284fbf4304e593916060935f8082125f146144c757506144b081613bce565b925b8251948552840152820152a15f80808061444a565b926144b2565b908382813d8311614513575b6144e38183613458565b81010312610e265750517f38adb85ba250e5355c5190228dc296243f03a81cc8114789a131284fbf4304e5614474565b503d6144d9565b82513d5f823e3d90fd5b90938382813d831161454c575b61453b8183613458565b81010312610e26575051925f61443f565b503d614531565b50565b1561455d57565b60405162461bcd60e51b815260206004820152601760248201527f496e73756666696369656e74207769746864726177616c0000000000000000006044820152606490fd5b5f6145ab6133a5565b614c99576145be602e5460365490613384565b4210614c54576145cc614cab565b906037548210614c1957624c4b408210614bd65742602e556003546001600160a01b039260089190911c8316918215614bd0576040516278744560e21b8152602081600481875afa9081156141ab578291614b9f575b505b602f558060345583602d541615614b64576004928484541690848215159284845f14614b59575060209060405192838092634971b00d60e11b82525afa908115614b4e5790849392918491614b16575b505b60305484938282119081614b0e575b50614afb575b50506146978583613384565b80614a26575b5081614924575b5050508360035460081c169281604094855190632e1a7d4d60e01b825285848301528160248160209586945af1908115610da65784916148f7575b506126ac8086029086820414861517156148e457906120a26127106147079304821015614556565b95807f000000000000000000000000000000000000000000000000000000000000000016803b156116925786516340c10f1960e01b815230858201908152602081018a9052869082908190604001038183865af180156148da57899187916148c3575b505061477b9183602d5416906139af565b838282602d541685895180948193634641257d60e01b83525af18015610dfe5790839161489a575b5050825416801561486b578190865193848092634971b00d60e11b82525afa928315614860579261482e575b5050907f46eee0760c564660379a99fd69bc8669b19dba864b3053d7dbb597d0cfbfb26692614828925b60305561480885603554613384565b603555519181858493846040919493926060820195825260208201520152565b0390a190565b9080939250813d8311614859575b6148468183613458565b810103126107db579051826148286147cf565b503d61483c565b8551903d90823e3d90fd5b505050907f46eee0760c564660379a99fd69bc8669b19dba864b3053d7dbb597d0cfbfb26692614828926147f9565b813d83116148bc575b6148ad8183613458565b810103126107db57815f6147a3565b503d6148a3565b6148ce919250613430565b6116925787855f61476a565b88513d88823e3d90fd5b634e487b7160e01b855260118452602485fd5b90508181813d831161491d575b61490e8183613458565b810103126107db57515f6146df565b503d614904565b60246020926040519485938492632e1a7d4d60e01b84528a8401525af19081156141ab5782916149f5575b5061497e81868654167f000000000000000000000000000000000000000000000000000000000000000061362d565b84845416906103844201908142116149e257823b1561084a579060648492836040519586948593630b8d1e8960e41b8552838c860152602485015260448401525af180156141ab576149d3575b8082916146a4565b6149dc90613430565b5f6149cb565b634e487b7160e01b845260118652602484fd5b90506020813d8211614a1e575b81614a0f60209383613458565b810103126104bd57515f61494f565b3d9150614a02565b60405163ce96cb7760e01b815230888201529293509091602081602481865afa908115614af0578591614abf575b5010614a63579082915f61469d565b60405162461bcd60e51b8152602081870152602f60248201527f496e73756666696369656e74204d6f7270686f206c6971756964697479202d2060448201526e3a393c9030b3b0b4b7103630ba32b960891b6064820152608490fd5b90506020813d8211614ae8575b81614ad960209383613458565b8101031261169257515f614a54565b3d9150614acc565b6040513d87823e3d90fd5b614b069293506133e1565b905f8061468b565b90505f614685565b91929350506020813d8211614b46575b81614b3360209383613458565b8101031261084a5790839291515f614674565b3d9150614b26565b6040513d86823e3d90fd5b939291505082614676565b60405162461bcd60e51b81526020600482015260136024820152721cd1d09418881d985d5b1d081b9bdd081cd95d606a1b6044820152606490fd5b90506020813d8211614bc8575b81614bb960209383613458565b810103126104bd57515f614622565b3d9150614bac565b80614624565b90604081614c077ffcdfbd17478a7a3586ec01961f4ffaad1453178eee6ae29dd135167624edced993603454613384565b8060345582519182526020820152a190565b60405162461bcd60e51b81526020600482015260136024820152725969656c642062656c6f77206d696e696d756d60681b6044820152606490fd5b60405162461bcd60e51b815260206004820152601860248201527f4861727665737420696e74657276616c206e6f74206d657400000000000000006044820152606490fd5b6040516367bc0eaf60e01b8152600490fd5b6003546001600160a01b039060081c81165f8115614f0957506020600491604051928380926278744560e21b82525afa9081156135aa575f91614ed8575b505b602f545f9181811115614ed157614d0292506133e1565b5f916004541680151580614ec6575b614e4a575b5080821180614e41575b15614e1957614d2f81836133e1565b917f37f63547b006fccf03b4ca9370a4957e66a3ccc7ee1c5611aaaba0aa7e008f4b60405180614d72868587846040919493926060820195825260208201520152565b0390a160335462015180810180911161339157421015614db7575b61393692505b5f9181811115614db057614da792506133e1565b60345490613384565b5050614da7565b60325460018101809111613391576139369381603255426033556003821015614de2575b5050614d8d565b7f127ef3723e8ba1ec67b91850e1d1dbdc75db66cd601ecf94f9f6f700ac5cffe99160409182519182526020820152a15f80614ddb565b6033549162015180830180931161339157613936924210614d93575f60325542603355614d93565b50811515614d20565b602060049160405192838092634971b00d60e11b82525afa9081156141e1578391614e95575b50603054818111614e82575b50614d16565b614e8d9293506133e1565b905f80614e7c565b90506020813d8211614ebe575b81614eaf60209383613458565b8101031261060857515f614e70565b3d9150614ea2565b506030541515614d11565b5050614d02565b906020823d8211614f01575b81614ef160209383613458565b81010312610e265750515f614ce9565b3d9150614ee4565b9050614ceb565b614f186139eb565b6040516318160ddd60e01b81526020816004817f00000000000000000000000000000000000000000000000000000000000000006001600160a01b03165afa80156135aa575f90614fa6575b614f6e9150613b59565b908115614f9a57612710918282028281048414831517156133915781614f939161347a565b9283101593565b60019261271092505f90565b6020823d8211614fd1575b81614fbe60209383613458565b81010312610e265750614f6e9051614f64565b3d9150614fb156fea26469706673582212208a97475b4f15ab7ef607e68e10e925c25b9695444327a476fb449a884294daf164736f6c63430008140033","linkReferences":{}},"methodIdentifiers":{"LENDING_ALLOCATION_BPS()":"8926b735","LEVERAGE_CHANGE_DELAY()":"0e4739fe","MAX_PRICE_CHANGE_BPS()":"b65d1ea8","MINT_FEE_BPS()":"c714d0f7","MIN_HOLD_TIME()":"00f15676","MIN_MINT_AMOUNT()":"d56926a0","MIN_POSITION_SIZE()":"368dbba8","MIN_WEEKEND_HEALTH_BPS()":"5e235c82","PERP_ALLOCATION_BPS()":"ffcd0088","REBALANCE_HEALTH_THRESHOLD_BPS()":"f646859d","REDEEM_FEE_BPS()":"38fd6bdb","STRATEGY_CHANGE_DELAY()":"1363ca5f","acceptOwnership()":"79ba5097","accumulatedYield()":"fcdfd5c5","activeStrategy()":"cd3c4255","calculateNetYield()":"fe9f9837","canHarvest()":"1064ac15","cancelLeverageProposal()":"257f3f45","checkRebalanceStatus()":"43b39604","checkWeekendHealth()":"70a9b574","consecutiveDeficitDays()":"61870553","emergencyRebalance(uint256)":"e6fe5c01","emergencyWithdrawStrategy()":"5e09cd9e","executeLeverageChange()":"9d8d81ed","executeStrategyChange()":"5f8247cd","feeRecipient()":"46904840","fundReserve(uint256)":"75c54224","gbpbToken()":"e41a449e","getHarvestStats()":"5b596c9b","getHealthStatus()":"1801e156","getMarginDeficitStatus()":"1638f971","getPerpMarginStats()":"bf938ab7","getReserveAccounting()":"b8e772dd","globalOperationCooldown()":"6a2f7941","harvestYield()":"e8d991d1","isApproachingWeekend()":"f8787961","isReserveHealthy()":"1719f0a0","isWeekend()":"b8963681","lastDeficitCheckTimestamp()":"8edc40da","lastGBPbPrice()":"cade57a0","lastGlobalOperation()":"16adfd6a","lastHarvestTimestamp()":"2257a738","lastMintTime(address)":"6aa71d18","lastMorphoAssets()":"beb2166a","lastPerpCollateral()":"3a777eab","lastPriceUpdate()":"6949faeb","lastUserOperation(address)":"3fb0826f","leverageChangeTimestamp()":"143cbba2","maxYieldBorrowed()":"6e281117","minHarvestAmount()":"bcfcfc73","minHarvestInterval()":"23fd6eeb","minReserveBalance()":"fce04ce9","mint(uint256,uint256)":"1b2ef1ca","oracle()":"7dc0d1d0","owner()":"8da5cb5b","pause()":"8456cb59","paused()":"5c975abb","pendingDeposits()":"5c074f44","pendingOwner()":"e30c3978","perpManager()":"99578534","priceHistory(uint256)":"b27a0484","priceHistoryIndex()":"8c9c0b54","proposeLeverageChange(uint256)":"27d9ad65","proposeStrategyChange(address)":"94bad40a","proposedLeverage()":"37cf6612","proposedStrategy()":"5e61e814","rebalancePerp(uint256,bool)":"8248bb46","redeem(uint256)":"db006a75","renounceOwnership()":"715018a6","reserveBalance()":"a10954fe","reserveContributions(address)":"608616e9","sGBPbVault()":"938052e0","setActiveStrategy(address)":"5fc4406e","setFeeRecipient(address)":"e74b981b","setHarvestConfig(uint256,uint256)":"97a8522a","setMaxYieldBorrowed(uint256)":"e0899e5e","setMinReserveBalance(uint256)":"7d84964f","setPerpManager(address)":"4c170d01","setSGBPbVault(address)":"8b845200","setTVLCap(uint256)":"3713b5d1","setUserOperationCooldown(uint256)":"b0fea764","setWeekendCheckEnabled(bool)":"27f5a427","setWeekendTimes(uint256,uint256)":"ca419ff3","strategyChangeTimestamp()":"a490c844","targetLeverage()":"d6c946ea","totalAssets()":"01e1d114","totalGBPbValue()":"5a67705b","totalOpeningFeesPaid()":"fb4af4d1","totalRealizedPnL()":"ad574248","totalRedemptionFeesCollected()":"5afc1403","totalReserveContributions()":"fd75f71f","totalYieldDistributed()":"97206bd5","transferOwnership(address)":"f2fde38b","tvlCap()":"3f23fa1a","tvlCapBufferBPS()":"29a5ba54","unpause()":"3f4ba83a","updateLastPrice()":"7cb14a99","usdc()":"3e413bee","userOperationCooldown()":"ebe473ae","verifyGBPbBacking()":"32ec37e3","weekendCheckEnabled()":"a4692af4","weekendCloseTime()":"40d523e2","weekendOpenTime()":"61eaa2d2","withdrawReserveContribution()":"0e1c5f3e","yieldBorrowed()":"3aac77ee"},"id":67}