{"abi":[{"type":"constructor","inputs":[{"name":"_usdc","type":"address","internalType":"address"},{"name":"_morphoVault","type":"address","internalType":"address"},{"name":"_vault","type":"address","internalType":"address"}],"stateMutability":"nonpayable"},{"type":"function","name":"currentAPY","inputs":[],"outputs":[{"name":"","type":"uint256","internalType":"uint256"}],"stateMutability":"view"},{"type":"function","name":"deposit","inputs":[{"name":"amount","type":"uint256","internalType":"uint256"}],"outputs":[{"name":"shares","type":"uint256","internalType":"uint256"}],"stateMutability":"nonpayable"},{"type":"function","name":"emergencyWithdraw","inputs":[],"outputs":[{"name":"amount","type":"uint256","internalType":"uint256"}],"stateMutability":"nonpayable"},{"type":"function","name":"getMetadata","inputs":[],"outputs":[{"name":"name","type":"string","internalType":"string"},{"name":"protocol","type":"string","internalType":"string"},{"name":"riskScore","type":"uint256","internalType":"uint256"},{"name":"isActive","type":"bool","internalType":"bool"}],"stateMutability":"pure"},{"type":"function","name":"lastKnownAPY","inputs":[],"outputs":[{"name":"","type":"uint256","internalType":"uint256"}],"stateMutability":"view"},{"type":"function","name":"lastKnownPricePerShare","inputs":[],"outputs":[{"name":"","type":"uint256","internalType":"uint256"}],"stateMutability":"view"},{"type":"function","name":"maxWithdraw","inputs":[{"name":"owner","type":"address","internalType":"address"}],"outputs":[{"name":"","type":"uint256","internalType":"uint256"}],"stateMutability":"view"},{"type":"function","name":"morphoVault","inputs":[],"outputs":[{"name":"","type":"address","internalType":"contract IERC4626"}],"stateMutability":"view"},{"type":"function","name":"owner","inputs":[],"outputs":[{"name":"","type":"address","internalType":"address"}],"stateMutability":"view"},{"type":"function","name":"renounceOwnership","inputs":[],"outputs":[],"stateMutability":"nonpayable"},{"type":"function","name":"totalAssets","inputs":[],"outputs":[{"name":"","type":"uint256","internalType":"uint256"}],"stateMutability":"view"},{"type":"function","name":"transferOwnership","inputs":[{"name":"newOwner","type":"address","internalType":"address"}],"outputs":[],"stateMutability":"nonpayable"},{"type":"function","name":"updateAPY","inputs":[{"name":"newAPY","type":"uint256","internalType":"uint256"}],"outputs":[],"stateMutability":"nonpayable"},{"type":"function","name":"updatePricePerShare","inputs":[],"outputs":[],"stateMutability":"nonpayable"},{"type":"function","name":"usdc","inputs":[],"outputs":[{"name":"","type":"address","internalType":"contract IERC20"}],"stateMutability":"view"},{"type":"function","name":"vault","inputs":[],"outputs":[{"name":"","type":"address","internalType":"address"}],"stateMutability":"view"},{"type":"function","name":"withdraw","inputs":[{"name":"amount","type":"uint256","internalType":"uint256"}],"outputs":[{"name":"actualAmount","type":"uint256","internalType":"uint256"}],"stateMutability":"nonpayable"},{"type":"function","name":"withdrawAll","inputs":[],"outputs":[{"name":"amount","type":"uint256","internalType":"uint256"}],"stateMutability":"nonpayable"},{"type":"event","name":"APYUpdated","inputs":[{"name":"oldAPY","type":"uint256","indexed":false,"internalType":"uint256"},{"name":"newAPY","type":"uint256","indexed":false,"internalType":"uint256"}],"anonymous":false},{"type":"event","name":"Deposited","inputs":[{"name":"amount","type":"uint256","indexed":false,"internalType":"uint256"},{"name":"shares","type":"uint256","indexed":false,"internalType":"uint256"}],"anonymous":false},{"type":"event","name":"EmergencyWithdrawal","inputs":[{"name":"amount","type":"uint256","indexed":false,"internalType":"uint256"}],"anonymous":false},{"type":"event","name":"OwnershipTransferred","inputs":[{"name":"previousOwner","type":"address","indexed":true,"internalType":"address"},{"name":"newOwner","type":"address","indexed":true,"internalType":"address"}],"anonymous":false},{"type":"event","name":"Withdrawn","inputs":[{"name":"amount","type":"uint256","indexed":false,"internalType":"uint256"},{"name":"shares","type":"uint256","indexed":false,"internalType":"uint256"}],"anonymous":false},{"type":"error","name":"DepositFailed","inputs":[]},{"type":"error","name":"OnlyVault","inputs":[]},{"type":"error","name":"OwnableInvalidOwner","inputs":[{"name":"owner","type":"address","internalType":"address"}]},{"type":"error","name":"OwnableUnauthorizedAccount","inputs":[{"name":"account","type":"address","internalType":"address"}]},{"type":"error","name":"SafeERC20FailedOperation","inputs":[{"name":"token","type":"address","internalType":"address"}]},{"type":"error","name":"SlippageTooHigh","inputs":[]},{"type":"error","name":"SuspiciousActivity","inputs":[]},{"type":"error","name":"VaultUnderwater","inputs":[]},{"type":"error","name":"WithdrawFailed","inputs":[]},{"type":"error","name":"ZeroAmount","inputs":[]}],"bytecode":{"object":"0x60e060409080825234620002e657606081620016cd8038038091620000258285620002ea565b833981010312620002e6576200003b8162000322565b9060209162000059846200005185850162000322565b930162000322565b3315620002cf575f8054336001600160a01b03198216811783558751956001600160a01b0395939493909286929083167f8be0079c531659141344cd1fd0a4f28419497f9722a3daafe3b4186f6b6457e08780a3169485156200029e575083169081156200025a578381161562000226576004918691866080528160a05260c0528751928380926338d52e0f60e01b82525afa9182156200021b578092620001d8575b505016036200019657506101f460015551611395908162000338823960805181818161050b0152610bd5015260a0518181816102a201528181610349015281816104c901528181610b9101528181610e2301528181610fc00152818161111e01526111ff015260c05181818160f90152818161048e01528181610a4c01528181610c1a01528181610e8f0152818161101f01526112600152f35b606491519062461bcd60e51b82526004820152601460248201527f5661756c74206173736574206d69736d617463680000000000000000000000006044820152fd5b9091508482813d831162000213575b620001f38183620002ea565b81010312620002105750620002089062000322565b5f80620000fc565b80fd5b503d620001e7565b8651903d90823e3d90fd5b865162461bcd60e51b815260048101879052600d60248201526c125b9d985b1a59081d985d5b1d609a1b6044820152606490fd5b865162461bcd60e51b815260048101879052601460248201527f496e76616c6964204d6f7270686f207661756c740000000000000000000000006044820152606490fd5b62461bcd60e51b815260048101879052600c60248201526b496e76616c6964205553444360a01b6044820152606490fd5b8451631e4fbdf760e01b81525f6004820152602490fd5b5f80fd5b601f909101601f19168101906001600160401b038211908210176200030e57604052565b634e487b7160e01b5f52604160045260245ffd5b51906001600160a01b0382168203620002e65756fe60406080815260049081361015610014575f80fd5b5f91823560e01c90816301e1d11414610c545781632e1a7d4d14610c045781633e413bee14610bc05781635169379c14610b7c578163715018a614610b225781637a5b4f5914610a92578163853828b614610a375781638da5cb5b14610a0f57816394c80966146109f05781639a79d32b146109f0578163b6b55f251461046a578163cc4638c11461031e578163ce96cb771461025f578163db2e21bc14610233578163e13815a314610214578163f2fde38b14610185578163fae728cd1461012c575063fbfa77cf146100e6575f80fd5b34610128578160031936011261012857517f00000000000000000000000000000000000000000000000000000000000000006001600160a01b03168152602090f35b5080fd5b91905034610181576020366003190112610181577f787a1fca55641ce34a438271930bbb9401df20db2b4f510d4f252227d85df43d913561016b610caf565b600154908060015582519182526020820152a180f35b8280fd5b91905034610181576020366003190112610181576001600160a01b03823581811693919290849003610210576101b9610caf565b83156101fa57505082546001600160a01b0319811683178455167f8be0079c531659141344cd1fd0a4f28419497f9722a3daafe3b4186f6b6457e08380a380f35b51631e4fbdf760e01b8152908101849052602490fd5b8480fd5b5050346101285781600319360112610128576020906002549051908152f35b505034610128578160031936011261012857602090610250610caf565b6102586111ea565b9051908152f35b8383346101285760209283600319360112610181576001600160a01b039080358281160361031a578490602484518094819363ce96cb7760e01b835230908301527f0000000000000000000000000000000000000000000000000000000000000000165afa92831561030f5780936102da575b505051908152f35b909192508382813d8311610308575b6102f38183610d26565b810103126103055750519083806102d2565b80fd5b503d6102e9565b8251903d90823e3d90fd5b8380fd5b838334610128578160031936011261012857610338610caf565b80516318160ddd60e01b81529060207f00000000000000000000000000000000000000000000000000000000000000006001600160a01b031681848781845afa938415610460578594610431575b5083610390578480f35b908086928451938480926278744560e21b82525afa928315610428575084926103fa575b5050670de0b6b3a7640000908181029181830414901517156103e7576103db929350610d73565b60025580828080808480f35b634e487b7160e01b835260118452602483fd5b90809250813d8311610421575b6104118183610d26565b81010312610181575184806103b4565b503d610407565b513d86823e3d90fd5b9093508181813d8311610459575b6104498183610d26565b8101031261021057519286610386565b503d61043f565b83513d87823e3d90fd5b8383346101285760209283600319360112610181576001600160a01b0392813591907f0000000000000000000000000000000000000000000000000000000000000000851633036109e15782156109d25783516318160ddd60e01b81527f000000000000000000000000000000000000000000000000000000000000000086169590878185818a5afa9081156109c857839161099b575b5080610822575b507f000000000000000000000000000000000000000000000000000000000000000085516323b872dd60e01b89820152602493338583015260449130838201528760648201526064815260a0810181811067ffffffffffffffff8211176108105789526105759084610d91565b875163ef8b30f760e01b81528681018890528a8187818d5afa9081156108065791888a8d98979695938d9584916107c2575b50906127106105b78a9493610d48565b04998681868451958287019063095ea7b360e01b9b8c998a84528901528a8801528987526105e487610d0a565b865190828d5af186513d826107a4575b50501561076c575b5050915050519a636e553f6560e01b8c5289898d015230878d01528c8c848185855af19b8c15610762579082918e94939d61072d575b508b51968483818a01888152848c8c015281878c0152868b526106548b610d0a565b8a5190828b5af1903d8451908361070c575b505050156106d4575b505050505050505084106106c65783156106b85750817f06da3309189fa49284f335d2c2bcb4cb0b8ad2a59ad92a9bdebeeb8f1ceba5119181519081528486820152a151908152f35b82516379cacff160e01b8152fd5b825163428637bb60e11b8152fd5b6106ff976106fa958d51958601528401528183015281526106f481610d0a565b82610d91565b610d91565b868080808981808061066f565b91925090610723575086163b15155b8f8080610666565b600191501461071b565b8481939495929e503d831161075b575b6107478183610d26565b8101031261012857908c9291519b8e610632565b503d61073d565b8b513d84823e3d90fd5b61079a946107949351928301528a820152848682015285815261078e81610d0a565b87610d91565b85610d91565b828d8b8e8e6105fc565b9091506107ba57508989163b15155b5f806105f4565b6001146107b3565b949697989993955050505081813d83116107ff575b6107e18183610d26565b8101031261012857518a959493928a92909189908b906127106105a7565b503d6107d7565b89513d84823e3d90fd5b634e487b7160e01b8352604188528683fd5b85516278744560e21b8152888186818b5afa908115610991578491610964575b5086516303d1689d60e11b815285810183905289816024818c5afa90811561095a57859161092d575b5061251c9081810291818304149015171561091a576127109004811061090a57670de0b6b3a7640000908181029181830414901517156108f757906108af91610d73565b600254801580156108c6575b505060025587610508565b605f8202918204605f1417156108f7576064900481106108e75788806108bb565b85516305ebdc6d60e41b81528490fd5b634e487b7160e01b845260118552602484fd5b865163fbed7aeb60e01b81528590fd5b634e487b7160e01b855260118652602485fd5b90508981813d8311610953575b6109448183610d26565b8101031261021057518a61086b565b503d61093a565b88513d87823e3d90fd5b90508881813d831161098a575b61097b8183610d26565b8101031261031a575189610842565b503d610971565b87513d86823e3d90fd5b90508781813d83116109c1575b6109b28183610d26565b81010312610181575188610501565b503d6109a8565b86513d85823e3d90fd5b508251631f2a200560e01b8152fd5b508251638d1af8bd60e01b8152fd5b5050346101285781600319360112610128576020906001549051908152f35b505034610128578160031936011261012857905490516001600160a01b039091168152602090f35b828434610305578060031936011261030557507f00000000000000000000000000000000000000000000000000000000000000006001600160a01b03163303610a8557602090610258610fab565b51638d1af8bd60e01b8152fd5b5050346101285781600319360112610128578051610b0591610ab382610cda565b600f82526e4b504b204d6f7270686f205553444360881b60208301526005610b138251610adf81610cda565b60068152654d6f7270686f60d01b60208201528351958695608087526080870190610c71565b908582036020870152610c71565b91830152600160608301520390f35b8334610305578060031936011261030557610b3b610caf565b80546001600160a01b03198116825581906001600160a01b03167f8be0079c531659141344cd1fd0a4f28419497f9722a3daafe3b4186f6b6457e08280a380f35b505034610128578160031936011261012857517f00000000000000000000000000000000000000000000000000000000000000006001600160a01b03168152602090f35b505034610128578160031936011261012857517f00000000000000000000000000000000000000000000000000000000000000006001600160a01b03168152602090f35b82843461030557602036600319011261030557507f00000000000000000000000000000000000000000000000000000000000000006001600160a01b03163303610a855761025860209235610df6565b505034610128578160031936011261012857602090610258611109565b91908251928382525f5b848110610c9b575050825f602080949584010152601f8019910116010190565b602081830181015184830182015201610c7b565b5f546001600160a01b03163303610cc257565b60405163118cdaa760e01b8152336004820152602490fd5b6040810190811067ffffffffffffffff821117610cf657604052565b634e487b7160e01b5f52604160045260245ffd5b6080810190811067ffffffffffffffff821117610cf657604052565b90601f8019910116810190811067ffffffffffffffff821117610cf657604052565b9061264891828102928184041490151715610d5f57565b634e487b7160e01b5f52601160045260245ffd5b8115610d7d570490565b634e487b7160e01b5f52601260045260245ffd5b905f602091828151910182855af115610deb575f513d610de257506001600160a01b0381163b155b610dc05750565b604051635274afe760e01b81526001600160a01b039091166004820152602490fd5b60011415610db9565b6040513d5f823e3d90fd5b8015610f9957610e04611109565b808211610f91575b50604051630a28a47760e01b8152600481018290527f00000000000000000000000000000000000000000000000000000000000000006001600160a01b031691602091908282602481875afa5f9281610f62575b50610e6d57505050505f90565b610e7961271091610d48565b604051635d043b2960e11b8152600481018490527f00000000000000000000000000000000000000000000000000000000000000006001600160a01b0316602482015230604482015294919004908390859060649082905f905af15f9481610f33575b50610ee957505050505f90565b8310610f21577f0c875c8d391179c5cf7ad8303d268efd50b8beb78b671f85cd54bfb91eb8ef4091604091825191858352820152a190565b60405163428637bb60e11b8152600490fd5b90948482813d8311610f5b575b610f4a8183610d26565b81010312610305575051935f610edc565b503d610f40565b90928482813d8311610f8a575b610f798183610d26565b81010312610305575051915f610e60565b503d610f6f565b90505f610e0c565b604051631f2a200560e01b8152600490fd5b6040516370a0823160e01b81523060048201527f00000000000000000000000000000000000000000000000000000000000000006001600160a01b0316906020908181602481865afa908115610deb575f916110dc575b5080156110d557604051635d043b2960e11b8152600481018290527f00000000000000000000000000000000000000000000000000000000000000006001600160a01b03166024820152306044820152928290849060649082905f905af15f93816110a6575b50611074575050505f90565b7f0c875c8d391179c5cf7ad8303d268efd50b8beb78b671f85cd54bfb91eb8ef4091604091825191858352820152a190565b90938382813d83116110ce575b6110bd8183610d26565b81010312610305575051925f611068565b503d6110b3565b5050505f90565b908282813d8311611102575b6110f28183610d26565b810103126103055750515f611002565b503d6110e8565b6040516370a0823160e01b81523060048201527f00000000000000000000000000000000000000000000000000000000000000006001600160a01b0316906020908181602481865afa8015610deb5782915f916111bc575b506024604051809581936303d1689d60e11b835260048301525afa908115610deb575f91611190575b50905090565b82813d83116111b5575b6111a48183610d26565b81010312610305575051805f61118a565b503d61119a565b9182813d83116111e3575b6111d18183610d26565b8101031261030557508190515f611161565b503d6111c7565b6040516370a0823160e01b81523060048201527f00000000000000000000000000000000000000000000000000000000000000006001600160a01b031691906020908181602481875afa908115610deb575f91611332575b50801561132b57604051635d043b2960e11b815260048101919091527f00000000000000000000000000000000000000000000000000000000000000006001600160a01b03166024820152306044820152928190849060649082905f905af1928315610deb575f936112dc575b507fcbba13897c2ac3f7fdb11e857b1a5a5c47f51e3fbeffa74d430f2b06177b45c09083604051908152a1565b90928382813d8311611324575b6112f38183610d26565b81010312610305575051917fcbba13897c2ac3f7fdb11e857b1a5a5c47f51e3fbeffa74d430f2b06177b45c06112af565b503d6112e9565b505f925050565b908282813d8311611358575b6113488183610d26565b810103126103055750515f611242565b503d61133e56fea26469706673582212206a1ec452231f561a32d452fd4340bfcef8f529ec981acd6d13b6008ecfe2918f64736f6c63430008140033","linkReferences":{}},"methodIdentifiers":{"currentAPY()":"9a79d32b","deposit(uint256)":"b6b55f25","emergencyWithdraw()":"db2e21bc","getMetadata()":"7a5b4f59","lastKnownAPY()":"94c80966","lastKnownPricePerShare()":"e13815a3","maxWithdraw(address)":"ce96cb77","morphoVault()":"5169379c","owner()":"8da5cb5b","renounceOwnership()":"715018a6","totalAssets()":"01e1d114","transferOwnership(address)":"f2fde38b","updateAPY(uint256)":"fae728cd","updatePricePerShare()":"cc4638c1","usdc()":"3e413bee","vault()":"fbfa77cf","withdraw(uint256)":"2e1a7d4d","withdrawAll()":"853828b6"},"id":65}