{"abi":[{"type":"constructor","inputs":[{"name":"_tradingStorage","type":"address","internalType":"address"}],"stateMutability":"nonpayable"},{"type":"function","name":"closeTradeMarket","inputs":[{"name":"pairIndex","type":"uint16","internalType":"uint16"},{"name":"index","type":"uint8","internalType":"uint8"},{"name":"percentageClosed","type":"uint256","internalType":"uint256"},{"name":"expectedPrice","type":"uint256","internalType":"uint256"},{"name":"slippageP","type":"uint256","internalType":"uint256"}],"outputs":[],"stateMutability":"nonpayable"},{"type":"function","name":"openTrade","inputs":[{"name":"t","type":"tuple","internalType":"struct IOstiumTradingStorage.Trade","components":[{"name":"collateral","type":"uint256","internalType":"uint256"},{"name":"openPrice","type":"uint192","internalType":"uint192"},{"name":"tp","type":"uint192","internalType":"uint192"},{"name":"sl","type":"uint192","internalType":"uint192"},{"name":"trader","type":"address","internalType":"address"},{"name":"leverage","type":"uint32","internalType":"uint32"},{"name":"pairIndex","type":"uint16","internalType":"uint16"},{"name":"index","type":"uint8","internalType":"uint8"},{"name":"buy","type":"bool","internalType":"bool"}]},{"name":"bf","type":"tuple","internalType":"struct IOstiumTradingStorage.BuilderFee","components":[{"name":"builder","type":"address","internalType":"address"},{"name":"builderFee","type":"uint32","internalType":"uint32"}]},{"name":"orderType","type":"uint8","internalType":"enum IOstiumTradingStorage.OpenOrderType"},{"name":"slippageP","type":"uint256","internalType":"uint256"}],"outputs":[],"stateMutability":"nonpayable"},{"type":"function","name":"priceOracle","inputs":[],"outputs":[{"name":"","type":"address","internalType":"contract ChainlinkOracle"}],"stateMutability":"view"},{"type":"function","name":"setPriceOracle","inputs":[{"name":"_oracle","type":"address","internalType":"address"}],"outputs":[],"stateMutability":"nonpayable"},{"type":"function","name":"tradingStorage","inputs":[],"outputs":[{"name":"","type":"address","internalType":"contract IOstiumTradingStorage"}],"stateMutability":"view"},{"type":"function","name":"updateSl","inputs":[{"name":"pairIndex","type":"uint16","internalType":"uint16"},{"name":"index","type":"uint8","internalType":"uint8"},{"name":"newSl","type":"uint192","internalType":"uint192"}],"outputs":[],"stateMutability":"nonpayable"},{"type":"function","name":"updateTp","inputs":[{"name":"pairIndex","type":"uint16","internalType":"uint16"},{"name":"index","type":"uint8","internalType":"uint8"},{"name":"newTp","type":"uint192","internalType":"uint192"}],"outputs":[],"stateMutability":"nonpayable"},{"type":"event","name":"TradeClosed","inputs":[{"name":"trader","type":"address","indexed":false,"internalType":"address"},{"name":"pairIndex","type":"uint16","indexed":false,"internalType":"uint16"},{"name":"index","type":"uint8","indexed":false,"internalType":"uint8"},{"name":"percentageClosed","type":"uint256","indexed":false,"internalType":"uint256"}],"anonymous":false},{"type":"event","name":"TradeOpened","inputs":[{"name":"trader","type":"address","indexed":false,"internalType":"address"},{"name":"pairIndex","type":"uint16","indexed":false,"internalType":"uint16"},{"name":"index","type":"uint8","indexed":false,"internalType":"uint8"},{"name":"collateral","type":"uint256","indexed":false,"internalType":"uint256"}],"anonymous":false}],"bytecode":{"object":"0x60803461007357601f6108f938819003918201601f19168301916001600160401b038311848410176100775780849260209460405283398101031261007357516001600160a01b03811690819003610073575f80546001600160a01b03191691909117905560405161086d908161008c8239f35b5f80fd5b634e487b7160e01b5f52604160045260245ffdfe6080806040526004361015610012575f80fd5b5f90813560e01c908163248d1fe614610734575080632630c12f1461070b578063530e784f146106c9578063742088c01461037d578063be9267be14610378578063e2441c04146103785763f2f319cf1461006b575f80fd5b346103755760a036600319011261037557610084610758565b61008c610769565b6044359160018060a01b0380855416906040516303acbacf60e21b815233600482015261ffff808516602483015260ff86166044830152610120918281606481885afa92831561036a578993610286575b50505080511561024d575191858302928084048714901517156102395790818793923b156102075760405163be6b93ad60e01b815233600482015261ffff8616602482015260ff87166044820152606481018890529084908290608490829084905af190811561022e57849161021a575b505416803b1561021657604051633aa10bfd60e21b81526001600160a01b0382166004820152336024820152612710909204604483015282908290606490829084905af1801561020b576101f3575b50506040805133815261ffff909216602083015260ff9092169181019190915260608101919091527f6fd4d7b6eb9f9394f20fac40355cbd5d277adbe4df79d2c6c7422082f27db5219080608081015b0390a180f35b6101fc906107bc565b61020757835f61019d565b8380fd5b6040513d84823e3d90fd5b8280fd5b610223906107bc565b61021657825f61014e565b6040513d86823e3d90fd5b634e487b7160e01b87526011600452602487fd5b60405162461bcd60e51b81526020600482015260116024820152704e6f20747261646520746f20636c6f736560781b6044820152606490fd5b9080929350813d8311610363575b61029e8183610801565b8101031261035f57604051916102b3836107e4565b815183526102c360208301610823565b60208401526102d460408301610823565b60408401526102e560608301610823565b60608401526080820151848116810361035b57608084015260a082015163ffffffff8116810361035b5760a084015260c082015190811681036103575760c083015260e081015160ff811681036103575760e083015261010080910151908115158203610357578201525f80806100dd565b8880fd5b8980fd5b8780fd5b503d610294565b6040513d8b823e3d90fd5b80fd5b61078f565b50346103755736600319016101a081126106c55761012013610375576040366101231901126103755760026101643510156103755780546001600160a01b0316803b156106c557604051633aa10bfd60e21b8152336004808301919091526001600160a01b03831660248301523560448201529082908290606490829084905af1801561020b576106b6575b50604051610416816107e4565b6004358152602435906001600160c01b03821682036106b25781602082015261043d610779565b60408201526064356001600160c01b03811681036106b25760608201526084356001600160a01b03811690036106b257608435608082015260a43563ffffffff811681036102075760a082015261ffff60c4351660c435036106b25760c43560c082015260ff60e4351660e435036106b257829160e43560e08301526101043580151581036106ad576101008301526001600160c01b03161580610699575b610615575b81546001600160a01b031690813b156106115760408051630d0a300560e21b81528251600482015260208301516001600160c01b03908116602483015291830151821660448201526060830151909116606482015260808201516001600160a01b0316608482015260a082015163ffffffff1660a482015260c082015161ffff1660c482015260e082015160ff1660e4820152610100909101511515610104820152908290829061012490829084905af1801561020b576105fd575b50604080516001600160a01b0360843516815261ffff60c43516602082015260ff60e435169181019190915260043560608201527ffd9ed5e9b03e1773be67328611fc03a55e84c5b0b69cf0f8957e5e4dd854d9989080608081016101ed565b610606906107bc565b61037557805f61059d565b5050fd5b60015460405163fefe46f160e01b815290602090829060049082906001600160a01b03165afa90811561068e57839161065d575b506001600160c01b031660208201526104e1565b90506020813d8211610686575b8161067760209383610801565b8101031261061157515f610649565b3d915061066a565b6040513d85823e3d90fd5b506001546001600160a01b031615156104dc565b505050fd5b5f80fd5b6106bf906107bc565b5f610409565b5080fd5b5034610375576020366003190112610375576004356001600160a01b038116908190036106c5576bffffffffffffffffffffffff60a01b600154161760015580f35b50346103755780600319360112610375576001546040516001600160a01b039091168152602090f35b9050346106c557816003193601126106c55790546001600160a01b03168152602090f35b6004359061ffff821682036106b257565b6024359060ff821682036106b257565b604435906001600160c01b03821682036106b257565b346106b25760603660031901126106b2576107a8610758565b506107b1610769565b506107ba610779565b005b67ffffffffffffffff81116107d057604052565b634e487b7160e01b5f52604160045260245ffd5b610120810190811067ffffffffffffffff8211176107d057604052565b90601f8019910116810190811067ffffffffffffffff8211176107d057604052565b51906001600160c01b03821682036106b25756fea26469706673582212203dc9278ecf298f35a35834393f0fd09d6ee22d452b6c756cd1db589dc079fd5064736f6c63430008140033","linkReferences":{}},"methodIdentifiers":{"closeTradeMarket(uint16,uint8,uint256,uint256,uint256)":"f2f319cf","openTrade((uint256,uint192,uint192,uint192,address,uint32,uint16,uint8,bool),(address,uint32),uint8,uint256)":"742088c0","priceOracle()":"2630c12f","setPriceOracle(address)":"530e784f","tradingStorage()":"248d1fe6","updateSl(uint16,uint8,uint192)":"e2441c04","updateTp(uint16,uint8,uint192)":"be9267be"},"id":60}