{"abi":[{"type":"constructor","inputs":[{"name":"_vaultToken","type":"address","internalType":"address"},{"name":"_treasury","type":"address","internalType":"address"},{"name":"_reserveBuffer","type":"address","internalType":"address"},{"name":"_owner","type":"address","internalType":"address"}],"stateMutability":"nonpayable"},{"type":"function","name":"TOTAL_BPS","inputs":[],"outputs":[{"name":"","type":"uint256","internalType":"uint256"}],"stateMutability":"view"},{"type":"function","name":"acceptOwnership","inputs":[],"outputs":[],"stateMutability":"nonpayable"},{"type":"function","name":"owner","inputs":[],"outputs":[{"name":"","type":"address","internalType":"address"}],"stateMutability":"view"},{"type":"function","name":"pendingOwner","inputs":[],"outputs":[{"name":"","type":"address","internalType":"address"}],"stateMutability":"view"},{"type":"function","name":"releasableReserve","inputs":[],"outputs":[{"name":"","type":"uint256","internalType":"uint256"}],"stateMutability":"view"},{"type":"function","name":"releasableTreasury","inputs":[],"outputs":[{"name":"","type":"uint256","internalType":"uint256"}],"stateMutability":"view"},{"type":"function","name":"releaseAll","inputs":[],"outputs":[],"stateMutability":"nonpayable"},{"type":"function","name":"releaseReserve","inputs":[],"outputs":[],"stateMutability":"nonpayable"},{"type":"function","name":"releaseTreasury","inputs":[],"outputs":[],"stateMutability":"nonpayable"},{"type":"function","name":"releasedReserve","inputs":[],"outputs":[{"name":"","type":"uint256","internalType":"uint256"}],"stateMutability":"view"},{"type":"function","name":"releasedTreasury","inputs":[],"outputs":[{"name":"","type":"uint256","internalType":"uint256"}],"stateMutability":"view"},{"type":"function","name":"renounceOwnership","inputs":[],"outputs":[],"stateMutability":"nonpayable"},{"type":"function","name":"reserveBuffer","inputs":[],"outputs":[{"name":"","type":"address","internalType":"address"}],"stateMutability":"view"},{"type":"function","name":"reserveShareBps","inputs":[],"outputs":[{"name":"","type":"uint256","internalType":"uint256"}],"stateMutability":"view"},{"type":"function","name":"setReserveBuffer","inputs":[{"name":"_newReserveBuffer","type":"address","internalType":"address"}],"outputs":[],"stateMutability":"nonpayable"},{"type":"function","name":"setRevenueSplit","inputs":[{"name":"_treasuryBps","type":"uint256","internalType":"uint256"},{"name":"_reserveBps","type":"uint256","internalType":"uint256"}],"outputs":[],"stateMutability":"nonpayable"},{"type":"function","name":"setTreasury","inputs":[{"name":"_newTreasury","type":"address","internalType":"address"}],"outputs":[],"stateMutability":"nonpayable"},{"type":"function","name":"syncTotalReceived","inputs":[],"outputs":[],"stateMutability":"nonpayable"},{"type":"function","name":"totalReceived","inputs":[],"outputs":[{"name":"","type":"uint256","internalType":"uint256"}],"stateMutability":"view"},{"type":"function","name":"transferOwnership","inputs":[{"name":"newOwner","type":"address","internalType":"address"}],"outputs":[],"stateMutability":"nonpayable"},{"type":"function","name":"treasury","inputs":[],"outputs":[{"name":"","type":"address","internalType":"address"}],"stateMutability":"view"},{"type":"function","name":"treasuryShareBps","inputs":[],"outputs":[{"name":"","type":"uint256","internalType":"uint256"}],"stateMutability":"view"},{"type":"function","name":"vaultToken","inputs":[],"outputs":[{"name":"","type":"address","internalType":"contract IERC20"}],"stateMutability":"view"},{"type":"event","name":"OwnershipTransferStarted","inputs":[{"name":"previousOwner","type":"address","indexed":true,"internalType":"address"},{"name":"newOwner","type":"address","indexed":true,"internalType":"address"}],"anonymous":false},{"type":"event","name":"OwnershipTransferred","inputs":[{"name":"previousOwner","type":"address","indexed":true,"internalType":"address"},{"name":"newOwner","type":"address","indexed":true,"internalType":"address"}],"anonymous":false},{"type":"event","name":"PaymentReceived","inputs":[{"name":"from","type":"address","indexed":true,"internalType":"address"},{"name":"amount","type":"uint256","indexed":false,"internalType":"uint256"}],"anonymous":false},{"type":"event","name":"PaymentReleased","inputs":[{"name":"to","type":"address","indexed":true,"internalType":"address"},{"name":"amount","type":"uint256","indexed":false,"internalType":"uint256"}],"anonymous":false},{"type":"event","name":"ReserveBufferUpdated","inputs":[{"name":"oldReserveBuffer","type":"address","indexed":true,"internalType":"address"},{"name":"newReserveBuffer","type":"address","indexed":true,"internalType":"address"}],"anonymous":false},{"type":"event","name":"RevenueSplitUpdated","inputs":[{"name":"treasuryBps","type":"uint256","indexed":false,"internalType":"uint256"},{"name":"reserveBps","type":"uint256","indexed":false,"internalType":"uint256"}],"anonymous":false},{"type":"event","name":"TreasuryUpdated","inputs":[{"name":"oldTreasury","type":"address","indexed":true,"internalType":"address"},{"name":"newTreasury","type":"address","indexed":true,"internalType":"address"}],"anonymous":false},{"type":"error","name":"InvalidSplit","inputs":[]},{"type":"error","name":"NoPaymentDue","inputs":[]},{"type":"error","name":"OwnableInvalidOwner","inputs":[{"name":"owner","type":"address","internalType":"address"}]},{"type":"error","name":"OwnableUnauthorizedAccount","inputs":[{"name":"account","type":"address","internalType":"address"}]},{"type":"error","name":"ReentrancyGuardReentrantCall","inputs":[]},{"type":"error","name":"SafeERC20FailedOperation","inputs":[{"name":"token","type":"address","internalType":"address"}]},{"type":"error","name":"ZeroAddress","inputs":[]}],"bytecode":{"object":"0x60a03461018057601f610e2e38819003918201601f191683019291906001600160401b038411838510176101845781608092849260409687528339810103126101805761004b81610198565b61005760208301610198565b9161006f6060610068868401610198565b9201610198565b60015f556001600160a01b03908116938415610169578160018060a01b031994856002541660025560015496808789161760015582895198167f8be0079c531659141344cd1fd0a4f28419497f9722a3daafe3b4186f6b6457e05f80a31694851561015a5750811691821561014957169283156101385760805281600354161760035560045416176004556123286005556103e860065551610c8190816101ad82396080518181816102ba015281816104e6015281816105bc01528181610a6f0152610b3d0152f35b845163d92e233d60e01b8152600490fd5b855163d92e233d60e01b8152600490fd5b63d92e233d60e01b8152600490fd5b8551631e4fbdf760e01b81525f6004820152602490fd5b5f80fd5b634e487b7160e01b5f52604160045260245ffd5b51906001600160a01b03821682036101805756fe60406080815260049081361015610014575f80fd5b5f91823560e01c80630c93a8a0146108465780631acf21a5146107c457806326a2eb88146107ab5780632b23bc54146107795780633047b6241461074457806330654a47146107255780635be7fde81461063357806361d027b31461060a57806365a7081f146105eb578063703bafd5146105a7578063715018a61461053d578063771cee39146103f057806379ba5097146103635780638da5cb5b1461033a578063a3c2c4621461031b578063ac14c8d0146102fc578063d3933ada14610252578063d3cd52bc14610235578063e30c39781461020c578063ee12628e146101ed578063f0f44260146101b5578063f2fde38b146101455763fbf682dc1461011b575f80fd5b346101415782600319360112610141575490516001600160a01b03909116815260209150f35b8280fd5b8382346101b15760203660031901126101b157356001600160a01b038181169182900361014157610174610871565b600280546001600160a01b03191683179055600154167f38d16b8cac22d99fc7c124b9cd0de2d3fa1faef420bfe791d8c362d765e227008380a380f35b5080fd5b8382346101b15760203660031901126101b157356001600160a01b03811681036101b1576101ea906101e5610871565b610993565b80f35b5050346101b157816003193601126101b1576020906006549051908152f35b5050346101b157816003193601126101b15760025490516001600160a01b039091168152602090f35b5050346101b157816003193601126101b157602090516127108152f35b503461014157826003193601126101415761026b610af9565b610273610a54565b80546001600160a01b039081169161028a83610b1a565b9283156102ed579183916102de836020956102b55f80516020610c2c8339815191529860095461089d565b6009557f00000000000000000000000000000000000000000000000000000000000000006108f4565b54169351908152a26001815580f35b50835163589b68c960e01b8152fd5b5050346101b157816003193601126101b1576020906008549051908152f35b5050346101b157816003193601126101b1576020906007549051908152f35b5050346101b157816003193601126101b15760015490516001600160a01b039091168152602090f35b509034610141578260031936011261014157600254916001600160a01b039133838516036103d95750506bffffffffffffffffffffffff60a01b8092166002556001549133908316176001553391167f8be0079c531659141344cd1fd0a4f28419497f9722a3daafe3b4186f6b6457e08380a380f35b60249250519063118cdaa760e01b82523390820152fd5b509190346101b157806003193601126101b1578235602435610410610871565b61271061041d828461089d565b0361052d577f6c8ba0b577cc4989572b185b5b1bc6584a837a7333975075b038b27c87ee30a4939461044d610a54565b6003546001600160a01b039190821661046581610b1a565b90816104d0575b50508181541661047b81610b1a565b928361049c575b50505050816005558060065582519182526020820152a180f35b5f80516020610c2c833981519152926104be856020946102b58260095461089d565b5416928651908152a25f808080610482565b8161050a916104e18260085461089d565b6008557f00000000000000000000000000000000000000000000000000000000000000006108f4565b5f80516020610c2c83398151915260208460035416928851908152a25f8061046c565b825163bcd55b0f60e01b81528590fd5b83346105a457806003193601126105a457610556610871565b600280546001600160a01b031990811690915560018054918216905581906001600160a01b03167f8be0079c531659141344cd1fd0a4f28419497f9722a3daafe3b4186f6b6457e08280a380f35b80fd5b5050346101b157816003193601126101b157517f00000000000000000000000000000000000000000000000000000000000000006001600160a01b03168152602090f35b5050346101b157816003193601126101b1576020906009549051908152f35b5050346101b157816003193601126101b15760035490516001600160a01b039091168152602090f35b50903461014157826003193601126101415761064d610af9565b610655610a54565b6003546001600160a01b039081169061066d82610b1a565b80159283156106f1575b5050808454169061068782610b1a565b9081159283156106bd575b505050816106b5575b506106a857826001815580f35b5163589b68c960e01b8152fd5b90505f61069b565b5f80516020610c2c833981519152916106df846020936102b58260095461089d565b875416928651908152a25f8080610692565b81610702916104e18260085461089d565b5f80516020610c2c83398151915260208360035416928651908152a25f80610677565b5050346101b157816003193601126101b1576020906005549051908152f35b8382346101b15760203660031901126101b157356001600160a01b03811681036101b1576101ea90610774610871565b6109ff565b5050346101b157816003193601126101b157600354602091906107a4906001600160a01b0316610b1a565b9051908152f35b83346105a457806003193601126105a4576101ea610a54565b50346101415782600319360112610141576107dd610af9565b6107e5610a54565b6003546001600160a01b039081166107fc81610b1a565b928315610838575091602091610827825f80516020610c2c833981519152956104e18260085461089d565b600354169351908152a26001815580f35b845163589b68c960e01b8152fd5b5091346105a457806003193601126105a457509054602091906107a4906001600160a01b0316610b1a565b6001546001600160a01b0316330361088557565b60405163118cdaa760e01b8152336004820152602490fd5b919082018092116108aa57565b634e487b7160e01b5f52601160045260245ffd5b90601f8019910116810190811067ffffffffffffffff8211176108e057604052565b634e487b7160e01b5f52604160045260245ffd5b60405163a9059cbb60e01b602082019081526001600160a01b0393841660248301526044808301959095529381529092608082019067ffffffffffffffff8211838310176108e0576020925f92604052519082865af115610988575f513d61097f57508082163b155b610965575050565b604051635274afe760e01b81529116600482015260249150fd5b6001141561095d565b6040513d5f823e3d90fd5b6001600160a01b039081169081156109ed57600354908116908183146109e8576001600160a01b03191682176003557f4ab5be82436d353e61ca18726e984e561f5c1cc7c6d38b29d2553c790434705a5f80a3565b505050565b60405163d92e233d60e01b8152600490fd5b6001600160a01b039081169081156109ed57600454908116908183146109e8576001600160a01b03191682176004557f0b91012283de7fe8c7c64bfd6f796c8eaf7f9ee232c08d869f804160758b1e205f80a3565b6040516370a0823160e01b81523060048201526020816024817f00000000000000000000000000000000000000000000000000000000000000006001600160a01b03165afa908115610988575f91610ac6575b50610ab8610ac1916008549061089d565b6009549061089d565b600755565b906020823d8211610af1575b81610adf602093836108be565b810103126105a4575051610ab8610aa7565b3d9150610ad2565b60025f5414610b085760025f55565b604051633ee5aeb560e01b8152600490fd5b6040516370a0823160e01b81523060048201526001600160a01b036020826024817f000000000000000000000000000000000000000000000000000000000000000085165afa918215610988575f92610bf8575b50610b7c600854809361089d565b90610b8a600954809361089d565b935f9180806003541692169182145f14610bd7575050505060055490915b8181029181830414901517156108aa57612710900490808211610bcb5750505f90565b81039081116108aa5790565b909192935060045416145f14610bf257506006549091610ba8565b91505090565b90916020823d8211610c23575b81610c12602093836108be565b810103126105a4575051905f610b6e565b3d9150610c0556fedf20fd1e76bc69d672e4814fafb2c449bba3a5369d8359adf9e05e6fde87b056a264697066735822122062d8ccc49c8a231e78dde6207b361731ac62362c208213b7aa3c5e17f05552d764736f6c63430008140033","linkReferences":{}},"methodIdentifiers":{"TOTAL_BPS()":"d3cd52bc","acceptOwnership()":"79ba5097","owner()":"8da5cb5b","pendingOwner()":"e30c3978","releasableReserve()":"0c93a8a0","releasableTreasury()":"2b23bc54","releaseAll()":"5be7fde8","releaseReserve()":"d3933ada","releaseTreasury()":"1acf21a5","releasedReserve()":"65a7081f","releasedTreasury()":"ac14c8d0","renounceOwnership()":"715018a6","reserveBuffer()":"fbf682dc","reserveShareBps()":"ee12628e","setReserveBuffer(address)":"3047b624","setRevenueSplit(uint256,uint256)":"771cee39","setTreasury(address)":"f0f44260","syncTotalReceived()":"26a2eb88","totalReceived()":"a3c2c462","transferOwnership(address)":"f2fde38b","treasury()":"61d027b3","treasuryShareBps()":"30654a47","vaultToken()":"703bafd5"},"id":48}