{"abi":[{"type":"constructor","inputs":[{"name":"_usdc","type":"address","internalType":"address"}],"stateMutability":"nonpayable"},{"type":"function","name":"closeTrade","inputs":[{"name":"trader","type":"address","internalType":"address"},{"name":"pairIndex","type":"uint16","internalType":"uint16"},{"name":"index","type":"uint8","internalType":"uint8"},{"name":"percentageClosed","type":"uint256","internalType":"uint256"}],"outputs":[],"stateMutability":"nonpayable"},{"type":"function","name":"getPnL","inputs":[{"name":"trader","type":"address","internalType":"address"},{"name":"pairIndex","type":"uint16","internalType":"uint16"},{"name":"index","type":"uint8","internalType":"uint8"}],"outputs":[{"name":"","type":"int256","internalType":"int256"}],"stateMutability":"view"},{"type":"function","name":"openLimitOrders","inputs":[{"name":"trader","type":"address","internalType":"address"},{"name":"pairIndex","type":"uint16","internalType":"uint16"},{"name":"index","type":"uint8","internalType":"uint8"}],"outputs":[{"name":"","type":"tuple","internalType":"struct IOstiumTradingStorage.Trade","components":[{"name":"collateral","type":"uint256","internalType":"uint256"},{"name":"openPrice","type":"uint192","internalType":"uint192"},{"name":"tp","type":"uint192","internalType":"uint192"},{"name":"sl","type":"uint192","internalType":"uint192"},{"name":"trader","type":"address","internalType":"address"},{"name":"leverage","type":"uint32","internalType":"uint32"},{"name":"pairIndex","type":"uint16","internalType":"uint16"},{"name":"index","type":"uint8","internalType":"uint8"},{"name":"buy","type":"bool","internalType":"bool"}]}],"stateMutability":"view"},{"type":"function","name":"openTrades","inputs":[{"name":"trader","type":"address","internalType":"address"},{"name":"pairIndex","type":"uint16","internalType":"uint16"},{"name":"index","type":"uint8","internalType":"uint8"}],"outputs":[{"name":"","type":"tuple","internalType":"struct IOstiumTradingStorage.Trade","components":[{"name":"collateral","type":"uint256","internalType":"uint256"},{"name":"openPrice","type":"uint192","internalType":"uint192"},{"name":"tp","type":"uint192","internalType":"uint192"},{"name":"sl","type":"uint192","internalType":"uint192"},{"name":"trader","type":"address","internalType":"address"},{"name":"leverage","type":"uint32","internalType":"uint32"},{"name":"pairIndex","type":"uint16","internalType":"uint16"},{"name":"index","type":"uint8","internalType":"uint8"},{"name":"buy","type":"bool","internalType":"bool"}]}],"stateMutability":"view"},{"type":"function","name":"setPnL","inputs":[{"name":"trader","type":"address","internalType":"address"},{"name":"pairIndex","type":"uint16","internalType":"uint16"},{"name":"index","type":"uint8","internalType":"uint8"},{"name":"pnl","type":"int256","internalType":"int256"}],"outputs":[],"stateMutability":"nonpayable"},{"type":"function","name":"simulatedPnL","inputs":[{"name":"","type":"address","internalType":"address"},{"name":"","type":"uint16","internalType":"uint16"},{"name":"","type":"uint8","internalType":"uint8"}],"outputs":[{"name":"","type":"int256","internalType":"int256"}],"stateMutability":"view"},{"type":"function","name":"storeTrade","inputs":[{"name":"t","type":"tuple","internalType":"struct IOstiumTradingStorage.Trade","components":[{"name":"collateral","type":"uint256","internalType":"uint256"},{"name":"openPrice","type":"uint192","internalType":"uint192"},{"name":"tp","type":"uint192","internalType":"uint192"},{"name":"sl","type":"uint192","internalType":"uint192"},{"name":"trader","type":"address","internalType":"address"},{"name":"leverage","type":"uint32","internalType":"uint32"},{"name":"pairIndex","type":"uint16","internalType":"uint16"},{"name":"index","type":"uint8","internalType":"uint8"},{"name":"buy","type":"bool","internalType":"bool"}]}],"outputs":[],"stateMutability":"nonpayable"},{"type":"function","name":"transferUsdc","inputs":[{"name":"from","type":"address","internalType":"address"},{"name":"to","type":"address","internalType":"address"},{"name":"amount","type":"uint256","internalType":"uint256"}],"outputs":[],"stateMutability":"nonpayable"},{"type":"function","name":"usdc","inputs":[],"outputs":[{"name":"","type":"address","internalType":"contract IERC20"}],"stateMutability":"view"},{"type":"error","name":"SafeERC20FailedOperation","inputs":[{"name":"token","type":"address","internalType":"address"}]}],"bytecode":{"object":"0x60803461007357601f61090338819003918201601f19168301916001600160401b038311848410176100775780849260209460405283398101031261007357516001600160a01b03811690819003610073575f80546001600160a01b031916919091179055604051610877908161008c8239f35b5f80fd5b634e487b7160e01b5f52604160045260245ffdfe60406080815260049081361015610014575f80fd5b5f91823560e01c9081630eb2eb3c1461067f5781633428c014146104cd5781633e413bee146104a557838263be6b93ad146103bc57508163c6b2735414610250578163d493d13914610231578163e14d3e49146101d3578163ea842ff4146100e5575063f1f6819514610085575f80fd5b346100e15760603660031901126100e157806020926100a26106f5565b6100aa61070f565b6100b2610720565b9160018060a01b031683526003865261ffff84842091168352855260ff83832091168252845220549051908152f35b5080fd5b8383346100e15760603660031901126100e1576101006106f5565b6024356001600160a01b0381811693918490036101cf5760443592811630810361018157508454169181519363a9059cbb60e01b60208601526024850152604484015260448352608083019083821067ffffffffffffffff83111761016e5761016b949550526107a5565b80f35b634e487b7160e01b855260418652602485fd5b939290855416928251946323b872dd60e01b60208701526024860152604485015260648401526064835260a083019083821067ffffffffffffffff83111761016e5761016b949550526107a5565b8480fd5b5050346100e15760803660031901126100e1576101ee6106f5565b6101f661070f565b6101fe610720565b9160018060a01b03168452600360205261ffff8385209116845260205260ff828420911683526020526064359082205580f35b5050346100e15760603660031901126100e157806020926100a26106f5565b919050346103b85760603660031901126103b85760ff6103b4936102726106f5565b908361027c61070f565b91610285610720565b61028d610761565b506001600160a01b0394851682526002602090815283832061ffff9586168452815283832091871683525220845195906102c687610730565b8054875260018060c01b03806001830154166020890152806002830154168789015260038201541660608801520154918216608086015263ffffffff8260a01c1660a08601528160c01c1660c0850152818160d01c1660e085015260d81c16151561010083015251918291829190916101208101928051825260018060c01b03806020830151166020840152806040830151166040840152606082015116606083015260018060a01b03608082015116608083015263ffffffff60a08201511660a083015261ffff60c08201511660c083015260ff60e08201511660e0830152610100809101511515910152565b0390f35b8280fd5b809184346104a15760803660031901126104a1576103d86106f5565b6103e061070f565b906103e9610720565b916064359160018060a01b03168087526020926001845261ffff868920931692838952845260ff86892095169485895284528588209061271090818110155f14610461575050508652600182528386209086528152828520918552528220828155826001820155826002820155826003820155015580f35b9550969550965050505082039082821161048e57835482810292818404149015171561048e575004905580f35b634e487b7160e01b855260119052602484fd5b5050fd5b5050346100e157816003193601126100e157905490516001600160a01b039091168152602090f35b919050346103b8576101203660031901126103b8576001600160a01b03806104f361080a565b168452602091600183528085209261ffff938461050e610820565b168752815281862060ff610520610831565b168752815281862080549094901561055c57505050508054918035830180931161054957505580f35b634e487b7160e01b845260119052602483fd5b9091928095945061056b61080a565b168652600182528286209061057e610820565b16865281528185209060ff610591610831565b168652528320813581556024356001600160c01b0381811691600184019083900361067b5767ffffffffffffffff60c01b9283825416179055600283016044358281168091036106775783825416179055600383019160643591821680920361067b57825416179055019061060461080a565b1681549060a43563ffffffff811681036101cf5761ffff60c01b610626610820565b60c01b169060ff60d01b610638610831565b60d01b1692610104358015158091036106775760ff60d81b9060d81b169463ffffffff60e01b16179063ffffffff60a01b9060a01b1617171717905580f35b8780fd5b8680fd5b919050346103b85760603660031901126103b85760ff6103b4936106a16106f5565b90836106ab61070f565b916106b4610720565b6106bc610761565b506001600160a01b0394851682526001602090815283832061ffff9586168452815283832091871683525220845195906102c687610730565b600435906001600160a01b038216820361070b57565b5f80fd5b6024359061ffff8216820361070b57565b6044359060ff8216820361070b57565b610120810190811067ffffffffffffffff82111761074d57604052565b634e487b7160e01b5f52604160045260245ffd5b6040519061076e82610730565b816101005f918281528260208201528260408201528260608201528260808201528260a08201528260c08201528260e08201520152565b905f602091828151910182855af1156107ff575f513d6107f657506001600160a01b0381163b155b6107d45750565b604051635274afe760e01b81526001600160a01b039091166004820152602490fd5b600114156107cd565b6040513d5f823e3d90fd5b6084356001600160a01b038116810361070b5790565b60c43561ffff8116810361070b5790565b60e43560ff8116810361070b579056fea2646970667358221220aad3eb53a7b6a29ef401d15912f38b4d07d4114a5ddc7e897b0718d599dca85f64736f6c63430008140033","linkReferences":{}},"methodIdentifiers":{"closeTrade(address,uint16,uint8,uint256)":"be6b93ad","getPnL(address,uint16,uint8)":"d493d139","openLimitOrders(address,uint16,uint8)":"c6b27354","openTrades(address,uint16,uint8)":"0eb2eb3c","setPnL(address,uint16,uint8,int256)":"e14d3e49","simulatedPnL(address,uint16,uint8)":"f1f68195","storeTrade((uint256,uint192,uint192,uint192,address,uint32,uint16,uint8,bool))":"3428c014","transferUsdc(address,address,uint256)":"ea842ff4","usdc()":"3e413bee"},"id":61}