{"abi":[{"type":"constructor","inputs":[{"name":"_usdc","type":"address","internalType":"address"},{"name":"_eulerVault","type":"address","internalType":"address"},{"name":"_vault","type":"address","internalType":"address"},{"name":"_marketTier","type":"uint256","internalType":"uint256"},{"name":"_riskScore","type":"uint256","internalType":"uint256"}],"stateMutability":"nonpayable"},{"type":"function","name":"currentAPY","inputs":[],"outputs":[{"name":"","type":"uint256","internalType":"uint256"}],"stateMutability":"view"},{"type":"function","name":"deposit","inputs":[{"name":"amount","type":"uint256","internalType":"uint256"}],"outputs":[{"name":"shares","type":"uint256","internalType":"uint256"}],"stateMutability":"nonpayable"},{"type":"function","name":"emergencyWithdraw","inputs":[],"outputs":[{"name":"amount","type":"uint256","internalType":"uint256"}],"stateMutability":"nonpayable"},{"type":"function","name":"eulerVault","inputs":[],"outputs":[{"name":"","type":"address","internalType":"contract IERC4626"}],"stateMutability":"view"},{"type":"function","name":"getEulerVaultInfo","inputs":[],"outputs":[{"name":"asset","type":"address","internalType":"address"},{"name":"vaultTotalAssets","type":"uint256","internalType":"uint256"},{"name":"totalSupply","type":"uint256","internalType":"uint256"},{"name":"sharePrice","type":"uint256","internalType":"uint256"}],"stateMutability":"view"},{"type":"function","name":"getMetadata","inputs":[],"outputs":[{"name":"name","type":"string","internalType":"string"},{"name":"protocol","type":"string","internalType":"string"},{"name":"risk","type":"uint256","internalType":"uint256"},{"name":"isActive","type":"bool","internalType":"bool"}],"stateMutability":"view"},{"type":"function","name":"lastKnownAPY","inputs":[],"outputs":[{"name":"","type":"uint256","internalType":"uint256"}],"stateMutability":"view"},{"type":"function","name":"marketTier","inputs":[],"outputs":[{"name":"","type":"uint256","internalType":"uint256"}],"stateMutability":"view"},{"type":"function","name":"maxWithdraw","inputs":[{"name":"owner","type":"address","internalType":"address"}],"outputs":[{"name":"","type":"uint256","internalType":"uint256"}],"stateMutability":"view"},{"type":"function","name":"owner","inputs":[],"outputs":[{"name":"","type":"address","internalType":"address"}],"stateMutability":"view"},{"type":"function","name":"renounceOwnership","inputs":[],"outputs":[],"stateMutability":"nonpayable"},{"type":"function","name":"riskScore","inputs":[],"outputs":[{"name":"","type":"uint256","internalType":"uint256"}],"stateMutability":"view"},{"type":"function","name":"totalAssets","inputs":[],"outputs":[{"name":"","type":"uint256","internalType":"uint256"}],"stateMutability":"view"},{"type":"function","name":"transferOwnership","inputs":[{"name":"newOwner","type":"address","internalType":"address"}],"outputs":[],"stateMutability":"nonpayable"},{"type":"function","name":"updateAPY","inputs":[{"name":"newAPY","type":"uint256","internalType":"uint256"}],"outputs":[],"stateMutability":"nonpayable"},{"type":"function","name":"usdc","inputs":[],"outputs":[{"name":"","type":"address","internalType":"contract IERC20"}],"stateMutability":"view"},{"type":"function","name":"vault","inputs":[],"outputs":[{"name":"","type":"address","internalType":"address"}],"stateMutability":"view"},{"type":"function","name":"withdraw","inputs":[{"name":"amount","type":"uint256","internalType":"uint256"}],"outputs":[{"name":"actualAmount","type":"uint256","internalType":"uint256"}],"stateMutability":"nonpayable"},{"type":"function","name":"withdrawAll","inputs":[],"outputs":[{"name":"amount","type":"uint256","internalType":"uint256"}],"stateMutability":"nonpayable"},{"type":"event","name":"APYUpdated","inputs":[{"name":"oldAPY","type":"uint256","indexed":false,"internalType":"uint256"},{"name":"newAPY","type":"uint256","indexed":false,"internalType":"uint256"}],"anonymous":false},{"type":"event","name":"APYUpdated","inputs":[{"name":"oldAPY","type":"uint256","indexed":false,"internalType":"uint256"},{"name":"newAPY","type":"uint256","indexed":false,"internalType":"uint256"},{"name":"timestamp","type":"uint256","indexed":false,"internalType":"uint256"}],"anonymous":false},{"type":"event","name":"Deposited","inputs":[{"name":"amount","type":"uint256","indexed":false,"internalType":"uint256"},{"name":"shares","type":"uint256","indexed":false,"internalType":"uint256"}],"anonymous":false},{"type":"event","name":"EmergencyWithdrawal","inputs":[{"name":"amount","type":"uint256","indexed":false,"internalType":"uint256"}],"anonymous":false},{"type":"event","name":"OwnershipTransferred","inputs":[{"name":"previousOwner","type":"address","indexed":true,"internalType":"address"},{"name":"newOwner","type":"address","indexed":true,"internalType":"address"}],"anonymous":false},{"type":"event","name":"Withdrawn","inputs":[{"name":"amount","type":"uint256","indexed":false,"internalType":"uint256"},{"name":"shares","type":"uint256","indexed":false,"internalType":"uint256"}],"anonymous":false},{"type":"error","name":"DepositFailed","inputs":[]},{"type":"error","name":"InsufficientAssets","inputs":[]},{"type":"error","name":"OnlyVault","inputs":[]},{"type":"error","name":"OwnableInvalidOwner","inputs":[{"name":"owner","type":"address","internalType":"address"}]},{"type":"error","name":"OwnableUnauthorizedAccount","inputs":[{"name":"account","type":"address","internalType":"address"}]},{"type":"error","name":"SafeERC20FailedOperation","inputs":[{"name":"token","type":"address","internalType":"address"}]},{"type":"error","name":"WithdrawFailed","inputs":[]}],"bytecode":{"object":"0x610120604081815234620003af5760a082620015ee8038038091620000258285620003b3565b833981010312620003af576200003b82620003eb565b6020906200004b828501620003eb565b9062000059848601620003eb565b946080606082015191015195331562000398575f8054336001600160a01b03198216811783558851966001600160a01b0396939593909287929083167f8be0079c531659141344cd1fd0a4f28419497f9722a3daafe3b4186f6b6457e08880a3169586156200036757508416918215620003235784811615620002ef57600182101580620002e3575b15620002b057600189101580620002a4575b156200026b57918691600493876080528260a05260c05260e0526101009889528751928380926338d52e0f60e01b82525afa918215620002605780926200021d575b50501603620001db5750516111ed91826200040183396080518281816105c10152610a9c015260a0518281816102b9015281816104b901528181610634015281816109fe01528181610b3001528181610e1201528181610f6f015261105b015260c051828181610104015281816105920152818161083801528181610ae20152610e72015260e05182818161023f015261089701525181818161054d015261096a0152f35b606491519062461bcd60e51b82526004820152601460248201527f5661756c74206173736574206d69736d617463680000000000000000000000006044820152fd5b9091508482813d831162000258575b620002388183620003b3565b810103126200025557506200024d90620003eb565b5f8062000136565b80fd5b503d6200022c565b8651903d90823e3d90fd5b875162461bcd60e51b8152600481018890526012602482015271496e76616c6964207269736b2073636f726560701b6044820152606490fd5b50600a891115620000f4565b875162461bcd60e51b815260048101889052600c60248201526b24b73b30b634b2103a34b2b960a11b6044820152606490fd5b506003821115620000e2565b875162461bcd60e51b815260048101889052600d60248201526c125b9d985b1a59081d985d5b1d609a1b6044820152606490fd5b875162461bcd60e51b815260048101889052601360248201527f496e76616c69642045756c6572207661756c74000000000000000000000000006044820152606490fd5b62461bcd60e51b815260048101889052600c60248201526b496e76616c6964205553444360a01b6044820152606490fd5b8551631e4fbdf760e01b81525f6004820152602490fd5b5f80fd5b601f909101601f19168101906001600160401b03821190821017620003d757604052565b634e487b7160e01b5f52604160045260245ffd5b51906001600160a01b0382168203620003af5756fe60406080815260049081361015610014575f80fd5b5f91823560e01c90816301e1d11414610c9b5781632e1a7d4d14610acb5781633e413bee14610a87578163715018a614610a2d578163758b8dc3146109e95781637a5b4f591461087e578163853828b6146108235781638da5cb5b146107fb57816394c80966146107dc5781639a79d32b146107dc578163b6b55f2514610570578163bfd0299114610535578163ce96cb7714610476578163d16939e71461028e578163db2e21bc14610262578163e7f2eb8514610227578163f2fde38b14610198578163fae728cd14610137575063fbfa77cf146100f1575f80fd5b34610133578160031936011261013357517f00000000000000000000000000000000000000000000000000000000000000006001600160a01b03168152602090f35b5080fd5b905034610194576020366003190112610194577f4ba63353cbc1a353a58aa520c08c7762086d485c230e8f4bf4ea15fdf37b30f6916060913590610179610cfe565b6001549180600155815192835260208301524290820152a180f35b8280fd5b91905034610194576020366003190112610194576001600160a01b03823581811693919290849003610223576101cc610cfe565b831561020d57505082546001600160a01b0319811683178455167f8be0079c531659141344cd1fd0a4f28419497f9722a3daafe3b4186f6b6457e08380a380f35b51631e4fbdf760e01b8152908101849052602490fd5b8480fd5b505034610133578160031936011261013357602090517f00000000000000000000000000000000000000000000000000000000000000008152f35b50503461013357816003193601126101335760209061027f610cfe565b61028761103b565b9051908152f35b9190503461019457826003193601126101945780516338d52e0f60e01b8152906001600160a01b03907f00000000000000000000000000000000000000000000000000000000000000008216602080858781855afa94851561046c578795610430575b5082516278744560e21b81529681888881865afa9283156103ea5787988298969798946103f6575b5082908551968780926318160ddd60e01b82525afa9485156103ea5781956103bb575b50841590816103a657670de0b6b3a76400009182850292858404148515171561039357610380575060809750849004945b8351961686528501528301526060820152f35b634e487b7160e01b815260128952602490fd5b634e487b7160e01b825260118a52602482fd5b505060809650670de0b6b3a76400009461036d565b9094508181813d83116103e3575b6103d38183610d75565b810103126102235751935f61033c565b503d6103c9565b508351903d90823e3d90fd5b83809550819394929697503d8311610429575b6104138183610d75565b8101031261013357518794939092919082610319565b503d610409565b9080955081813d8311610465575b6104488183610d75565b810103126104615751838116810361046157935f6102f1565b8680fd5b503d61043e565b83513d89823e3d90fd5b8383346101335760209283600319360112610194576001600160a01b0390803582811603610531578490602484518094819363ce96cb7760e01b835230908301527f0000000000000000000000000000000000000000000000000000000000000000165afa9283156105265780936104f1575b505051908152f35b909192508382813d831161051f575b61050a8183610d75565b8101031261051c5750519083806104e9565b80fd5b503d610500565b8251903d90823e3d90fd5b8380fd5b505034610133578160031936011261013357602090517f00000000000000000000000000000000000000000000000000000000000000008152f35b8383346101335760209283600319360112610194578035906001600160a01b037f0000000000000000000000000000000000000000000000000000000000000000811633036107cd5782156107be577f0000000000000000000000000000000000000000000000000000000000000000908451906323b872dd60e01b8883015233602483015260449130838201528560648201526064815260a0810181811067ffffffffffffffff8211176107ab57916106318a94928a96948a5284610d97565b807f0000000000000000000000000000000000000000000000000000000000000000169288519085820192868863095ea7b360e01b958681528860248701528c8887015287865261068186610d59565b85519082865af1903d8951908361078a575b50505015610752575b505050865180948193636e553f6560e01b835288888401523060248401525af1948515610747578095610715575b505083156107075750817f06da3309189fa49284f335d2c2bcb4cb0b8ad2a59ad92a9bdebeeb8f1ceba5119181519081528486820152a151908152f35b82516379cacff160e01b8152fd5b909194508582813d8311610740575b61072e8183610d75565b8101031261051c5750519285806106ca565b503d610724565b8451903d90823e3d90fd5b61077d610782938b519088820152866024820152888682015285815261077781610d59565b82610d97565b610d97565b89808061069c565b919250906107a1575081163b15155b8d8080610693565b6001915014610799565b634e487b7160e01b895260418652602489fd5b5082516379cacff160e01b8152fd5b508251638d1af8bd60e01b8152fd5b5050346101335781600319360112610133576020906001549051908152f35b505034610133578160031936011261013357905490516001600160a01b039091168152602090f35b82843461051c578060031936011261051c57507f00000000000000000000000000000000000000000000000000000000000000006001600160a01b0316330361087157602090610287610dfc565b51638d1af8bd60e01b8152fd5b50503461013357816003193601126101335761095991507f000000000000000000000000000000000000000000000000000000000000000060018103610998575080516108ca81610d29565b600a81526910dbdb1b185d195c985b60b21b6020820152905b610923602b825180946a022bab632b9102aa9a221960ad1b60208301526109138151809260208686019101610cb8565b810103600b810185520183610d75565b610967815161093181610d29565b600881526722bab632b9103b1960c11b60208201528251948594608086526080860190610cd9565b908482036020860152610cd9565b907f000000000000000000000000000000000000000000000000000000000000000090830152600160608301520390f35b6002036109c65780516109aa81610d29565b600981526824b9b7b630ba34b7b760b91b6020820152906108e3565b80516109d181610d29565b600581526443726f737360d81b6020820152906108e3565b505034610133578160031936011261013357517f00000000000000000000000000000000000000000000000000000000000000006001600160a01b03168152602090f35b833461051c578060031936011261051c57610a46610cfe565b80546001600160a01b03198116825581906001600160a01b03167f8be0079c531659141344cd1fd0a4f28419497f9722a3daafe3b4186f6b6457e08280a380f35b505034610133578160031936011261013357517f00000000000000000000000000000000000000000000000000000000000000006001600160a01b03168152602090f35b8383346101335760209283600319360112610194577f0000000000000000000000000000000000000000000000000000000000000000908035906001600160a01b038084163303610c8c57828015610c7c57610b25610f5a565b809111610c74575b507f000000000000000000000000000000000000000000000000000000000000000016845192630a28a47760e01b8452828401528683602481845afa928315610c6a57908792918794610c33575b508551635d043b2960e11b81529182018481526001600160a01b0390951660208601523060408601529293909283918290889082906060015b03925af1938415610c28578094610be9575b5050815f805160206111988339815191529181519085825286820152a151908152f35b909193508482813d8311610c21575b610c028183610d75565b8101031261051c57505191815f80516020611198833981519152610bc6565b503d610bf8565b8351903d90823e3d90fd5b9193509181813d8111610c63575b610c4b8183610d75565b81010312610c5f5751918691610bb4610b7b565b8580fd5b503d610c41565b85513d88823e3d90fd5b925087610b2d565b8551631d42c86760e21b81528390fd5b508351638d1af8bd60e01b8152fd5b505034610133578160031936011261013357602090610287610f5a565b5f5b838110610cc95750505f910152565b8181015183820152602001610cba565b90602091610cf281518092818552858086019101610cb8565b601f01601f1916010190565b5f546001600160a01b03163303610d1157565b60405163118cdaa760e01b8152336004820152602490fd5b6040810190811067ffffffffffffffff821117610d4557604052565b634e487b7160e01b5f52604160045260245ffd5b6080810190811067ffffffffffffffff821117610d4557604052565b90601f8019910116810190811067ffffffffffffffff821117610d4557604052565b905f602091828151910182855af115610df1575f513d610de857506001600160a01b0381163b155b610dc65750565b604051635274afe760e01b81526001600160a01b039091166004820152602490fd5b60011415610dbf565b6040513d5f823e3d90fd5b604080516370a0823160e01b81523060048201527f00000000000000000000000000000000000000000000000000000000000000006001600160a01b03169260209290918381602481885afa908115610f1a575f91610f2d575b508015610f24578151635d043b2960e11b8152600481018290527f00000000000000000000000000000000000000000000000000000000000000006001600160a01b03166024820152306044820152948490869060649082905f905af1948515610f1a575f95610ee0575b5081518581529384015290915f805160206111988339815191529190a1565b8481813d8311610f13575b610ef58183610d75565b81010312610c5f575194505f80516020611198833981519152610ec1565b503d610eeb565b82513d5f823e3d90fd5b50509150505f90565b908482813d8311610f53575b610f438183610d75565b8101031261051c5750515f610e56565b503d610f39565b6040516370a0823160e01b81523060048201527f00000000000000000000000000000000000000000000000000000000000000006001600160a01b0316906020908181602481865afa8015610df15782915f9161100d575b506024604051809581936303d1689d60e11b835260048301525afa908115610df1575f91610fe1575b50905090565b82813d8311611006575b610ff58183610d75565b8101031261051c575051805f610fdb565b503d610feb565b9182813d8311611034575b6110228183610d75565b8101031261051c57508190515f610fb2565b503d611018565b6040516370a0823160e01b81523060048201529060206001600160a01b037f00000000000000000000000000000000000000000000000000000000000000008116908285602481855afa948515610df1575f95611168575b508415611160575f8054604051635d043b2960e11b81526004810197909752919091166001600160a01b03166024860152306044860152829185916064918391905af1928315610df1575f93611111575b507fcbba13897c2ac3f7fdb11e857b1a5a5c47f51e3fbeffa74d430f2b06177b45c09083604051908152a1565b90928382813d8311611159575b6111288183610d75565b8101031261051c575051917fcbba13897c2ac3f7fdb11e857b1a5a5c47f51e3fbeffa74d430f2b06177b45c06110e4565b503d61111e565b505f93505050565b90948382813d8311611190575b61117f8183610d75565b8101031261051c575051935f611093565b503d61117556fe0c875c8d391179c5cf7ad8303d268efd50b8beb78b671f85cd54bfb91eb8ef40a26469706673582212203567b83eebf64f118e1bc4b3570740d9a621f2c80bdfa27d78d85447f8e769b264736f6c63430008140033","linkReferences":{}},"methodIdentifiers":{"currentAPY()":"9a79d32b","deposit(uint256)":"b6b55f25","emergencyWithdraw()":"db2e21bc","eulerVault()":"758b8dc3","getEulerVaultInfo()":"d16939e7","getMetadata()":"7a5b4f59","lastKnownAPY()":"94c80966","marketTier()":"e7f2eb85","maxWithdraw(address)":"ce96cb77","owner()":"8da5cb5b","renounceOwnership()":"715018a6","riskScore()":"bfd02991","totalAssets()":"01e1d114","transferOwnership(address)":"f2fde38b","updateAPY(uint256)":"fae728cd","usdc()":"3e413bee","vault()":"fbfa77cf","withdraw(uint256)":"2e1a7d4d","withdrawAll()":"853828b6"},"id":64}