{"abi":[{"type":"constructor","inputs":[{"name":"initialPrice","type":"int256","internalType":"int256"},{"name":"_decimals","type":"uint8","internalType":"uint8"}],"stateMutability":"nonpayable"},{"type":"function","name":"decimals","inputs":[],"outputs":[{"name":"","type":"uint8","internalType":"uint8"}],"stateMutability":"view"},{"type":"function","name":"getGBPUSDPrice","inputs":[],"outputs":[{"name":"","type":"uint256","internalType":"uint256"}],"stateMutability":"view"},{"type":"function","name":"latestRoundData","inputs":[],"outputs":[{"name":"","type":"uint80","internalType":"uint80"},{"name":"","type":"int256","internalType":"int256"},{"name":"","type":"uint256","internalType":"uint256"},{"name":"","type":"uint256","internalType":"uint256"},{"name":"","type":"uint80","internalType":"uint80"}],"stateMutability":"view"},{"type":"function","name":"price","inputs":[],"outputs":[{"name":"","type":"int256","internalType":"int256"}],"stateMutability":"view"},{"type":"function","name":"setPrice","inputs":[{"name":"newPrice","type":"int256","internalType":"int256"}],"outputs":[],"stateMutability":"nonpayable"},{"type":"function","name":"updateRoundData","inputs":[{"name":"_answer","type":"int256","internalType":"int256"},{"name":"_startedAt","type":"uint256","internalType":"uint256"},{"name":"_updatedAt","type":"uint256","internalType":"uint256"},{"name":"_answeredInRound","type":"uint80","internalType":"uint80"}],"outputs":[],"stateMutability":"nonpayable"}],"bytecode":{"object":"0x60a03461007e57601f6102bb38819003918201601f19168301916001600160401b0383118484101761008257808492604094855283398101031261007e57602081519101519060ff8216820361007e575f55608052600180546001600160501b0319168117905560405161022490816100978239608051816101560152f35b5f80fd5b634e487b7160e01b5f52604160045260245ffdfe6040608081526004361015610012575f80fd5b5f803560e01c80632d58031f1461017a578063313ce5671461013c578063a035b1fe1461011f578063f7a30806146100ff578063feaf968c146100b75763fefe46f11461005d575f80fd5b346100b457806003193601126100b4578054908113156100805760209151908152f35b815162461bcd60e51b815260206004820152600d60248201526c496e76616c696420707269636560981b6044820152606490fd5b80fd5b5090346100fb57816003193601126100fb5760a09169ffffffffffffffffffff60015416905491805192828452602084015242908301524260608301526080820152f35b5080fd5b50346100b45760203660031901126100b45761011c6004356101a8565b80f35b5090346100fb57816003193601126100fb57602091549051908152f35b5090346100fb57816003193601126100fb576020905160ff7f0000000000000000000000000000000000000000000000000000000000000000168152f35b50346100b45760803660031901126100b45760643569ffffffffffffffffffff8116036100b45761011c6004355b5f5560015469ffffffffffffffffffff8082168181146101da57600101169069ffffffffffffffffffff191617600155565b634e487b7160e01b5f52601160045260245ffdfea26469706673582212205435e3957a0cc4d0c59aa93e150fb5ddb79dd8acb45e327a6f9b0b80542f6f3a64736f6c63430008140033","linkReferences":{}},"methodIdentifiers":{"decimals()":"313ce567","getGBPUSDPrice()":"fefe46f1","latestRoundData()":"feaf968c","price()":"a035b1fe","setPrice(int256)":"f7a30806","updateRoundData(int256,uint256,uint256,uint80)":"2d58031f"},"id":57}