{"abi":[{"type":"constructor","inputs":[{"name":"_gbpUsdFeed","type":"address","internalType":"address"},{"name":"_maxPriceAge","type":"uint256","internalType":"uint256"},{"name":"_owner","type":"address","internalType":"address"}],"stateMutability":"nonpayable"},{"type":"function","name":"_getPriceFromFeed","inputs":[{"name":"feed","type":"address","internalType":"contract AggregatorV3Interface"}],"outputs":[{"name":"price","type":"uint256","internalType":"uint256"}],"stateMutability":"view"},{"type":"function","name":"backupFeed","inputs":[],"outputs":[{"name":"","type":"address","internalType":"contract AggregatorV3Interface"}],"stateMutability":"view"},{"type":"function","name":"convertGBPtoUSD","inputs":[{"name":"gbpValue","type":"uint256","internalType":"uint256"}],"outputs":[{"name":"usdAmount","type":"uint256","internalType":"uint256"}],"stateMutability":"view"},{"type":"function","name":"convertUSDtoGBP","inputs":[{"name":"usdAmount","type":"uint256","internalType":"uint256"}],"outputs":[{"name":"gbpValue","type":"uint256","internalType":"uint256"}],"stateMutability":"view"},{"type":"function","name":"decimals","inputs":[],"outputs":[{"name":"","type":"uint8","internalType":"uint8"}],"stateMutability":"view"},{"type":"function","name":"gbpUsdFeed","inputs":[],"outputs":[{"name":"","type":"address","internalType":"contract AggregatorV3Interface"}],"stateMutability":"view"},{"type":"function","name":"getGBPUSDPrice","inputs":[],"outputs":[{"name":"price","type":"uint256","internalType":"uint256"}],"stateMutability":"view"},{"type":"function","name":"getGBPUSDPriceWithTimestamp","inputs":[],"outputs":[{"name":"price","type":"uint256","internalType":"uint256"},{"name":"updatedAt","type":"uint256","internalType":"uint256"}],"stateMutability":"view"},{"type":"function","name":"getGBPUSDPriceWithValidation","inputs":[],"outputs":[{"name":"price","type":"uint256","internalType":"uint256"},{"name":"isValid","type":"bool","internalType":"bool"}],"stateMutability":"view"},{"type":"function","name":"maxPrice","inputs":[],"outputs":[{"name":"","type":"uint256","internalType":"uint256"}],"stateMutability":"view"},{"type":"function","name":"maxPriceAge","inputs":[],"outputs":[{"name":"","type":"uint256","internalType":"uint256"}],"stateMutability":"view"},{"type":"function","name":"minPrice","inputs":[],"outputs":[{"name":"","type":"uint256","internalType":"uint256"}],"stateMutability":"view"},{"type":"function","name":"owner","inputs":[],"outputs":[{"name":"","type":"address","internalType":"address"}],"stateMutability":"view"},{"type":"function","name":"renounceOwnership","inputs":[],"outputs":[],"stateMutability":"nonpayable"},{"type":"function","name":"setBackupFeed","inputs":[{"name":"_backupFeed","type":"address","internalType":"address"}],"outputs":[],"stateMutability":"nonpayable"},{"type":"function","name":"setMaxPriceAge","inputs":[{"name":"newMaxAge","type":"uint256","internalType":"uint256"}],"outputs":[],"stateMutability":"nonpayable"},{"type":"function","name":"setPriceBounds","inputs":[{"name":"_minPrice","type":"uint256","internalType":"uint256"},{"name":"_maxPrice","type":"uint256","internalType":"uint256"}],"outputs":[],"stateMutability":"nonpayable"},{"type":"function","name":"setUseBackup","inputs":[{"name":"_enabled","type":"bool","internalType":"bool"}],"outputs":[],"stateMutability":"nonpayable"},{"type":"function","name":"transferOwnership","inputs":[{"name":"newOwner","type":"address","internalType":"address"}],"outputs":[],"stateMutability":"nonpayable"},{"type":"function","name":"useBackup","inputs":[],"outputs":[{"name":"","type":"bool","internalType":"bool"}],"stateMutability":"view"},{"type":"event","name":"BackupFeedToggled","inputs":[{"name":"enabled","type":"bool","indexed":false,"internalType":"bool"}],"anonymous":false},{"type":"event","name":"BackupFeedUpdated","inputs":[{"name":"backupFeed","type":"address","indexed":true,"internalType":"address"}],"anonymous":false},{"type":"event","name":"MaxPriceAgeUpdated","inputs":[{"name":"oldAge","type":"uint256","indexed":false,"internalType":"uint256"},{"name":"newAge","type":"uint256","indexed":false,"internalType":"uint256"}],"anonymous":false},{"type":"event","name":"OwnershipTransferred","inputs":[{"name":"previousOwner","type":"address","indexed":true,"internalType":"address"},{"name":"newOwner","type":"address","indexed":true,"internalType":"address"}],"anonymous":false},{"type":"event","name":"PriceBoundsUpdated","inputs":[{"name":"minPrice","type":"uint256","indexed":false,"internalType":"uint256"},{"name":"maxPrice","type":"uint256","indexed":false,"internalType":"uint256"}],"anonymous":false},{"type":"event","name":"PriceFetched","inputs":[{"name":"price","type":"int256","indexed":false,"internalType":"int256"},{"name":"timestamp","type":"uint256","indexed":false,"internalType":"uint256"}],"anonymous":false},{"type":"error","name":"DecimalsMismatch","inputs":[]},{"type":"error","name":"FeedNotResponsive","inputs":[]},{"type":"error","name":"InvalidMaxAge","inputs":[]},{"type":"error","name":"InvalidPrice","inputs":[]},{"type":"error","name":"OwnableInvalidOwner","inputs":[{"name":"owner","type":"address","internalType":"address"}]},{"type":"error","name":"OwnableUnauthorizedAccount","inputs":[{"name":"account","type":"address","internalType":"address"}]},{"type":"error","name":"PriceOutOfBounds","inputs":[]},{"type":"error","name":"StalePrice","inputs":[]}],"bytecode":{"object":"0x60a03461019a57601f61110a38819003918201601f191683019291906001600160401b0384118385101761019e57816060928492604096875283398101031261019a5761004b816101b2565b6020820151916001600160a01b039081906100679086016101b2565b16918215610183575f80546001600160a01b031981168517825586519491908416907f8be0079c531659141344cd1fd0a4f28419497f9722a3daafe3b4186f6b6457e09080a3169081156101415750811561010b576080526002556306dac2c06003556308583b0060045551610f4390816101c782396080518181816102f2015281816105070152818161096801528181610a5201528181610c910152610e1f0152f35b825162461bcd60e51b815260206004820152600f60248201526e496e76616c6964206d61782061676560881b6044820152606490fd5b62461bcd60e51b815260206004820152601460248201527f496e76616c6964206665656420616464726573730000000000000000000000006044820152606490fd5b8451631e4fbdf760e01b81525f6004820152602490fd5b5f80fd5b634e487b7160e01b5f52604160045260245ffd5b51906001600160a01b038216820361019a5756fe6080604081815260049182361015610015575f80fd5b5f92833560e01c9182631584410a14610bfc5750816319b9dfb514610ac3578163313ce56714610a2a5781633fa2686114610941578163442643201461082b57816346f9b420146107be578163499e67e8146107955781634e9cbca2146104cd57816356447ce8146104615781635909568f146103ce5781636b092fd1146103a5578163715018a614610348578163769087dc146103215781637c115883146102dd5781638a178a911461021c5781638da5cb5b146101f4578163e38d6b5c146101d6578163e45be8eb146101b7578163f2fde38b14610124575063fefe46f1146100fe575f80fd5b34610120578160031936011261012057602090610119610c79565b9051908152f35b5080fd5b919050346101b35760203660031901126101b3576001600160a01b038235818116939192908490036101af57610158610c18565b831561019957505082546001600160a01b0319811683178455167f8be0079c531659141344cd1fd0a4f28419497f9722a3daafe3b4186f6b6457e08380a380f35b51631e4fbdf760e01b8152908101849052602490fd5b8480fd5b8280fd5b5050346101205781600319360112610120576020906003549051908152f35b9050346101b357826003193601126101b35760209250549051908152f35b505034610120578160031936011261012057905490516001600160a01b039091168152602090f35b8391503461012057602092836003193601126101b357805163fefe46f160e01b8152823593909285848281305afa9384156102d35782946102a4575b506305f5e1009485810295818704149015171561029157831561027e5750505191048152f35b634e487b7160e01b825260129052602490fd5b634e487b7160e01b825260119052602490fd5b9093508581813d83116102cc575b6102bc8183610c43565b8101031261012057519286610258565b503d6102b2565b83513d84823e3d90fd5b505034610120578160031936011261012057517f00000000000000000000000000000000000000000000000000000000000000006001600160a01b03168152602090f35b50503461012057816003193601126101205760209060ff60015460a01c1690519015158152f35b83346103a257806003193601126103a257610361610c18565b80546001600160a01b03198116825581906001600160a01b03167f8be0079c531659141344cd1fd0a4f28419497f9722a3daafe3b4186f6b6457e08280a380f35b80fd5b8284346103a257806003193601126103a257506103c0610e0a565b825191825215156020820152f35b919050346101b357602092836003193601126103a257815163fefe46f160e01b815292803585858381305afa948515610457578395610428575b508481029481860414901517156102915750506305f5e100905191048152f35b9094508581813d8311610450575b6104408183610c43565b810103126101b35751935f610408565b503d610436565b84513d85823e3d90fd5b9050346101b35760203660031901126101b35780359061047f610c18565b81156104bf5750907f23d7699acdcc135096fefb30738c302da5792f78f39d038c1e7d74fd9c646cb291600254908060025582519182526020820152a180f35b825163225d34a960e21b8152fd5b8284346103a2576020806003193601126101205783356001600160a01b038181169291839003610791576104ff610c18565b8215610758577f000000000000000000000000000000000000000000000000000000000000000016908183146107175784519163313ce56760e01b80845282848981885afa93841561070d5786946106ec575b5082908888518094819382525afa9182156106e2579160ff9291839287926106b5575b5050169116036106a6578251633fabe5a360e21b815260a0818681855afa838492828691879461066b575b506105b5578651630658663760e31b81528890fd5b8584989698979597131561065c571561064d576001600160501b0380911691161061063f576003548110908115610634575b50610627575050600180546001600160a01b031916821790557f0b2a0ab1bbb9ae3cf91479819f6582d01c1a1e38f2d7aa4465ddcd236721bee38280a280f35b51636e4ba61d60e01b8152fd5b9050825410856105e7565b5051630cd5fa0760e11b8152fd5b5050505162bfc92160e01b8152fd5b845162bfc92160e01b81528690fd5b9250935050610691915060a03d811161069f575b6106898183610c43565b810190610db4565b9150939291939092896105a0565b503d61067f565b505051635a8dbaed60e01b8152fd5b6106d49250803d106106db575b6106cc8183610c43565b810190610ef4565b8880610575565b503d6106c2565b86513d87823e3d90fd5b8391945061070690823d84116106db576106cc8183610c43565b9390610552565b87513d88823e3d90fd5b858160649287519262461bcd60e51b845283015260248201527f4261636b75702063616e6e6f742062652073616d65206173207072696d6172796044820152fd5b845162461bcd60e51b81528087018390526013602482015272125b9d985b1a5908189858dadd5c0819995959606a1b6044820152606490fd5b8380fd5b50503461012057816003193601126101205760015490516001600160a01b039091168152602090f35b9050346101b35760203660031901126101b35735908115158092036101b3577f577f279d2ff654c3c90b59f9dea3722d3ee10d2453f9f8c061b6c59124e017349160209161080a610c18565b6001805460ff60a01b191660a084901b60ff60a01b1617905551908152a180f35b8383346101205760203660031901126101205782356001600160a01b038116908190036101b35760a08491835192838092633fabe5a360e21b82525afa80156109355783848093819361090c575b508513156108fd5782156108fd576001600160501b038091169116106108ed576108a39042610de9565b600254106108de57600354821080156108d4575b6108c5576020925051908152f35b51636e4ba61d60e01b81529050fd5b50825482116108b7565b51630cd5fa0760e11b81529050fd5b8151630cd5fa0760e11b81528490fd5b835162bfc92160e01b81528690fd5b9250945050610929915060a03d811161069f576106898183610c43565b92959093915087610879565b505051903d90823e3d90fd5b839150346101205781600319360112610120578251633fabe5a360e21b81529060a08282817f00000000000000000000000000000000000000000000000000000000000000006001600160a01b03165afa8015610457578384809481936109ff575b508513156109f05783156109f0576001600160501b038091169116106109e2576109cd8242610de9565b600254106109e2575082519182526020820152f35b8351630cd5fa0760e11b8152fd5b855162bfc92160e01b81528390fd5b9250945050610a1d91925060a03d811161069f576106898183610c43565b92959094939150876109a3565b919050346101b357826003193601126101b357805163313ce56760e01b8152916020908390817f00000000000000000000000000000000000000000000000000000000000000006001600160a01b03165afa918215610ab95760209392610a97575b5060ff905191168152f35b60ff919250610ab290843d81116106db576106cc8183610c43565b9190610a8c565b81513d85823e3d90fd5b8383346101205780600319360112610120578235602435610ae2610c18565b8115610bb95781811115610b7657633b9aca00811015610b3357807f91a88a19f6ef384ea8f15e06b9139c98fc19dcbd91a4ba2d218ac43cee2952279495836003555582519182526020820152a180f35b825162461bcd60e51b8152602081870152601b60248201527f4d617820707269636520756e726561736f6e61626c79206869676800000000006044820152606490fd5b825162461bcd60e51b8152602081870152601c60248201527f4d6178206d7573742062652067726561746572207468616e206d696e000000006044820152606490fd5b825162461bcd60e51b8152602081870152601a60248201527f4d696e207072696365206d75737420626520706f7369746976650000000000006044820152606490fd5b8490346101205781600319360112610120576020906002548152f35b5f546001600160a01b03163303610c2b57565b60405163118cdaa760e01b8152336004820152602490fd5b90601f8019910116810190811067ffffffffffffffff821117610c6557604052565b634e487b7160e01b5f52604160045260245ffd5b604051630221321960e51b8082526001600160a01b037f0000000000000000000000000000000000000000000000000000000000000000811660048401529091602091908281602481305afa5f9181610d6d575b50610d665750600154908116908115159081610d58575b50610cfa5760405162bfc92160e01b8152600490fd5b60405192835260048301528082602481305afa908115610d4d575f91610d21575b50905090565b82813d8311610d46575b610d358183610c43565b810103126103a2575051805f610d1b565b503d610d2b565b6040513d5f823e3d90fd5b60ff915060a01c165f610ce4565b9250505090565b90918482813d8311610d95575b610d848183610c43565b810103126103a2575051905f610ccd565b503d610d7a565b51906001600160501b0382168203610db057565b5f80fd5b908160a0910312610db057610dc881610d9c565b91602082015191604081015191610de6608060608401519301610d9c565b90565b91908203918211610df657565b634e487b7160e01b5f52601160045260245ffd5b604051633fabe5a360e21b815260a0816004817f00000000000000000000000000000000000000000000000000000000000000006001600160a01b03165afa908115610d4d575f918280928192610ecc575b505f841315610ec2578215610ec2576001600160501b03809116911610610eba57610e879042610de9565b60025410610ea7576003548110818115610eae575b50610ea75790600190565b505f905f90565b9050600454105f610e9c565b50505f905f90565b505050505f905f90565b92505050610ee8915060a03d811161069f576106898183610c43565b9293909291505f610e5c565b90816020910312610db0575160ff81168103610db0579056fea26469706673582212204800b53399af8f66984eb6eb3399981bba4fc1b9f54e9ce5e35050463c51ad1d64736f6c63430008140033","linkReferences":{}},"methodIdentifiers":{"_getPriceFromFeed(address)":"44264320","backupFeed()":"499e67e8","convertGBPtoUSD(uint256)":"5909568f","convertUSDtoGBP(uint256)":"8a178a91","decimals()":"313ce567","gbpUsdFeed()":"7c115883","getGBPUSDPrice()":"fefe46f1","getGBPUSDPriceWithTimestamp()":"3fa26861","getGBPUSDPriceWithValidation()":"6b092fd1","maxPrice()":"e38d6b5c","maxPriceAge()":"1584410a","minPrice()":"e45be8eb","owner()":"8da5cb5b","renounceOwnership()":"715018a6","setBackupFeed(address)":"4e9cbca2","setMaxPriceAge(uint256)":"56447ce8","setPriceBounds(uint256,uint256)":"19b9dfb5","setUseBackup(bool)":"46f9b420","transferOwnership(address)":"f2fde38b","useBackup()":"769087dc"},"id":45}